{
  "_format": "hh-sol-artifact-1",
  "contractName": "sushiNFT",
  "sourceName": "contracts/sushiNFT.sol",
  "abi": [
    {
      "inputs": [],
      "stateMutability": "nonpayable",
      "type": "constructor"
    },
    {
      "anonymous": false,
      "inputs": [
        {
          "indexed": true,
          "internalType": "address",
          "name": "owner",
          "type": "address"
        },
        {
          "indexed": true,
          "internalType": "address",
          "name": "approved",
          "type": "address"
        },
        {
          "indexed": true,
          "internalType": "uint256",
          "name": "tokenId",
          "type": "uint256"
        }
      ],
      "name": "Approval",
      "type": "event"
    },
    {
      "anonymous": false,
      "inputs": [
        {
          "indexed": true,
          "internalType": "address",
          "name": "owner",
          "type": "address"
        },
        {
          "indexed": true,
          "internalType": "address",
          "name": "operator",
          "type": "address"
        },
        {
          "indexed": false,
          "internalType": "bool",
          "name": "approved",
          "type": "bool"
        }
      ],
      "name": "ApprovalForAll",
      "type": "event"
    },
    {
      "anonymous": false,
      "inputs": [
        {
          "indexed": false,
          "internalType": "address",
          "name": "sender",
          "type": "address"
        },
        {
          "indexed": false,
          "internalType": "uint256",
          "name": "tokenId",
          "type": "uint256"
        }
      ],
      "name": "NewSushiNFTMinted",
      "type": "event"
    },
    {
      "anonymous": false,
      "inputs": [
        {
          "indexed": true,
          "internalType": "address",
          "name": "from",
          "type": "address"
        },
        {
          "indexed": true,
          "internalType": "address",
          "name": "to",
          "type": "address"
        },
        {
          "indexed": true,
          "internalType": "uint256",
          "name": "tokenId",
          "type": "uint256"
        }
      ],
      "name": "Transfer",
      "type": "event"
    },
    {
      "inputs": [
        {
          "internalType": "address",
          "name": "to",
          "type": "address"
        },
        {
          "internalType": "uint256",
          "name": "tokenId",
          "type": "uint256"
        }
      ],
      "name": "approve",
      "outputs": [],
      "stateMutability": "nonpayable",
      "type": "function"
    },
    {
      "inputs": [
        {
          "internalType": "address",
          "name": "owner",
          "type": "address"
        }
      ],
      "name": "balanceOf",
      "outputs": [
        {
          "internalType": "uint256",
          "name": "",
          "type": "uint256"
        }
      ],
      "stateMutability": "view",
      "type": "function"
    },
    {
      "inputs": [
        {
          "internalType": "uint256",
          "name": "tokenId",
          "type": "uint256"
        }
      ],
      "name": "getApproved",
      "outputs": [
        {
          "internalType": "address",
          "name": "",
          "type": "address"
        }
      ],
      "stateMutability": "view",
      "type": "function"
    },
    {
      "inputs": [
        {
          "internalType": "address",
          "name": "owner",
          "type": "address"
        },
        {
          "internalType": "address",
          "name": "operator",
          "type": "address"
        }
      ],
      "name": "isApprovedForAll",
      "outputs": [
        {
          "internalType": "bool",
          "name": "",
          "type": "bool"
        }
      ],
      "stateMutability": "view",
      "type": "function"
    },
    {
      "inputs": [],
      "name": "makeAnEpicNFT",
      "outputs": [],
      "stateMutability": "nonpayable",
      "type": "function"
    },
    {
      "inputs": [],
      "name": "name",
      "outputs": [
        {
          "internalType": "string",
          "name": "",
          "type": "string"
        }
      ],
      "stateMutability": "view",
      "type": "function"
    },
    {
      "inputs": [
        {
          "internalType": "uint256",
          "name": "tokenId",
          "type": "uint256"
        }
      ],
      "name": "ownerOf",
      "outputs": [
        {
          "internalType": "address",
          "name": "",
          "type": "address"
        }
      ],
      "stateMutability": "view",
      "type": "function"
    },
    {
      "inputs": [
        {
          "internalType": "uint256",
          "name": "tokenId",
          "type": "uint256"
        }
      ],
      "name": "pickRandomFirstWord",
      "outputs": [
        {
          "internalType": "string",
          "name": "",
          "type": "string"
        }
      ],
      "stateMutability": "view",
      "type": "function"
    },
    {
      "inputs": [
        {
          "internalType": "uint256",
          "name": "tokenId",
          "type": "uint256"
        }
      ],
      "name": "pickRandomSecondWord",
      "outputs": [
        {
          "internalType": "string",
          "name": "",
          "type": "string"
        }
      ],
      "stateMutability": "view",
      "type": "function"
    },
    {
      "inputs": [
        {
          "internalType": "uint256",
          "name": "tokenId",
          "type": "uint256"
        }
      ],
      "name": "pickRandomThirdWord",
      "outputs": [
        {
          "internalType": "string",
          "name": "",
          "type": "string"
        }
      ],
      "stateMutability": "view",
      "type": "function"
    },
    {
      "inputs": [
        {
          "internalType": "address",
          "name": "from",
          "type": "address"
        },
        {
          "internalType": "address",
          "name": "to",
          "type": "address"
        },
        {
          "internalType": "uint256",
          "name": "tokenId",
          "type": "uint256"
        }
      ],
      "name": "safeTransferFrom",
      "outputs": [],
      "stateMutability": "nonpayable",
      "type": "function"
    },
    {
      "inputs": [
        {
          "internalType": "address",
          "name": "from",
          "type": "address"
        },
        {
          "internalType": "address",
          "name": "to",
          "type": "address"
        },
        {
          "internalType": "uint256",
          "name": "tokenId",
          "type": "uint256"
        },
        {
          "internalType": "bytes",
          "name": "_data",
          "type": "bytes"
        }
      ],
      "name": "safeTransferFrom",
      "outputs": [],
      "stateMutability": "nonpayable",
      "type": "function"
    },
    {
      "inputs": [
        {
          "internalType": "address",
          "name": "operator",
          "type": "address"
        },
        {
          "internalType": "bool",
          "name": "approved",
          "type": "bool"
        }
      ],
      "name": "setApprovalForAll",
      "outputs": [],
      "stateMutability": "nonpayable",
      "type": "function"
    },
    {
      "inputs": [
        {
          "internalType": "bytes4",
          "name": "interfaceId",
          "type": "bytes4"
        }
      ],
      "name": "supportsInterface",
      "outputs": [
        {
          "internalType": "bool",
          "name": "",
          "type": "bool"
        }
      ],
      "stateMutability": "view",
      "type": "function"
    },
    {
      "inputs": [],
      "name": "symbol",
      "outputs": [
        {
          "internalType": "string",
          "name": "",
          "type": "string"
        }
      ],
      "stateMutability": "view",
      "type": "function"
    },
    {
      "inputs": [
        {
          "internalType": "uint256",
          "name": "tokenId",
          "type": "uint256"
        }
      ],
      "name": "tokenURI",
      "outputs": [
        {
          "internalType": "string",
          "name": "",
          "type": "string"
        }
      ],
      "stateMutability": "view",
      "type": "function"
    },
    {
      "inputs": [
        {
          "internalType": "address",
          "name": "from",
          "type": "address"
        },
        {
          "internalType": "address",
          "name": "to",
          "type": "address"
        },
        {
          "internalType": "uint256",
          "name": "tokenId",
          "type": "uint256"
        }
      ],
      "name": "transferFrom",
      "outputs": [],
      "stateMutability": "nonpayable",
      "type": "function"
    }
  ],
  "bytecode": "0x608060405260405180610160016040528061012f815260200162004e8e61012f9139600890805190602001906200003892919062000f7e565b506040518061020001604052806040518060400160405280600981526020017f44656c6963696f7573000000000000000000000000000000000000000000000081525081526020016040518060400160405280600a81526020017f4170706574697a696e670000000000000000000000000000000000000000000081525081526020016040518060400160405280600a81526020017f44656c65637461626c650000000000000000000000000000000000000000000081525081526020016040518060400160405280600a81526020017f44656c6967687466756c0000000000000000000000000000000000000000000081525081526020016040518060400160405280600881526020017f456e746963696e6700000000000000000000000000000000000000000000000081525081526020016040518060400160405280600981526020017f457871756973697465000000000000000000000000000000000000000000000081525081526020016040518060400160405280600881526020017f48656176656e6c7900000000000000000000000000000000000000000000000081525081526020016040518060400160405280600881526020017f4c757363696f757300000000000000000000000000000000000000000000000081525081526020016040518060400160405280600881526020017f506c656173616e7400000000000000000000000000000000000000000000000081525081526020016040518060400160405280600481526020017f526963680000000000000000000000000000000000000000000000000000000081525081526020016040518060400160405280600681526020017f5361766f7279000000000000000000000000000000000000000000000000000081525081526020016040518060400160405280600581526020017f537069637900000000000000000000000000000000000000000000000000000081525081526020016040518060400160405280600581526020017f537765657400000000000000000000000000000000000000000000000000000081525081526020016040518060400160405280600581526020017f546173747900000000000000000000000000000000000000000000000000000081525081526020016040518060400160405280600881526020017f54656d7074696e6700000000000000000000000000000000000000000000000081525081526020016040518060400160405280600581526020017f59756d6d790000000000000000000000000000000000000000000000000000008152508152506009906010620004059291906200100f565b50604051806103c001604052806040518060400160405280600381526020017f416869000000000000000000000000000000000000000000000000000000000081525081526020016040518060400160405280600381526020017f416a69000000000000000000000000000000000000000000000000000000000081525081526020016040518060400160405280600681526020017f416d61656269000000000000000000000000000000000000000000000000000081525081526020016040518060400160405280600581526020017f416e61676f00000000000000000000000000000000000000000000000000000081525081526020016040518060400160405280600681526020017f416f79616769000000000000000000000000000000000000000000000000000081525081526020016040518060400160405280600681526020017f42696e63686f000000000000000000000000000000000000000000000000000081525081526020016040518060400160405280600681526020017f4b617473756f000000000000000000000000000000000000000000000000000081525081526020016040518060400160405280600381526020017f456269000000000000000000000000000000000000000000000000000000000081525081526020016040518060400160405280600781526020017f48616d616368690000000000000000000000000000000000000000000000000081525081526020016040518060400160405280600b81526020017f48616d61636869546f726f00000000000000000000000000000000000000000081525081526020016040518060400160405280600681526020017f486972616d65000000000000000000000000000000000000000000000000000081525081526020016040518060400160405280600781526020017f486f6b696761690000000000000000000000000000000000000000000000000081525081526020016040518060400160405280600681526020017f486f74617465000000000000000000000000000000000000000000000000000081525081526020016040518060400160405280600381526020017f496b61000000000000000000000000000000000000000000000000000000000081525081526020016040518060400160405280600581526020017f496b75726100000000000000000000000000000000000000000000000000000081525081526020016040518060400160405280600681526020017f497761736869000000000000000000000000000000000000000000000000000081525081526020016040518060400160405280600481526020017f4b616e690000000000000000000000000000000000000000000000000000000081525081526020016040518060400160405280600881526020017f4b616e706163686900000000000000000000000000000000000000000000000081525081526020016040518060400160405280600681526020017f4d616775726f000000000000000000000000000000000000000000000000000081525081526020016040518060400160405280600481526020017f536162610000000000000000000000000000000000000000000000000000000081525081526020016040518060400160405280600481526020017f53616b650000000000000000000000000000000000000000000000000000000081525081526020016040518060400160405280600881526020017f53616b65546f726f00000000000000000000000000000000000000000000000081525081526020016040518060400160405280600381526020017f546169000000000000000000000000000000000000000000000000000000000081525081526020016040518060400160405280600481526020017f54616b6f0000000000000000000000000000000000000000000000000000000081525081526020016040518060400160405280600681526020017f54616d61676f000000000000000000000000000000000000000000000000000081525081526020016040518060400160405280600481526020017f546f726f0000000000000000000000000000000000000000000000000000000081525081526020016040518060400160405280600881526020017f547375627567616900000000000000000000000000000000000000000000000081525081526020016040518060400160405280600781526020017f556d694d6173750000000000000000000000000000000000000000000000000081525081526020016040518060400160405280600581526020017f556e61676900000000000000000000000000000000000000000000000000000081525081526020016040518060400160405280600381526020017f556e690000000000000000000000000000000000000000000000000000000000815250815250600a90601e62000b0c92919062001076565b506040518061016001604052806040518060400160405280600a81526020017f4d616b695f53757368690000000000000000000000000000000000000000000081525081526020016040518060400160405280600b81526020017f47756e6b616e5f4d616b6900000000000000000000000000000000000000000081525081526020016040518060400160405280600681526020017f54656d616b69000000000000000000000000000000000000000000000000000081525081526020016040518060400160405280600a81526020017f4e6172655f53757368690000000000000000000000000000000000000000000081525081526020016040518060400160405280600681526020017f4e6967697269000000000000000000000000000000000000000000000000000081525081526020016040518060400160405280600a81526020017f4f7368695f53757368690000000000000000000000000000000000000000000081525081526020016040518060400160405280600a81526020017f536173615f53757368690000000000000000000000000000000000000000000081525081526020016040518060400160405280600e81526020017f4b616b696e6f68615f537573686900000000000000000000000000000000000081525081526020016040518060400160405280600681526020017f54656d617269000000000000000000000000000000000000000000000000000081525081526020016040518060400160405280600e81526020017f43686972617368695f537573686900000000000000000000000000000000000081525081526020016040518060400160405280600b81526020017f496e6172695f5375736869000000000000000000000000000000000000000000815250815250600b90600b62000db2929190620010dd565b5034801562000dc057600080fd5b506040518060400160405280600881526020017f73757368694e46540000000000000000000000000000000000000000000000008152506040518060400160405280600581526020017f5355534849000000000000000000000000000000000000000000000000000000815250816000908051906020019062000e4592919062000f7e565b50806001908051906020019062000e5e92919062000f7e565b50505062000eac6040518060400160405280601e81526020017f54686973206973206d79204e465420636f6e74726163742e20576f616821000081525062000eb260201b620010dd1760201c565b620012fe565b62000f528160405160240162000ec9919062001212565b6040516020818303038152906040527f41304fac000000000000000000000000000000000000000000000000000000007bffffffffffffffffffffffffffffffffffffffffffffffffffffffff19166020820180517bffffffffffffffffffffffffffffffffffffffffffffffffffffffff838183161783525050505062000f5560201b60201c565b50565b60008151905060006a636f6e736f6c652e6c6f679050602083016000808483855afa5050505050565b82805462000f8c9062001288565b90600052602060002090601f01602090048101928262000fb0576000855562000ffc565b82601f1062000fcb57805160ff191683800117855562000ffc565b8280016001018555821562000ffc579182015b8281111562000ffb57825182559160200191906001019062000fde565b5b5090506200100b919062001144565b5090565b82805482825590600052602060002090810192821562001063579160200282015b82811115620010625782518290805190602001906200105192919062000f7e565b509160200191906001019062001030565b5b50905062001072919062001163565b5090565b828054828255906000526020600020908101928215620010ca579160200282015b82811115620010c9578251829080519060200190620010b892919062000f7e565b509160200191906001019062001097565b5b509050620010d9919062001163565b5090565b82805482825590600052602060002090810192821562001131579160200282015b82811115620011305782518290805190602001906200111f92919062000f7e565b5091602001919060010190620010fe565b5b50905062001140919062001163565b5090565b5b808211156200115f57600081600090555060010162001145565b5090565b5b808211156200118757600081816200117d91906200118b565b5060010162001164565b5090565b508054620011999062001288565b6000825580601f10620011ad5750620011ce565b601f016020900490600052602060002090810190620011cd919062001144565b5b50565b6000620011de8262001236565b620011ea818562001241565b9350620011fc81856020860162001252565b6200120781620012ed565b840191505092915050565b600060208201905081810360008301526200122e8184620011d1565b905092915050565b600081519050919050565b600082825260208201905092915050565b60005b838110156200127257808201518184015260208101905062001255565b8381111562001282576000848401525b50505050565b60006002820490506001821680620012a157607f821691505b60208210811415620012b857620012b7620012be565b5b50919050565b7f4e487b7100000000000000000000000000000000000000000000000000000000600052602260045260246000fd5b6000601f19601f8301169050919050565b613b80806200130e6000396000f3fe608060405234801561001057600080fd5b506004361061010b5760003560e01c806370a08231116100a2578063b88d4fde11610071578063b88d4fde146102dc578063c575757a146102f8578063c87b56dd14610328578063de9d132f14610358578063e985e9c5146103625761010b565b806370a082311461024257806395d89b4114610272578063a22cb46514610290578063b187301f146102ac5761010b565b806323b872dd116100de57806323b872dd146101aa5780632de38d68146101c657806342842e0e146101f65780636352211e146102125761010b565b806301ffc9a71461011057806306fdde0314610140578063081812fc1461015e578063095ea7b31461018e575b600080fd5b61012a600480360381019061012591906124ea565b610392565b6040516101379190612cce565b60405180910390f35b610148610474565b6040516101559190612ce9565b60405180910390f35b6101786004803603810190610173919061253c565b610506565b6040516101859190612c3e565b60405180910390f35b6101a860048036038101906101a391906124ae565b61058b565b005b6101c460048036038101906101bf91906123a8565b6106a3565b005b6101e060048036038101906101db919061253c565b610703565b6040516101ed9190612ce9565b60405180910390f35b610210600480360381019061020b91906123a8565b610821565b005b61022c6004803603810190610227919061253c565b610841565b6040516102399190612c3e565b60405180910390f35b61025c60048036038101906102579190612343565b6108f3565b6040516102699190612f49565b60405180910390f35b61027a6109ab565b6040516102879190612ce9565b60405180910390f35b6102aa60048036038101906102a59190612472565b610a3d565b005b6102c660048036038101906102c1919061253c565b610a53565b6040516102d39190612ce9565b60405180910390f35b6102f660048036038101906102f191906123f7565b610b71565b005b610312600480360381019061030d919061253c565b610bd3565b60405161031f9190612ce9565b60405180910390f35b610342600480360381019061033d919061253c565b610cf1565b60405161034f9190612ce9565b60405180910390f35b610360610e43565b005b61037c6004803603810190610377919061236c565b611049565b6040516103899190612cce565b60405180910390f35b60007f80ac58cd000000000000000000000000000000000000000000000000000000007bffffffffffffffffffffffffffffffffffffffffffffffffffffffff1916827bffffffffffffffffffffffffffffffffffffffffffffffffffffffff1916148061045d57507f5b5e139f000000000000000000000000000000000000000000000000000000007bffffffffffffffffffffffffffffffffffffffffffffffffffffffff1916827bffffffffffffffffffffffffffffffffffffffffffffffffffffffff1916145b8061046d575061046c82611176565b5b9050919050565b606060008054610483906131dd565b80601f01602080910402602001604051908101604052809291908181526020018280546104af906131dd565b80156104fc5780601f106104d1576101008083540402835291602001916104fc565b820191906000526020600020905b8154815290600101906020018083116104df57829003601f168201915b5050505050905090565b6000610511826111e0565b610550576040517f08c379a000000000000000000000000000000000000000000000000000000000815260040161054790612ec9565b60405180910390fd5b6004600083815260200190815260200160002060009054906101000a900473ffffffffffffffffffffffffffffffffffffffff169050919050565b600061059682610841565b90508073ffffffffffffffffffffffffffffffffffffffff168373ffffffffffffffffffffffffffffffffffffffff161415610607576040517f08c379a00000000000000000000000000000000000000000000000000000000081526004016105fe90612f09565b60405180910390fd5b8073ffffffffffffffffffffffffffffffffffffffff1661062661124c565b73ffffffffffffffffffffffffffffffffffffffff16148061065557506106548161064f61124c565b611049565b5b610694576040517f08c379a000000000000000000000000000000000000000000000000000000000815260040161068b90612e09565b60405180910390fd5b61069e8383611254565b505050565b6106b46106ae61124c565b8261130d565b6106f3576040517f08c379a00000000000000000000000000000000000000000000000000000000081526004016106ea90612f29565b60405180910390fd5b6106fe8383836113eb565b505050565b6060600061073761071384611652565b6040516020016107239190612b9d565b6040516020818303038152906040526117ff565b90506009805490508161074a9190613289565b905060098181548110610786577f4e487b7100000000000000000000000000000000000000000000000000000000600052603260045260246000fd5b90600052602060002001805461079b906131dd565b80601f01602080910402602001604051908101604052809291908181526020018280546107c7906131dd565b80156108145780601f106107e957610100808354040283529160200191610814565b820191906000526020600020905b8154815290600101906020018083116107f757829003601f168201915b5050505050915050919050565b61083c83838360405180602001604052806000815250610b71565b505050565b6000806002600084815260200190815260200160002060009054906101000a900473ffffffffffffffffffffffffffffffffffffffff169050600073ffffffffffffffffffffffffffffffffffffffff168173ffffffffffffffffffffffffffffffffffffffff1614156108ea576040517f08c379a00000000000000000000000000000000000000000000000000000000081526004016108e190612e49565b60405180910390fd5b80915050919050565b60008073ffffffffffffffffffffffffffffffffffffffff168273ffffffffffffffffffffffffffffffffffffffff161415610964576040517f08c379a000000000000000000000000000000000000000000000000000000000815260040161095b90612e29565b60405180910390fd5b600360008373ffffffffffffffffffffffffffffffffffffffff1673ffffffffffffffffffffffffffffffffffffffff168152602001908152602001600020549050919050565b6060600180546109ba906131dd565b80601f01602080910402602001604051908101604052809291908181526020018280546109e6906131dd565b8015610a335780601f10610a0857610100808354040283529160200191610a33565b820191906000526020600020905b815481529060010190602001808311610a1657829003601f168201915b5050505050905090565b610a4f610a4861124c565b8383611832565b5050565b60606000610a87610a6384611652565b604051602001610a739190612b36565b6040516020818303038152906040526117ff565b9050600a8054905081610a9a9190613289565b9050600a8181548110610ad6577f4e487b7100000000000000000000000000000000000000000000000000000000600052603260045260246000fd5b906000526020600020018054610aeb906131dd565b80601f0160208091040260200160405190810160405280929190818152602001828054610b17906131dd565b8015610b645780601f10610b3957610100808354040283529160200191610b64565b820191906000526020600020905b815481529060010190602001808311610b4757829003601f168201915b5050505050915050919050565b610b82610b7c61124c565b8361130d565b610bc1576040517f08c379a0000000000000000000000000000000000000000000000000000000008152600401610bb890612f29565b60405180910390fd5b610bcd8484848461199f565b50505050565b60606000610c07610be384611652565b604051602001610bf39190612b14565b6040516020818303038152906040526117ff565b9050600b8054905081610c1a9190613289565b9050600b8181548110610c56577f4e487b7100000000000000000000000000000000000000000000000000000000600052603260045260246000fd5b906000526020600020018054610c6b906131dd565b80601f0160208091040260200160405190810160405280929190818152602001828054610c97906131dd565b8015610ce45780601f10610cb957610100808354040283529160200191610ce4565b820191906000526020600020905b815481529060010190602001808311610cc757829003601f168201915b5050505050915050919050565b6060610cfc826111e0565b610d3b576040517f08c379a0000000000000000000000000000000000000000000000000000000008152600401610d3290612ea9565b60405180910390fd5b6000600660008481526020019081526020016000208054610d5b906131dd565b80601f0160208091040260200160405190810160405280929190818152602001828054610d87906131dd565b8015610dd45780601f10610da957610100808354040283529160200191610dd4565b820191906000526020600020905b815481529060010190602001808311610db757829003601f168201915b505050505090506000610de56119fb565b9050600081511415610dfb578192505050610e3e565b600082511115610e30578082604051602001610e18929190612a9f565b60405160208183030381529060405292505050610e3e565b610e3984611a12565b925050505b919050565b6000610e4f6007611ab9565b90506000610e5c82610703565b90506000610e6983610a53565b90506000610e7684610bd3565b90506000838383604051602001610e8f93929190612be1565b60405160208183030381529060405290506000600882604051602001610eb6929190612ac3565b60405160208183030381529060405290506000610efb83610ed684611ac7565b604051602001610ee7929190612b58565b604051602081830303815290604052611ac7565b9050600081604051602001610f109190612bbf565b6040516020818303038152906040529050610f5f6040518060400160405280601581526020017f0a2d2d2d2d2d2d2d2d2d2d2d2d2d2d2d2d2d2d2d2d00000000000000000000008152506110dd565b610f8781604051602001610f739190612af2565b6040516020818303038152906040526110dd565b610fc56040518060400160405280601581526020017f2d2d2d2d2d2d2d2d2d2d2d2d2d2d2d2d2d2d2d2d0a00000000000000000000008152506110dd565b610fcf3389611c66565b610fd98882611c84565b610fe36007611cf8565b611006604051806060016040528060258152602001613ae6602591398933611d0e565b7fed6f7f020bdd2d65719444e2ae22940cbd6cf1bec4bfed95d5989711f0bcdcb73389604051611037929190612ca5565b60405180910390a15050505050505050565b6000600560008473ffffffffffffffffffffffffffffffffffffffff1673ffffffffffffffffffffffffffffffffffffffff16815260200190815260200160002060008373ffffffffffffffffffffffffffffffffffffffff1673ffffffffffffffffffffffffffffffffffffffff16815260200190815260200160002060009054906101000a900460ff16905092915050565b611173816040516024016110f19190612ce9565b6040516020818303038152906040527f41304fac000000000000000000000000000000000000000000000000000000007bffffffffffffffffffffffffffffffffffffffffffffffffffffffff19166020820180517bffffffffffffffffffffffffffffffffffffffffffffffffffffffff8381831617835250505050611dad565b50565b60007f01ffc9a7000000000000000000000000000000000000000000000000000000007bffffffffffffffffffffffffffffffffffffffffffffffffffffffff1916827bffffffffffffffffffffffffffffffffffffffffffffffffffffffff1916149050919050565b60008073ffffffffffffffffffffffffffffffffffffffff166002600084815260200190815260200160002060009054906101000a900473ffffffffffffffffffffffffffffffffffffffff1673ffffffffffffffffffffffffffffffffffffffff1614159050919050565b600033905090565b816004600083815260200190815260200160002060006101000a81548173ffffffffffffffffffffffffffffffffffffffff021916908373ffffffffffffffffffffffffffffffffffffffff160217905550808273ffffffffffffffffffffffffffffffffffffffff166112c783610841565b73ffffffffffffffffffffffffffffffffffffffff167f8c5be1e5ebec7d5bd14f71427d1e84f3dd0314c0f7b2291e5b200ac8c7c3b92560405160405180910390a45050565b6000611318826111e0565b611357576040517f08c379a000000000000000000000000000000000000000000000000000000000815260040161134e90612de9565b60405180910390fd5b600061136283610841565b90508073ffffffffffffffffffffffffffffffffffffffff168473ffffffffffffffffffffffffffffffffffffffff1614806113d157508373ffffffffffffffffffffffffffffffffffffffff166113b984610506565b73ffffffffffffffffffffffffffffffffffffffff16145b806113e257506113e18185611049565b5b91505092915050565b8273ffffffffffffffffffffffffffffffffffffffff1661140b82610841565b73ffffffffffffffffffffffffffffffffffffffff1614611461576040517f08c379a000000000000000000000000000000000000000000000000000000000815260040161145890612d69565b60405180910390fd5b600073ffffffffffffffffffffffffffffffffffffffff168273ffffffffffffffffffffffffffffffffffffffff1614156114d1576040517f08c379a00000000000000000000000000000000000000000000000000000000081526004016114c890612da9565b60405180910390fd5b6114dc838383611dd6565b6114e7600082611254565b6001600360008573ffffffffffffffffffffffffffffffffffffffff1673ffffffffffffffffffffffffffffffffffffffff168152602001908152602001600020600082825461153791906130f3565b925050819055506001600360008473ffffffffffffffffffffffffffffffffffffffff1673ffffffffffffffffffffffffffffffffffffffff168152602001908152602001600020600082825461158e9190613012565b92505081905550816002600083815260200190815260200160002060006101000a81548173ffffffffffffffffffffffffffffffffffffffff021916908373ffffffffffffffffffffffffffffffffffffffff160217905550808273ffffffffffffffffffffffffffffffffffffffff168473ffffffffffffffffffffffffffffffffffffffff167fddf252ad1be2c89b69c2b068fc378daa952ba7f163c4a11628f55a4df523b3ef60405160405180910390a461164d838383611ddb565b505050565b6060600082141561169a576040518060400160405280600181526020017f300000000000000000000000000000000000000000000000000000000000000081525090506117fa565b600082905060005b600082146116cc5780806116b590613240565b915050600a826116c59190613068565b91506116a2565b60008167ffffffffffffffff81111561170e577f4e487b7100000000000000000000000000000000000000000000000000000000600052604160045260246000fd5b6040519080825280601f01601f1916602001820160405280156117405781602001600182028036833780820191505090505b5090505b600085146117f35760018261175991906130f3565b9150600a856117689190613289565b60306117749190613012565b60f81b8183815181106117b0577f4e487b7100000000000000000000000000000000000000000000000000000000600052603260045260246000fd5b60200101907effffffffffffffffffffffffffffffffffffffffffffffffffffffffffffff1916908160001a905350600a856117ec9190613068565b9450611744565b8093505050505b919050565b6000816040516020016118129190612a88565b6040516020818303038152906040528051906020012060001c9050919050565b8173ffffffffffffffffffffffffffffffffffffffff168373ffffffffffffffffffffffffffffffffffffffff1614156118a1576040517f08c379a000000000000000000000000000000000000000000000000000000000815260040161189890612dc9565b60405180910390fd5b80600560008573ffffffffffffffffffffffffffffffffffffffff1673ffffffffffffffffffffffffffffffffffffffff16815260200190815260200160002060008473ffffffffffffffffffffffffffffffffffffffff1673ffffffffffffffffffffffffffffffffffffffff16815260200190815260200160002060006101000a81548160ff0219169083151502179055508173ffffffffffffffffffffffffffffffffffffffff168373ffffffffffffffffffffffffffffffffffffffff167f17307eab39ab6107e8899845ad3d59bd9653f200f220920489ca2b5937696c31836040516119929190612cce565b60405180910390a3505050565b6119aa8484846113eb565b6119b684848484611de0565b6119f5576040517f08c379a00000000000000000000000000000000000000000000000000000000081526004016119ec90612d49565b60405180910390fd5b50505050565b606060405180602001604052806000815250905090565b6060611a1d826111e0565b611a5c576040517f08c379a0000000000000000000000000000000000000000000000000000000008152600401611a5390612ee9565b60405180910390fd5b6000611a666119fb565b90506000815111611a865760405180602001604052806000815250611ab1565b80611a9084611652565b604051602001611aa1929190612a9f565b6040516020818303038152906040525b915050919050565b600081600001549050919050565b6060600082511415611aea57604051806020016040528060008152509050611c61565b6000604051806060016040528060408152602001613b0b6040913990506000600360028551611b199190613012565b611b239190613068565b6004611b2f9190613099565b90506000602082611b409190613012565b67ffffffffffffffff811115611b7f577f4e487b7100000000000000000000000000000000000000000000000000000000600052604160045260246000fd5b6040519080825280601f01601f191660200182016040528015611bb15781602001600182028036833780820191505090505b509050818152600183018586518101602084015b81831015611c20576003830192508251603f8160121c168501518253600182019150603f81600c1c168501518253600182019150603f8160061c168501518253600182019150603f8116850151825360018201915050611bc5565b600389510660018114611c3a5760028114611c4a57611c55565b613d3d60f01b6002830352611c55565b603d60f81b60018303525b50505050508093505050505b919050565b611c80828260405180602001604052806000815250611f77565b5050565b611c8d826111e0565b611ccc576040517f08c379a0000000000000000000000000000000000000000000000000000000008152600401611cc390612e69565b60405180910390fd5b80600660008481526020019081526020016000209080519060200190611cf39291906121cf565b505050565b6001816000016000828254019250508190555050565b611da8838383604051602401611d2693929190612d0b565b6040516020818303038152906040527fe3849f79000000000000000000000000000000000000000000000000000000007bffffffffffffffffffffffffffffffffffffffffffffffffffffffff19166020820180517bffffffffffffffffffffffffffffffffffffffffffffffffffffffff8381831617835250505050611dad565b505050565b60008151905060006a636f6e736f6c652e6c6f679050602083016000808483855afa5050505050565b505050565b505050565b6000611e018473ffffffffffffffffffffffffffffffffffffffff16611fd2565b15611f6a578373ffffffffffffffffffffffffffffffffffffffff1663150b7a02611e2a61124c565b8786866040518563ffffffff1660e01b8152600401611e4c9493929190612c59565b602060405180830381600087803b158015611e6657600080fd5b505af1925050508015611e9757506040513d601f19601f82011682018060405250810190611e949190612513565b60015b611f1a573d8060008114611ec7576040519150601f19603f3d011682016040523d82523d6000602084013e611ecc565b606091505b50600081511415611f12576040517f08c379a0000000000000000000000000000000000000000000000000000000008152600401611f0990612d49565b60405180910390fd5b805181602001fd5b63150b7a0260e01b7bffffffffffffffffffffffffffffffffffffffffffffffffffffffff1916817bffffffffffffffffffffffffffffffffffffffffffffffffffffffff191614915050611f6f565b600190505b949350505050565b611f818383611ff5565b611f8e6000848484611de0565b611fcd576040517f08c379a0000000000000000000000000000000000000000000000000000000008152600401611fc490612d49565b60405180910390fd5b505050565b6000808273ffffffffffffffffffffffffffffffffffffffff163b119050919050565b600073ffffffffffffffffffffffffffffffffffffffff168273ffffffffffffffffffffffffffffffffffffffff161415612065576040517f08c379a000000000000000000000000000000000000000000000000000000000815260040161205c90612e89565b60405180910390fd5b61206e816111e0565b156120ae576040517f08c379a00000000000000000000000000000000000000000000000000000000081526004016120a590612d89565b60405180910390fd5b6120ba60008383611dd6565b6001600360008473ffffffffffffffffffffffffffffffffffffffff1673ffffffffffffffffffffffffffffffffffffffff168152602001908152602001600020600082825461210a9190613012565b92505081905550816002600083815260200190815260200160002060006101000a81548173ffffffffffffffffffffffffffffffffffffffff021916908373ffffffffffffffffffffffffffffffffffffffff160217905550808273ffffffffffffffffffffffffffffffffffffffff16600073ffffffffffffffffffffffffffffffffffffffff167fddf252ad1be2c89b69c2b068fc378daa952ba7f163c4a11628f55a4df523b3ef60405160405180910390a46121cb60008383611ddb565b5050565b8280546121db906131dd565b90600052602060002090601f0160209004810192826121fd5760008555612244565b82601f1061221657805160ff1916838001178555612244565b82800160010185558215612244579182015b82811115612243578251825591602001919060010190612228565b5b5090506122519190612255565b5090565b5b8082111561226e576000816000905550600101612256565b5090565b600061228561228084612f89565b612f64565b90508281526020810184848401111561229d57600080fd5b6122a884828561319b565b509392505050565b6000813590506122bf81613a89565b92915050565b6000813590506122d481613aa0565b92915050565b6000813590506122e981613ab7565b92915050565b6000815190506122fe81613ab7565b92915050565b600082601f83011261231557600080fd5b8135612325848260208601612272565b91505092915050565b60008135905061233d81613ace565b92915050565b60006020828403121561235557600080fd5b6000612363848285016122b0565b91505092915050565b6000806040838503121561237f57600080fd5b600061238d858286016122b0565b925050602061239e858286016122b0565b9150509250929050565b6000806000606084860312156123bd57600080fd5b60006123cb868287016122b0565b93505060206123dc868287016122b0565b92505060406123ed8682870161232e565b9150509250925092565b6000806000806080858703121561240d57600080fd5b600061241b878288016122b0565b945050602061242c878288016122b0565b935050604061243d8782880161232e565b925050606085013567ffffffffffffffff81111561245a57600080fd5b61246687828801612304565b91505092959194509250565b6000806040838503121561248557600080fd5b6000612493858286016122b0565b92505060206124a4858286016122c5565b9150509250929050565b600080604083850312156124c157600080fd5b60006124cf858286016122b0565b92505060206124e08582860161232e565b9150509250929050565b6000602082840312156124fc57600080fd5b600061250a848285016122da565b91505092915050565b60006020828403121561252557600080fd5b6000612533848285016122ef565b91505092915050565b60006020828403121561254e57600080fd5b600061255c8482850161232e565b91505092915050565b61256e81613127565b82525050565b61257d81613139565b82525050565b600061258e82612fcf565b6125988185612fe5565b93506125a88185602086016131aa565b6125b181613376565b840191505092915050565b60006125c782612fda565b6125d18185612ff6565b93506125e18185602086016131aa565b6125ea81613376565b840191505092915050565b600061260082612fda565b61260a8185613007565b935061261a8185602086016131aa565b80840191505092915050565b60008154612633816131dd565b61263d8186613007565b9450600182166000811461265857600181146126695761269c565b60ff1983168652818601935061269c565b61267285612fba565b60005b8381101561269457815481890152600182019150602081019050612675565b838801955050505b50505092915050565b60006126b2602583613007565b91506126bd82613387565b602582019050919050565b60006126d5603283612ff6565b91506126e0826133d6565b604082019050919050565b60006126f8600483613007565b915061270382613425565b600482019050919050565b600061271b602583612ff6565b91506127268261344e565b604082019050919050565b600061273e601c83612ff6565b91506127498261349d565b602082019050919050565b6000612761600a83613007565b915061276c826134c6565b600a82019050919050565b6000612784602483612ff6565b915061278f826134ef565b604082019050919050565b60006127a7601983612ff6565b91506127b28261353e565b602082019050919050565b60006127ca600b83613007565b91506127d582613567565b600b82019050919050565b60006127ed602c83612ff6565b91506127f882613590565b604082019050919050565b6000612810600d83613007565b915061281b826135df565b600d82019050919050565b6000612833603883612ff6565b915061283e82613608565b604082019050919050565b6000612856602a83612ff6565b915061286182613657565b604082019050919050565b6000612879602983612ff6565b9150612884826136a6565b604082019050919050565b600061289c602e83612ff6565b91506128a7826136f5565b604082019050919050565b60006128bf607083613007565b91506128ca82613744565b607082019050919050565b60006128e2600283613007565b91506128ed826137df565b600282019050919050565b6000612905602083612ff6565b915061291082613808565b602082019050919050565b6000612928603183612ff6565b915061293382613831565b604082019050919050565b600061294b602c83612ff6565b915061295682613880565b604082019050919050565b600061296e602f83612ff6565b9150612979826138cf565b604082019050919050565b6000612991600a83613007565b915061299c8261391e565b600a82019050919050565b60006129b4602183612ff6565b91506129bf82613947565b604082019050919050565b60006129d7600a83613007565b91506129e282613996565b600a82019050919050565b60006129fa601d83613007565b9150612a05826139bf565b601d82019050919050565b6000612a1d603183612ff6565b9150612a28826139e8565b604082019050919050565b6000612a40600183613007565b9150612a4b82613a37565b600182019050919050565b6000612a63600483613007565b9150612a6e82613a60565b600482019050919050565b612a8281613191565b82525050565b6000612a9482846125f5565b915081905092915050565b6000612aab82856125f5565b9150612ab782846125f5565b91508190509392505050565b6000612acf8285612626565b9150612adb82846125f5565b9150612ae682612803565b91508190509392505050565b6000612afd826126a5565b9150612b0982846125f5565b915081905092915050565b6000612b1f82612754565b9150612b2b82846125f5565b915081905092915050565b6000612b41826127bd565b9150612b4d82846125f5565b915081905092915050565b6000612b6382612984565b9150612b6f82856125f5565b9150612b7a826128b2565b9150612b8682846125f5565b9150612b91826128d5565b91508190509392505050565b6000612ba8826129ca565b9150612bb482846125f5565b915081905092915050565b6000612bca826129ed565b9150612bd682846125f5565b915081905092915050565b6000612bec82612a56565b9150612bf882866125f5565b9150612c0382612a33565b9150612c0f82856125f5565b9150612c1a82612a33565b9150612c2682846125f5565b9150612c31826126eb565b9150819050949350505050565b6000602082019050612c536000830184612565565b92915050565b6000608082019050612c6e6000830187612565565b612c7b6020830186612565565b612c886040830185612a79565b8181036060830152612c9a8184612583565b905095945050505050565b6000604082019050612cba6000830185612565565b612cc76020830184612a79565b9392505050565b6000602082019050612ce36000830184612574565b92915050565b60006020820190508181036000830152612d0381846125bc565b905092915050565b60006060820190508181036000830152612d2581866125bc565b9050612d346020830185612a79565b612d416040830184612565565b949350505050565b60006020820190508181036000830152612d62816126c8565b9050919050565b60006020820190508181036000830152612d828161270e565b9050919050565b60006020820190508181036000830152612da281612731565b9050919050565b60006020820190508181036000830152612dc281612777565b9050919050565b60006020820190508181036000830152612de28161279a565b9050919050565b60006020820190508181036000830152612e02816127e0565b9050919050565b60006020820190508181036000830152612e2281612826565b9050919050565b60006020820190508181036000830152612e4281612849565b9050919050565b60006020820190508181036000830152612e628161286c565b9050919050565b60006020820190508181036000830152612e828161288f565b9050919050565b60006020820190508181036000830152612ea2816128f8565b9050919050565b60006020820190508181036000830152612ec28161291b565b9050919050565b60006020820190508181036000830152612ee28161293e565b9050919050565b60006020820190508181036000830152612f0281612961565b9050919050565b60006020820190508181036000830152612f22816129a7565b9050919050565b60006020820190508181036000830152612f4281612a10565b9050919050565b6000602082019050612f5e6000830184612a79565b92915050565b6000612f6e612f7f565b9050612f7a828261320f565b919050565b6000604051905090565b600067ffffffffffffffff821115612fa457612fa3613347565b5b612fad82613376565b9050602081019050919050565b60008190508160005260206000209050919050565b600081519050919050565b600081519050919050565b600082825260208201905092915050565b600082825260208201905092915050565b600081905092915050565b600061301d82613191565b915061302883613191565b9250827fffffffffffffffffffffffffffffffffffffffffffffffffffffffffffffffff0382111561305d5761305c6132ba565b5b828201905092915050565b600061307382613191565b915061307e83613191565b92508261308e5761308d6132e9565b5b828204905092915050565b60006130a482613191565b91506130af83613191565b9250817fffffffffffffffffffffffffffffffffffffffffffffffffffffffffffffffff04831182151516156130e8576130e76132ba565b5b828202905092915050565b60006130fe82613191565b915061310983613191565b92508282101561311c5761311b6132ba565b5b828203905092915050565b600061313282613171565b9050919050565b60008115159050919050565b60007fffffffff0000000000000000000000000000000000000000000000000000000082169050919050565b600073ffffffffffffffffffffffffffffffffffffffff82169050919050565b6000819050919050565b82818337600083830152505050565b60005b838110156131c85780820151818401526020810190506131ad565b838111156131d7576000848401525b50505050565b600060028204905060018216806131f557607f821691505b6020821081141561320957613208613318565b5b50919050565b61321882613376565b810181811067ffffffffffffffff8211171561323757613236613347565b5b80604052505050565b600061324b82613191565b91507fffffffffffffffffffffffffffffffffffffffffffffffffffffffffffffffff82141561327e5761327d6132ba565b5b600182019050919050565b600061329482613191565b915061329f83613191565b9250826132af576132ae6132e9565b5b828206905092915050565b7f4e487b7100000000000000000000000000000000000000000000000000000000600052601160045260246000fd5b7f4e487b7100000000000000000000000000000000000000000000000000000000600052601260045260246000fd5b7f4e487b7100000000000000000000000000000000000000000000000000000000600052602260045260246000fd5b7f4e487b7100000000000000000000000000000000000000000000000000000000600052604160045260246000fd5b6000601f19601f8301169050919050565b7f68747470733a2f2f6e6674707265766965772e30786465762e636f6465732f3f60008201527f636f64653d000000000000000000000000000000000000000000000000000000602082015250565b7f4552433732313a207472616e7366657220746f206e6f6e20455243373231526560008201527f63656976657220696d706c656d656e7465720000000000000000000000000000602082015250565b7ff09f8da300000000000000000000000000000000000000000000000000000000600082015250565b7f4552433732313a207472616e736665722066726f6d20696e636f72726563742060008201527f6f776e6572000000000000000000000000000000000000000000000000000000602082015250565b7f4552433732313a20746f6b656e20616c7265616479206d696e74656400000000600082015250565b7f54484952445f574f524400000000000000000000000000000000000000000000600082015250565b7f4552433732313a207472616e7366657220746f20746865207a65726f2061646460008201527f7265737300000000000000000000000000000000000000000000000000000000602082015250565b7f4552433732313a20617070726f766520746f2063616c6c657200000000000000600082015250565b7f5345434f4e445f574f5244000000000000000000000000000000000000000000600082015250565b7f4552433732313a206f70657261746f7220717565727920666f72206e6f6e657860008201527f697374656e7420746f6b656e0000000000000000000000000000000000000000602082015250565b7f3c2f746578743e3c2f7376673e00000000000000000000000000000000000000600082015250565b7f4552433732313a20617070726f76652063616c6c6572206973206e6f74206f7760008201527f6e6572206e6f7220617070726f76656420666f7220616c6c0000000000000000602082015250565b7f4552433732313a2062616c616e636520717565727920666f7220746865207a6560008201527f726f206164647265737300000000000000000000000000000000000000000000602082015250565b7f4552433732313a206f776e657220717565727920666f72206e6f6e657869737460008201527f656e7420746f6b656e0000000000000000000000000000000000000000000000602082015250565b7f45524337323155524953746f726167653a2055524920736574206f66206e6f6e60008201527f6578697374656e7420746f6b656e000000000000000000000000000000000000602082015250565b7f222c20226465736372697074696f6e223a20224120686967686c79206163636c60008201527f61696d6564204e465420636f6c6c656374696f6e2066726f6d20456c6563747260208201527f69632053686565702e222c2022696d616765223a2022646174613a696d61676560408201527f2f7376672b786d6c3b6261736536342c00000000000000000000000000000000606082015250565b7f227d000000000000000000000000000000000000000000000000000000000000600082015250565b7f4552433732313a206d696e7420746f20746865207a65726f2061646472657373600082015250565b7f45524337323155524953746f726167653a2055524920717565727920666f722060008201527f6e6f6e6578697374656e7420746f6b656e000000000000000000000000000000602082015250565b7f4552433732313a20617070726f76656420717565727920666f72206e6f6e657860008201527f697374656e7420746f6b656e0000000000000000000000000000000000000000602082015250565b7f4552433732314d657461646174613a2055524920717565727920666f72206e6f60008201527f6e6578697374656e7420746f6b656e0000000000000000000000000000000000602082015250565b7f7b226e616d65223a202200000000000000000000000000000000000000000000600082015250565b7f4552433732313a20617070726f76616c20746f2063757272656e74206f776e6560008201527f7200000000000000000000000000000000000000000000000000000000000000602082015250565b7f46495253545f574f524400000000000000000000000000000000000000000000600082015250565b7f646174613a6170706c69636174696f6e2f6a736f6e3b6261736536342c000000600082015250565b7f4552433732313a207472616e736665722063616c6c6572206973206e6f74206f60008201527f776e6572206e6f7220617070726f766564000000000000000000000000000000602082015250565b7f5f00000000000000000000000000000000000000000000000000000000000000600082015250565b7ff09f8c9f00000000000000000000000000000000000000000000000000000000600082015250565b613a9281613127565b8114613a9d57600080fd5b50565b613aa981613139565b8114613ab457600080fd5b50565b613ac081613145565b8114613acb57600080fd5b50565b613ad781613191565b8114613ae257600080fd5b5056fe416e204e465420772f20494420257320686173206265656e206d696e74656420746f2025734142434445464748494a4b4c4d4e4f505152535455565758595a6162636465666768696a6b6c6d6e6f707172737475767778797a303132333435363738392b2fa2646970667358221220dfb3cfe8ad3448283a9abdc2e81d545f567b25a2ea61e30aa66a136b46ed321c64736f6c634300080400333c73766720786d6c6e733d27687474703a2f2f7777772e77332e6f72672f323030302f73766727207072657365727665417370656374526174696f3d27784d696e594d696e206d656574272076696577426f783d273020302033353020333530273e3c7374796c653e2e62617365207b2066696c6c3a2077686974653b20666f6e742d66616d696c793a2073657269663b20666f6e742d73697a653a20313870783b207d3c2f7374796c653e3c726563742077696474683d273130302527206865696768743d2731303025272066696c6c3d27626c61636b27202f3e3c7465787420783d273530252720793d273930252720636c6173733d27626173652720646f6d696e616e742d626173656c696e653d276d6964646c652720746578742d616e63686f723d276d6964646c65273e",
  "linkReferences": {},
  "deployedLinkReferences": {}
}