{
  "_format": "hh-sol-artifact-1",
  "contractName": "sushiNFT",
  "sourceName": "contracts/sushiNFT.sol",
  "abi": [
    {
      "inputs": [],
      "stateMutability": "nonpayable",
      "type": "constructor"
    },
    {
      "anonymous": false,
      "inputs": [
        {
          "indexed": true,
          "internalType": "address",
          "name": "owner",
          "type": "address"
        },
        {
          "indexed": true,
          "internalType": "address",
          "name": "approved",
          "type": "address"
        },
        {
          "indexed": true,
          "internalType": "uint256",
          "name": "tokenId",
          "type": "uint256"
        }
      ],
      "name": "Approval",
      "type": "event"
    },
    {
      "anonymous": false,
      "inputs": [
        {
          "indexed": true,
          "internalType": "address",
          "name": "owner",
          "type": "address"
        },
        {
          "indexed": true,
          "internalType": "address",
          "name": "operator",
          "type": "address"
        },
        {
          "indexed": false,
          "internalType": "bool",
          "name": "approved",
          "type": "bool"
        }
      ],
      "name": "ApprovalForAll",
      "type": "event"
    },
    {
      "anonymous": false,
      "inputs": [
        {
          "indexed": false,
          "internalType": "address",
          "name": "sender",
          "type": "address"
        },
        {
          "indexed": false,
          "internalType": "uint256",
          "name": "tokenId",
          "type": "uint256"
        },
        {
          "indexed": false,
          "internalType": "uint256",
          "name": "numberOfNFTs",
          "type": "uint256"
        }
      ],
      "name": "NewSushiNFTMinted",
      "type": "event"
    },
    {
      "anonymous": false,
      "inputs": [
        {
          "indexed": true,
          "internalType": "address",
          "name": "from",
          "type": "address"
        },
        {
          "indexed": true,
          "internalType": "address",
          "name": "to",
          "type": "address"
        },
        {
          "indexed": true,
          "internalType": "uint256",
          "name": "tokenId",
          "type": "uint256"
        }
      ],
      "name": "Transfer",
      "type": "event"
    },
    {
      "inputs": [
        {
          "internalType": "address",
          "name": "to",
          "type": "address"
        },
        {
          "internalType": "uint256",
          "name": "tokenId",
          "type": "uint256"
        }
      ],
      "name": "approve",
      "outputs": [],
      "stateMutability": "nonpayable",
      "type": "function"
    },
    {
      "inputs": [
        {
          "internalType": "address",
          "name": "owner",
          "type": "address"
        }
      ],
      "name": "balanceOf",
      "outputs": [
        {
          "internalType": "uint256",
          "name": "",
          "type": "uint256"
        }
      ],
      "stateMutability": "view",
      "type": "function"
    },
    {
      "inputs": [
        {
          "internalType": "uint256",
          "name": "tokenId",
          "type": "uint256"
        }
      ],
      "name": "getApproved",
      "outputs": [
        {
          "internalType": "address",
          "name": "",
          "type": "address"
        }
      ],
      "stateMutability": "view",
      "type": "function"
    },
    {
      "inputs": [],
      "name": "howManyNFTs",
      "outputs": [
        {
          "internalType": "uint256",
          "name": "",
          "type": "uint256"
        }
      ],
      "stateMutability": "view",
      "type": "function"
    },
    {
      "inputs": [
        {
          "internalType": "address",
          "name": "owner",
          "type": "address"
        },
        {
          "internalType": "address",
          "name": "operator",
          "type": "address"
        }
      ],
      "name": "isApprovedForAll",
      "outputs": [
        {
          "internalType": "bool",
          "name": "",
          "type": "bool"
        }
      ],
      "stateMutability": "view",
      "type": "function"
    },
    {
      "inputs": [],
      "name": "makeAnEpicNFT",
      "outputs": [],
      "stateMutability": "nonpayable",
      "type": "function"
    },
    {
      "inputs": [],
      "name": "name",
      "outputs": [
        {
          "internalType": "string",
          "name": "",
          "type": "string"
        }
      ],
      "stateMutability": "view",
      "type": "function"
    },
    {
      "inputs": [
        {
          "internalType": "uint256",
          "name": "tokenId",
          "type": "uint256"
        }
      ],
      "name": "ownerOf",
      "outputs": [
        {
          "internalType": "address",
          "name": "",
          "type": "address"
        }
      ],
      "stateMutability": "view",
      "type": "function"
    },
    {
      "inputs": [
        {
          "internalType": "address",
          "name": "from",
          "type": "address"
        },
        {
          "internalType": "address",
          "name": "to",
          "type": "address"
        },
        {
          "internalType": "uint256",
          "name": "tokenId",
          "type": "uint256"
        }
      ],
      "name": "safeTransferFrom",
      "outputs": [],
      "stateMutability": "nonpayable",
      "type": "function"
    },
    {
      "inputs": [
        {
          "internalType": "address",
          "name": "from",
          "type": "address"
        },
        {
          "internalType": "address",
          "name": "to",
          "type": "address"
        },
        {
          "internalType": "uint256",
          "name": "tokenId",
          "type": "uint256"
        },
        {
          "internalType": "bytes",
          "name": "_data",
          "type": "bytes"
        }
      ],
      "name": "safeTransferFrom",
      "outputs": [],
      "stateMutability": "nonpayable",
      "type": "function"
    },
    {
      "inputs": [
        {
          "internalType": "address",
          "name": "operator",
          "type": "address"
        },
        {
          "internalType": "bool",
          "name": "approved",
          "type": "bool"
        }
      ],
      "name": "setApprovalForAll",
      "outputs": [],
      "stateMutability": "nonpayable",
      "type": "function"
    },
    {
      "inputs": [
        {
          "internalType": "bytes4",
          "name": "interfaceId",
          "type": "bytes4"
        }
      ],
      "name": "supportsInterface",
      "outputs": [
        {
          "internalType": "bool",
          "name": "",
          "type": "bool"
        }
      ],
      "stateMutability": "view",
      "type": "function"
    },
    {
      "inputs": [],
      "name": "symbol",
      "outputs": [
        {
          "internalType": "string",
          "name": "",
          "type": "string"
        }
      ],
      "stateMutability": "view",
      "type": "function"
    },
    {
      "inputs": [
        {
          "internalType": "uint256",
          "name": "tokenId",
          "type": "uint256"
        }
      ],
      "name": "tokenURI",
      "outputs": [
        {
          "internalType": "string",
          "name": "",
          "type": "string"
        }
      ],
      "stateMutability": "view",
      "type": "function"
    },
    {
      "inputs": [
        {
          "internalType": "address",
          "name": "from",
          "type": "address"
        },
        {
          "internalType": "address",
          "name": "to",
          "type": "address"
        },
        {
          "internalType": "uint256",
          "name": "tokenId",
          "type": "uint256"
        }
      ],
      "name": "transferFrom",
      "outputs": [],
      "stateMutability": "nonpayable",
      "type": "function"
    }
  ],
  "bytecode": "0x6080604052604051806101800160405280610159815260200162011b0e610159913960089080519060200190620000389291906200c586565b506040518061080001604052806107c6815260200162011c676107c69139600990805190602001906200006d9291906200c586565b506040518061020001604052806040518060400160405280600981526020017f44656c6963696f7573000000000000000000000000000000000000000000000081525081526020016040518060400160405280600a81526020017f4170706574697a696e670000000000000000000000000000000000000000000081525081526020016040518060400160405280600a81526020017f44656c65637461626c650000000000000000000000000000000000000000000081525081526020016040518060400160405280600a81526020017f44656c6967687466756c0000000000000000000000000000000000000000000081525081526020016040518060400160405280600881526020017f456e746963696e6700000000000000000000000000000000000000000000000081525081526020016040518060400160405280600981526020017f457871756973697465000000000000000000000000000000000000000000000081525081526020016040518060400160405280600881526020017f48656176656e6c7900000000000000000000000000000000000000000000000081525081526020016040518060400160405280600881526020017f4c757363696f757300000000000000000000000000000000000000000000000081525081526020016040518060400160405280600881526020017f506c656173616e7400000000000000000000000000000000000000000000000081525081526020016040518060400160405280600481526020017f526963680000000000000000000000000000000000000000000000000000000081525081526020016040518060400160405280600681526020017f5361766f7279000000000000000000000000000000000000000000000000000081525081526020016040518060400160405280600581526020017f537069637900000000000000000000000000000000000000000000000000000081525081526020016040518060400160405280600581526020017f537765657400000000000000000000000000000000000000000000000000000081525081526020016040518060400160405280600581526020017f546173747900000000000000000000000000000000000000000000000000000081525081526020016040518060400160405280600881526020017f54656d7074696e6700000000000000000000000000000000000000000000000081525081526020016040518060400160405280600581526020017f59756d6d79000000000000000000000000000000000000000000000000000000815250815250600a9060106200043a9291906200c617565b50604051806103c001604052806040518060400160405280600381526020017f416869000000000000000000000000000000000000000000000000000000000081525081526020016040518060400160405280600381526020017f416a69000000000000000000000000000000000000000000000000000000000081525081526020016040518060400160405280600681526020017f416d61656269000000000000000000000000000000000000000000000000000081525081526020016040518060400160405280600581526020017f416e61676f00000000000000000000000000000000000000000000000000000081525081526020016040518060400160405280600681526020017f416f79616769000000000000000000000000000000000000000000000000000081525081526020016040518060400160405280600681526020017f42696e63686f000000000000000000000000000000000000000000000000000081525081526020016040518060400160405280600681526020017f4b617473756f000000000000000000000000000000000000000000000000000081525081526020016040518060400160405280600381526020017f456269000000000000000000000000000000000000000000000000000000000081525081526020016040518060400160405280600781526020017f48616d616368690000000000000000000000000000000000000000000000000081525081526020016040518060400160405280600c81526020017f48616d6163686920546f726f000000000000000000000000000000000000000081525081526020016040518060400160405280600681526020017f486972616d65000000000000000000000000000000000000000000000000000081525081526020016040518060400160405280600781526020017f486f6b696761690000000000000000000000000000000000000000000000000081525081526020016040518060400160405280600681526020017f486f74617465000000000000000000000000000000000000000000000000000081525081526020016040518060400160405280600381526020017f496b61000000000000000000000000000000000000000000000000000000000081525081526020016040518060400160405280600581526020017f496b75726100000000000000000000000000000000000000000000000000000081525081526020016040518060400160405280600681526020017f497761736869000000000000000000000000000000000000000000000000000081525081526020016040518060400160405280600481526020017f4b616e690000000000000000000000000000000000000000000000000000000081525081526020016040518060400160405280600881526020017f4b616e706163686900000000000000000000000000000000000000000000000081525081526020016040518060400160405280600681526020017f4d616775726f000000000000000000000000000000000000000000000000000081525081526020016040518060400160405280600481526020017f536162610000000000000000000000000000000000000000000000000000000081525081526020016040518060400160405280600481526020017f53616b650000000000000000000000000000000000000000000000000000000081525081526020016040518060400160405280600981526020017f53616b6520546f726f000000000000000000000000000000000000000000000081525081526020016040518060400160405280600381526020017f546169000000000000000000000000000000000000000000000000000000000081525081526020016040518060400160405280600481526020017f54616b6f0000000000000000000000000000000000000000000000000000000081525081526020016040518060400160405280600681526020017f54616d61676f000000000000000000000000000000000000000000000000000081525081526020016040518060400160405280600481526020017f546f726f0000000000000000000000000000000000000000000000000000000081525081526020016040518060400160405280600881526020017f547375627567616900000000000000000000000000000000000000000000000081525081526020016040518060400160405280600881526020017f556d69204d61737500000000000000000000000000000000000000000000000081525081526020016040518060400160405280600581526020017f556e61676900000000000000000000000000000000000000000000000000000081525081526020016040518060400160405280600381526020017f556e690000000000000000000000000000000000000000000000000000000000815250815250600b90601e62000b419291906200c67e565b506040518061016001604052806040518060400160405280600a81526020017f4d616b692053757368690000000000000000000000000000000000000000000081525081526020016040518060400160405280600b81526020017f47756e6b616e204d616b6900000000000000000000000000000000000000000081525081526020016040518060400160405280600681526020017f54656d616b69000000000000000000000000000000000000000000000000000081525081526020016040518060400160405280600a81526020017f4e6172652053757368690000000000000000000000000000000000000000000081525081526020016040518060400160405280600681526020017f4e6967697269000000000000000000000000000000000000000000000000000081525081526020016040518060400160405280600a81526020017f4f7368692053757368690000000000000000000000000000000000000000000081525081526020016040518060400160405280600a81526020017f536173612053757368690000000000000000000000000000000000000000000081525081526020016040518060400160405280600e81526020017f4b616b696e6f686120537573686900000000000000000000000000000000000081525081526020016040518060400160405280600681526020017f54656d617269000000000000000000000000000000000000000000000000000081525081526020016040518060400160405280600e81526020017f436869726173686920537573686900000000000000000000000000000000000081525081526020016040518060400160405280600b81526020017f496e617269205375736869000000000000000000000000000000000000000000815250815250600c90600b62000de79291906200c6e5565b50604051806104c001604052806040518060400160405280600681526020017f73756d6d6572000000000000000000000000000000000000000000000000000081525081526020016040518060400160405280600681526020017f617574756d6e000000000000000000000000000000000000000000000000000081525081526020016040518060400160405280600681526020017f77696e746572000000000000000000000000000000000000000000000000000081525081526020016040518060400160405280600481526020017f6461776e0000000000000000000000000000000000000000000000000000000081525081526020016040518060400160405280600681526020017f73756e736574000000000000000000000000000000000000000000000000000081525081526020016040518060400160405280600881526020017f6461796c6967687400000000000000000000000000000000000000000000000081525081526020016040518060400160405280600781526020017f73756e726973650000000000000000000000000000000000000000000000000081525081526020016040518060400160405280600481526020017f6e6f6f6e0000000000000000000000000000000000000000000000000000000081525081526020016040518060400160405280600881526020017f6d69646e6967687400000000000000000000000000000000000000000000000081525081526020016040518060400160405280600881526020017f7477696c6967687400000000000000000000000000000000000000000000000081525081526020016040518060400160405280600681526020017f737072696e67000000000000000000000000000000000000000000000000000081525081526020016040518060400160405280600981526020017f4368726973746d6173000000000000000000000000000000000000000000000081525081526020016040518060400160405280600681526020017f456173746572000000000000000000000000000000000000000000000000000081525081526020016040518060400160405280600781526020017f6d6f726e696e670000000000000000000000000000000000000000000000000081525081526020016040518060400160405280600981526020017f61667465726e6f6f6e000000000000000000000000000000000000000000000081525081526020016040518060400160405280600781526020017f6576656e696e670000000000000000000000000000000000000000000000000081525081526020016040518060400160405280600581526020017f626561636800000000000000000000000000000000000000000000000000000081525081526020016040518060400160405280600681526020017f666f72657374000000000000000000000000000000000000000000000000000081525081526020016040518060400160405280600881526020017f6d6f756e7461696e00000000000000000000000000000000000000000000000081525081526020016040518060400160405280600481526020017f636974790000000000000000000000000000000000000000000000000000000081525081526020016040518060400160405280600c81526020017f6e65696768626f72686f6f64000000000000000000000000000000000000000081525081526020016040518060400160405280600581526020017f636c69666600000000000000000000000000000000000000000000000000000081525081526020016040518060400160405280600981526020017f636f6d6d756e697479000000000000000000000000000000000000000000000081525081526020016040518060400160405280600881526020017f6661726d6c616e6400000000000000000000000000000000000000000000000081525081526020016040518060400160405280600581526020017f6669656c6400000000000000000000000000000000000000000000000000000081525081526020016040518060400160405280600881526020017f76696e657961726400000000000000000000000000000000000000000000000081525081526020016040518060400160405280600581526020017f636f61737400000000000000000000000000000000000000000000000000000081525081526020016040518060400160405280600681526020017f67616c617879000000000000000000000000000000000000000000000000000081525081526020016040518060400160405280600681526020017f63616e796f6e000000000000000000000000000000000000000000000000000081525081526020016040518060400160405280600381526020017f626179000000000000000000000000000000000000000000000000000000000081525081526020016040518060400160405280600681526020017f6a756e676c65000000000000000000000000000000000000000000000000000081525081526020016040518060400160405280600681526020017f6d6561646f77000000000000000000000000000000000000000000000000000081525081526020016040518060400160405280600681526020017f636c6f756473000000000000000000000000000000000000000000000000000081525081526020016040518060400160405280600581526020017f737461727300000000000000000000000000000000000000000000000000000081525081526020016040518060400160405280600881526020017f706172616469736500000000000000000000000000000000000000000000000081525081526020016040518060400160405280600881526020017f68696c6c7369646500000000000000000000000000000000000000000000000081525081526020016040518060400160405280600581526020017f64756e657300000000000000000000000000000000000000000000000000000081525081526020016040518060400160405280600681526020017f6465736572740000000000000000000000000000000000000000000000000000815250815250600d906026620016c69291906200c74c565b5060405180611a6001604052806040518060400160405280600481526020017f70696e6b0000000000000000000000000000000000000000000000000000000081525081526020016040518060400160405280600581526020017f7363616c7900000000000000000000000000000000000000000000000000000081525081526020016040518060400160405280600681526020017f637265657079000000000000000000000000000000000000000000000000000081525081526020016040518060400160405280600a81526020017f626577696c64657265640000000000000000000000000000000000000000000081525081526020016040518060400160405280600881526020017f636861726d696e6700000000000000000000000000000000000000000000000081525081526020016040518060400160405280600881526020017f696e6e6f63656e7400000000000000000000000000000000000000000000000081525081526020016040518060400160405280600a81526020017f667269676874656e65640000000000000000000000000000000000000000000081525081526020016040518060400160405280600781526020017f6672616e7469630000000000000000000000000000000000000000000000000081525081526020016040518060400160405280600981526020017f657875626572616e74000000000000000000000000000000000000000000000081525081526020016040518060400160405280600681526020017f656c61746564000000000000000000000000000000000000000000000000000081525081526020016040518060400160405280600781526020017f756e757375616c0000000000000000000000000000000000000000000000000081525081526020016040518060400160405280600c81526020017f756e696e7465726573746564000000000000000000000000000000000000000081525081526020016040518060400160405280600681526020017f7769636b6564000000000000000000000000000000000000000000000000000081525081526020016040518060400160405280600781526020017f6e6175676874790000000000000000000000000000000000000000000000000081525081526020016040518060400160405280600681526020017f6c6f6e656c79000000000000000000000000000000000000000000000000000081525081526020016040518060400160405280600981526020017f636f6d626174697665000000000000000000000000000000000000000000000081525081526020016040518060400160405280600981526020017f646570726573736564000000000000000000000000000000000000000000000081525081526020016040518060400160405280600581526020017f637275656c00000000000000000000000000000000000000000000000000000081525081526020016040518060400160405280600581526020017f667261696c00000000000000000000000000000000000000000000000000000081525081526020016040518060400160405280600781526020017f6a6974746572790000000000000000000000000000000000000000000000000081525081526020016040518060400160405280600481526020017f6c617a790000000000000000000000000000000000000000000000000000000081525081526020016040518060400160405280600581526020017f70726f756400000000000000000000000000000000000000000000000000000081525081526020016040518060400160405280600781526020017f737472616e67650000000000000000000000000000000000000000000000000081525081526020016040518060400160405280600481526020017f74616d650000000000000000000000000000000000000000000000000000000081525081526020016040518060400160405280600481526020017f77696c640000000000000000000000000000000000000000000000000000000081525081526020016040518060400160405280600981526020017f756e73696768746c79000000000000000000000000000000000000000000000081525081526020016040518060400160405280600681526020017f666965726365000000000000000000000000000000000000000000000000000081525081526020016040518060400160405280600481526020017f627573790000000000000000000000000000000000000000000000000000000081525081526020016040518060400160405280600981526020017f666561746865726564000000000000000000000000000000000000000000000081525081526020016040518060400160405280600681526020017f68756d706564000000000000000000000000000000000000000000000000000081525081526020016040518060400160405280600581526020017f667572727900000000000000000000000000000000000000000000000000000081525081526020016040518060400160405280600481526020017f666173740000000000000000000000000000000000000000000000000000000081525081526020016040518060400160405280600881526020017f636c75636b696e6700000000000000000000000000000000000000000000000081525081526020016040518060400160405280600681526020017f6372617a6564000000000000000000000000000000000000000000000000000081525081526020016040518060400160405280600581526020017f686561767900000000000000000000000000000000000000000000000000000081525081526020016040518060400160405280600481526020017f6576696c0000000000000000000000000000000000000000000000000000000081525081526020016040518060400160405280600481526020017f63616c6d0000000000000000000000000000000000000000000000000000000081525081526020016040518060400160405280600981526020017f656e65726765746963000000000000000000000000000000000000000000000081525081526020016040518060400160405280600681526020017f736d6f6f7468000000000000000000000000000000000000000000000000000081525081526020016040518060400160405280600581526020017f736d616c6c00000000000000000000000000000000000000000000000000000081525081526020016040518060400160405280600881526020017f6d656e6163696e6700000000000000000000000000000000000000000000000081525081526020016040518060400160405280600581526020017f686561767900000000000000000000000000000000000000000000000000000081525081526020016040518060400160405280600a81526020017f73747265616d6c696e650000000000000000000000000000000000000000000081525081526020016040518060400160405280600781526020017f63756e6e696e670000000000000000000000000000000000000000000000000081525081526020016040518060400160405280600581526020017f677265656e00000000000000000000000000000000000000000000000000000081525081526020016040518060400160405280600681526020017f79656c6c6f77000000000000000000000000000000000000000000000000000081525081526020016040518060400160405280600481526020017f74616c6c0000000000000000000000000000000000000000000000000000000081525081526020016040518060400160405280600481526020017f676f6c640000000000000000000000000000000000000000000000000000000081525081526020016040518060400160405280600481526020017f677265790000000000000000000000000000000000000000000000000000000081525081526020016040518060400160405280600481526020017f70696e6b0000000000000000000000000000000000000000000000000000000081525081526020016040518060400160405280600581526020017f6772616e6400000000000000000000000000000000000000000000000000000081525081526020016040518060400160405280600781526020017f737072696e67790000000000000000000000000000000000000000000000000081525081526020016040518060400160405280600481526020017f637574650000000000000000000000000000000000000000000000000000000081525081526020016040518060400160405280600581526020017f736361727900000000000000000000000000000000000000000000000000000081525081526020016040518060400160405280600581526020017f736861727000000000000000000000000000000000000000000000000000000081525081526020016040518060400160405280600b81526020017f687970657261637469766500000000000000000000000000000000000000000081525081526020016040518060400160405280600b81526020017f696e74656c6c6967656e7400000000000000000000000000000000000000000081525081526020016040518060400160405280600981526020017f6e6f637475726e616c000000000000000000000000000000000000000000000081525081526020016040518060400160405280600581526020017f73696c6c7900000000000000000000000000000000000000000000000000000081525081526020016040518060400160405280600881526020017f726f6d616e74696300000000000000000000000000000000000000000000000081525081526020016040518060400160405280600981526020017f696d70617469656e74000000000000000000000000000000000000000000000081525081526020016040518060400160405280600381526020017f626967000000000000000000000000000000000000000000000000000000000081525081526020016040518060400160405280600581526020017f66756e6e7900000000000000000000000000000000000000000000000000000081525081526020016040518060400160405280600481526020017f74696e790000000000000000000000000000000000000000000000000000000081525081526020016040518060400160405280600781526020017f616d617a696e670000000000000000000000000000000000000000000000000081525081526020016040518060400160405280600481526020017f736c696d0000000000000000000000000000000000000000000000000000000081525081526020016040518060400160405280600481526020017f6b696e640000000000000000000000000000000000000000000000000000000081525081526020016040518060400160405280600881526020017f67656e65726f757300000000000000000000000000000000000000000000000081525081526020016040518060400160405280600581526020017f686170707900000000000000000000000000000000000000000000000000000081525081526020016040518060400160405280600581526020017f6a6f6c6c7900000000000000000000000000000000000000000000000000000081525081526020016040518060400160405280600581526020017f706c756d7000000000000000000000000000000000000000000000000000000081525081526020016040518060400160405280600681526020017f6772756d7079000000000000000000000000000000000000000000000000000081525081526020016040518060400160405280600781526020017f7370656369616c0000000000000000000000000000000000000000000000000081525081526020016040518060400160405280600881526020017f706f77657266756c00000000000000000000000000000000000000000000000081525081526020016040518060400160405280600481526020017f7765616b0000000000000000000000000000000000000000000000000000000081525081526020016040518060400160405280600681526020017f6d6967687479000000000000000000000000000000000000000000000000000081525081526020016040518060400160405280600381526020017f66756e000000000000000000000000000000000000000000000000000000000081525081526020016040518060400160405280600881526020017f61646f7261626c6500000000000000000000000000000000000000000000000081525081526020016040518060400160405280600781526020017f6461726c696e670000000000000000000000000000000000000000000000000081525081526020016040518060400160405280600681526020017f636172696e67000000000000000000000000000000000000000000000000000081525081526020016040518060400160405280600581526020017f66756e6e7900000000000000000000000000000000000000000000000000000081525081526020016040518060400160405280600581526020017f6d6572727900000000000000000000000000000000000000000000000000000081525081526020016040518060400160405280600981526020017f656d6f74696f6e616c000000000000000000000000000000000000000000000081525081526020016040518060400160405280600581526020017f73696c6c7900000000000000000000000000000000000000000000000000000081525081526020016040518060400160405280600981526020017f68696c6172696f7573000000000000000000000000000000000000000000000081525081526020016040518060400160405280600981526020017f6c6f617468736f6d65000000000000000000000000000000000000000000000081525081526020016040518060400160405280600581526020017f6769616e7400000000000000000000000000000000000000000000000000000081525081526020016040518060400160405280600881526020017f7468756e6465727900000000000000000000000000000000000000000000000081525081526020016040518060400160405280600581526020017f676f6f667900000000000000000000000000000000000000000000000000000081525081526020016040518060400160405280600481526020017f637574650000000000000000000000000000000000000000000000000000000081525081526020016040518060400160405280600781526020017f657863697465640000000000000000000000000000000000000000000000000081525081526020016040518060400160405280600581526020017f686170707900000000000000000000000000000000000000000000000000000081525081526020016040518060400160405280600981526020017f736172636173746963000000000000000000000000000000000000000000000081525081526020016040518060400160405280600581526020017f726967687400000000000000000000000000000000000000000000000000000081525081526020016040518060400160405280600781526020017f6465616470616e0000000000000000000000000000000000000000000000000081525081526020016040518060400160405280600481526020017f66696e650000000000000000000000000000000000000000000000000000000081525081526020016040518060400160405280600381526020017f6d6164000000000000000000000000000000000000000000000000000000000081525081526020016040518060400160405280600481526020017f77696c640000000000000000000000000000000000000000000000000000000081525081526020016040518060400160405280600381526020017f686f74000000000000000000000000000000000000000000000000000000000081525081526020016040518060400160405280600781526020017f616d617a696e670000000000000000000000000000000000000000000000000081525081526020016040518060400160405280600781526020017f617765736f6d650000000000000000000000000000000000000000000000000081525081526020016040518060400160405280600481526020017f6c6976650000000000000000000000000000000000000000000000000000000081525081526020016040518060400160405280600881526020017f6578636974696e6700000000000000000000000000000000000000000000000081525081526020016040518060400160405280600681526020017f627269676874000000000000000000000000000000000000000000000000000081525081526020016040518060400160405280600481526020017f6b696e640000000000000000000000000000000000000000000000000000000081525081526020016040518060400160405280600681526020017f68756e677279000000000000000000000000000000000000000000000000000081525081526020016040518060400160405280600981526020017f696d70657266656374000000000000000000000000000000000000000000000081525081526020016040518060400160405280600a81526020017f6f726e616d656e74616c0000000000000000000000000000000000000000000081525081526020016040518060400160405280600a81526020017f64656c6967687466756c0000000000000000000000000000000000000000000081525081526020016040518060400160405280600881526020017f746572726966696300000000000000000000000000000000000000000000000081525081526020016040518060400160405280600481526020017f6e6561740000000000000000000000000000000000000000000000000000000081525081526020016040518060400160405280600481526020017f6461726b0000000000000000000000000000000000000000000000000000000081525081526020016040518060400160405280600481526020017f636f6c640000000000000000000000000000000000000000000000000000000081525081526020016040518060400160405280600881526020017f667269656e646c7900000000000000000000000000000000000000000000000081525081526020016040518060400160405280600881526020017f706c656173616e7400000000000000000000000000000000000000000000000081525081526020016040518060400160405280600881526020017f676f7267656f757300000000000000000000000000000000000000000000000081525081526020016040518060400160405280600881526020017f636865657266756c00000000000000000000000000000000000000000000000081525081526020016040518060400160405280600681526020017f707265747479000000000000000000000000000000000000000000000000000081525081526020016040518060400160405280600581526020017f776569726400000000000000000000000000000000000000000000000000000081525081526020016040518060400160405280600381526020017f626967000000000000000000000000000000000000000000000000000000000081525081526020016040518060400160405280600581526020017f736d61727400000000000000000000000000000000000000000000000000000081525081526020016040518060400160405280600981526020017f656e6a6f7961626c65000000000000000000000000000000000000000000000081525081526020016040518060400160405280600681526020017f737072756365000000000000000000000000000000000000000000000000000081525081526020016040518060400160405280600581526020017f66616e637900000000000000000000000000000000000000000000000000000081525081526020016040518060400160405280600881526020017f61636164656d696300000000000000000000000000000000000000000000000081525081526020016040518060400160405280600881526020017f68616e64736f6d6500000000000000000000000000000000000000000000000081525081526020016040518060400160405280600881526020017f7465727269626c6500000000000000000000000000000000000000000000000081525081526020016040518060400160405280600781526020017f706f7461626c650000000000000000000000000000000000000000000000000081525081526020016040518060400160405280600581526020017f617766756c00000000000000000000000000000000000000000000000000000081525081526020016040518060400160405280600781526020017f706572666563740000000000000000000000000000000000000000000000000081525081526020016040518060400160405280600581526020017f6c6967687400000000000000000000000000000000000000000000000000000081525081526020016040518060400160405280600881526020017f67726163696f757300000000000000000000000000000000000000000000000081525081526020016040518060400160405280600681526020017f6c6976696e67000000000000000000000000000000000000000000000000000081525081526020016040518060400160405280600581526020017f6a6f6c6c7900000000000000000000000000000000000000000000000000000081525081526020016040518060400160405280600481526020017f6576696c0000000000000000000000000000000000000000000000000000000081525081526020016040518060400160405280600a81526020017f667265736877617465720000000000000000000000000000000000000000000081525081526020016040518060400160405280600381526020017f6f6c64000000000000000000000000000000000000000000000000000000000081525081526020016040518060400160405280600681526020017f67656e746c65000000000000000000000000000000000000000000000000000081525081526020016040518060400160405280600681526020017f6c6974746c65000000000000000000000000000000000000000000000000000081525081526020016040518060400160405280600681526020017f7374726f6e67000000000000000000000000000000000000000000000000000081525081526020016040518060400160405280600481526020017f666173740000000000000000000000000000000000000000000000000000000081525081526020016040518060400160405280600781526020017f737472616e67650000000000000000000000000000000000000000000000000081525081526020016040518060400160405280600481526020017f626c75650000000000000000000000000000000000000000000000000000000081525081526020016040518060400160405280600981526020017f657863656c6c656e74000000000000000000000000000000000000000000000081525081526020016040518060400160405280600881526020017f706c656173696e6700000000000000000000000000000000000000000000000081525081526020016040518060400160405280600481526020017f7761726d0000000000000000000000000000000000000000000000000000000081525081526020016040518060400160405280600b81526020017f656475636174696f6e616c00000000000000000000000000000000000000000081525081526020016040518060400160405280600481526020017f70616c650000000000000000000000000000000000000000000000000000000081525081526020016040518060400160405280600681526020017f646561646c79000000000000000000000000000000000000000000000000000081525081526020016040518060400160405280600981526020017f66616e746173746963000000000000000000000000000000000000000000000081525081526020016040518060400160405280600881526020017f636861726d696e6700000000000000000000000000000000000000000000000081525081526020016040518060400160405280600681526020017f6a6f7966756c000000000000000000000000000000000000000000000000000081525081526020016040518060400160405280600481526020017f6d61696e0000000000000000000000000000000000000000000000000000000081525081526020016040518060400160405280600981526020017f616772656561626c65000000000000000000000000000000000000000000000081525081526020016040518060400160405280600681526020017f6d6f7274616c000000000000000000000000000000000000000000000000000081525081526020016040518060400160405280600581526020017f686561767900000000000000000000000000000000000000000000000000000081525081526020016040518060400160405280600781526020017f636f6e74656e740000000000000000000000000000000000000000000000000081525081526020016040518060400160405280600681526020017f637265657079000000000000000000000000000000000000000000000000000081525081526020016040518060400160405280600581526020017f736861727000000000000000000000000000000000000000000000000000000081525081526020016040518060400160405280600d81526020017f696e737472756374696f6e616c0000000000000000000000000000000000000081525081526020016040518060400160405280600581526020017f717569657400000000000000000000000000000000000000000000000000000081525081526020016040518060400160405280600481526020017f61626c650000000000000000000000000000000000000000000000000000000081525081526020016040518060400160405280600481526020017f736f66740000000000000000000000000000000000000000000000000000000081525081526020016040518060400160405280600581526020017f636c65617200000000000000000000000000000000000000000000000000000081525081526020016040518060400160405280600581526020017f656d70747900000000000000000000000000000000000000000000000000000081525081526020016040518060400160405280600881526020017f74657874626f6f6b00000000000000000000000000000000000000000000000081525081526020016040518060400160405280600481526020017f646565700000000000000000000000000000000000000000000000000000000081525081526020016040518060400160405280600581526020017f646972747900000000000000000000000000000000000000000000000000000081525081526020016040518060400160405280600581526020017f696465616c00000000000000000000000000000000000000000000000000000081525081526020016040518060400160405280600a81526020017f617474726163746976650000000000000000000000000000000000000000000081525081526020016040518060400160405280600681526020017f616672616964000000000000000000000000000000000000000000000000000081525081526020016040518060400160405280600681526020017f636c65766572000000000000000000000000000000000000000000000000000081525081526020016040518060400160405280600681526020017f616374697665000000000000000000000000000000000000000000000000000081525081526020016040518060400160405280600381526020017f6f6464000000000000000000000000000000000000000000000000000000000081525081526020016040518060400160405280600a81526020017f64656d6f6372617469630000000000000000000000000000000000000000000081525081526020016040518060400160405280600681526020017f72616e646f6d000000000000000000000000000000000000000000000000000081525081526020016040518060400160405280600381526020017f686970000000000000000000000000000000000000000000000000000000000081525081526020016040518060400160405280600781526020017f616d7573696e670000000000000000000000000000000000000000000000000081525081526020016040518060400160405280600b81526020017f696e746572657374696e6700000000000000000000000000000000000000000081525081526020016040518060400160405280600781526020017f696e74656e73650000000000000000000000000000000000000000000000000081525081526020016040518060400160405280600681526020017f737570657262000000000000000000000000000000000000000000000000000081525081526020016040518060400160405280600681526020017f736563726574000000000000000000000000000000000000000000000000000081525081526020016040518060400160405280600481526020017f6b65656e0000000000000000000000000000000000000000000000000000000081525081526020016040518060400160405280600581526020017f77726f6e6700000000000000000000000000000000000000000000000000000081525081526020016040518060400160405280600581526020017f726561647900000000000000000000000000000000000000000000000000000081525081526020016040518060400160405280600581526020017f7368696e7900000000000000000000000000000000000000000000000000000081525081526020016040518060400160405280600781526020017f706c617966756c0000000000000000000000000000000000000000000000000081525081526020016040518060400160405280600581526020017f6d616a6f7200000000000000000000000000000000000000000000000000000081525081526020016040518060400160405280600481526020017f666169720000000000000000000000000000000000000000000000000000000081525081526020016040518060400160405280600781526020017f6c69626572616c0000000000000000000000000000000000000000000000000081525081526020016040518060400160405280600881526020017f676c6f72696f757300000000000000000000000000000000000000000000000081525081526020016040518060400160405280600481526020017f6c6f6e670000000000000000000000000000000000000000000000000000000081525081526020016040518060400160405280600981526020017f6e6f637475726e616c000000000000000000000000000000000000000000000081525081526020016040518060400160405280600d81526020017f636f6d70617373696f6e6174650000000000000000000000000000000000000081525081526020016040518060400160405280600581526020017f726f756e6400000000000000000000000000000000000000000000000000000081525081526020016040518060400160405280600481526020017f616369640000000000000000000000000000000000000000000000000000000081525081526020016040518060400160405280600581526020017f746561727900000000000000000000000000000000000000000000000000000081525081526020016040518060400160405280600581526020017f73756e6e7900000000000000000000000000000000000000000000000000000081525081526020016040518060400160405280600b81526020017f706c656173757261626c6500000000000000000000000000000000000000000081525081526020016040518060400160405280600781526020017f636f6d6963616c0000000000000000000000000000000000000000000000000081525081526020016040518060400160405280600681526020017f756e7265616c000000000000000000000000000000000000000000000000000081525081526020016040518060400160405280600381526020017f647279000000000000000000000000000000000000000000000000000000000081525081526020016040518060400160405280600681526020017f647265616d79000000000000000000000000000000000000000000000000000081525081526020016040518060400160405280600581526020017f736f6c696400000000000000000000000000000000000000000000000000000081525081526020016040518060400160405280600581526020017f6c79696e6700000000000000000000000000000000000000000000000000000081525081526020016040518060400160405280600481526020017f687567650000000000000000000000000000000000000000000000000000000081525081526020016040518060400160405280600a81526020017f70617373696f6e6174650000000000000000000000000000000000000000000081525081526020016040518060400160405280600581526020017f736361727900000000000000000000000000000000000000000000000000000081525081526020016040518060400160405280600481526020017f626f6c640000000000000000000000000000000000000000000000000000000081525081526020016040518060400160405280600681526020017f626f756e6379000000000000000000000000000000000000000000000000000081525081526020016040518060400160405280600681526020017f627261696e790000000000000000000000000000000000000000000000000000815250815250600e9060d3620047849291906200c7b3565b50604051806104a001604052806040518060400160405280600c81526020017f62726561746874616b696e67000000000000000000000000000000000000000081525081526020016040518060400160405280600581526020017f637269737000000000000000000000000000000000000000000000000000000081525081526020016040518060400160405280600881526020017f64617a7a6c696e6700000000000000000000000000000000000000000000000081525081526020016040518060400160405280600881526020017f657468657265616c00000000000000000000000000000000000000000000000081525081526020016040518060400160405280600881526020017f7377656570696e6700000000000000000000000000000000000000000000000081525081526020016040518060400160405280600981526020017f737061726b6c696e67000000000000000000000000000000000000000000000081525081526020016040518060400160405280600c81526020017f72656a7576656e6174696e67000000000000000000000000000000000000000081525081526020016040518060400160405280600781526020017f6964696c6c79630000000000000000000000000000000000000000000000000081525081526020016040518060400160405280600581526020017f627269736b00000000000000000000000000000000000000000000000000000081525081526020016040518060400160405280600781526020017f6275636f6c69630000000000000000000000000000000000000000000000000081525081526020016040518060400160405280600b81526020017f666c6f7572697368696e6700000000000000000000000000000000000000000081525081526020016040518060400160405280600881526020017f676c6f72696f757300000000000000000000000000000000000000000000000081525081526020016040518060400160405280600481526020017f6c7573680000000000000000000000000000000000000000000000000000000081525081526020016040518060400160405280600881526020017f7072697374696e6500000000000000000000000000000000000000000000000081525081526020016040518060400160405280600c81526020017f73756e2d6472656e63686564000000000000000000000000000000000000000081525081526020016040518060400160405280600481526020017f766173740000000000000000000000000000000000000000000000000000000081525081526020016040518060400160405280600581526020017f73756e6e7900000000000000000000000000000000000000000000000000000081525081526020016040518060400160405280600681526020017f6368696c6c79000000000000000000000000000000000000000000000000000081525081526020016040518060400160405280600381526020017f696379000000000000000000000000000000000000000000000000000000000081525081526020016040518060400160405280600781526020017f6d61676963616c0000000000000000000000000000000000000000000000000081525081526020016040518060400160405280600481526020017f636f6c640000000000000000000000000000000000000000000000000000000081525081526020016040518060400160405280600881526020017f667265657a696e6700000000000000000000000000000000000000000000000081525081526020016040518060400160405280600581526020017f77696e647900000000000000000000000000000000000000000000000000000081525081526020016040518060400160405280600581526020017f736e6f777900000000000000000000000000000000000000000000000000000081525081526020016040518060400160405280600581526020017f666f67677900000000000000000000000000000000000000000000000000000081525081526020016040518060400160405280600481526020017f64756c6c0000000000000000000000000000000000000000000000000000000081525081526020016040518060400160405280600681526020017f626974696e67000000000000000000000000000000000000000000000000000081525081526020016040518060400160405280600581526020017f7261696e7900000000000000000000000000000000000000000000000000000081525081526020016040518060400160405280600581526020017f6d6f69737400000000000000000000000000000000000000000000000000000081525081526020016040518060400160405280600481526020017f7761726d0000000000000000000000000000000000000000000000000000000081525081526020016040518060400160405280600681526020017f627269676874000000000000000000000000000000000000000000000000000081525081526020016040518060400160405280600681526020017f62616b696e67000000000000000000000000000000000000000000000000000081525081526020016040518060400160405280600481526020017f64616d700000000000000000000000000000000000000000000000000000000081525081526020016040518060400160405280600581526020017f7261696e7900000000000000000000000000000000000000000000000000000081525081526020016040518060400160405280600481526020017f6461726b0000000000000000000000000000000000000000000000000000000081525081526020016040518060400160405280600381526020017f647279000000000000000000000000000000000000000000000000000000000081525081526020016040518060400160405280600581526020017f6275736879000000000000000000000000000000000000000000000000000000815250815250600f906025620050289291906200c81a565b5060405180610ea001604052806040518060400160405280600881526020017f666c616d696e676f00000000000000000000000000000000000000000000000081525081526020016040518060400160405280600881526020017f616172647661726b00000000000000000000000000000000000000000000000081525081526020016040518060400160405280600981526020017f616c6c696761746f72000000000000000000000000000000000000000000000081525081526020016040518060400160405280600381526020017f616e74000000000000000000000000000000000000000000000000000000000081525081526020016040518060400160405280600481526020017f626561720000000000000000000000000000000000000000000000000000000081525081526020016040518060400160405280600381526020017f626565000000000000000000000000000000000000000000000000000000000081525081526020016040518060400160405280600781526020017f636869636b656e0000000000000000000000000000000000000000000000000081525081526020016040518060400160405280600381526020017f646f67000000000000000000000000000000000000000000000000000000000081525081526020016040518060400160405280600681526020017f736861646f77000000000000000000000000000000000000000000000000000081525081526020016040518060400160405280600981526020017f627574746572666c79000000000000000000000000000000000000000000000081525081526020016040518060400160405280600481526020017f626972640000000000000000000000000000000000000000000000000000000081525081526020016040518060400160405280600581526020017f63616d656c00000000000000000000000000000000000000000000000000000081525081526020016040518060400160405280600381526020017f636174000000000000000000000000000000000000000000000000000000000081525081526020016040518060400160405280600781526020017f636865657461680000000000000000000000000000000000000000000000000081525081526020016040518060400160405280600781526020017f636869636b656e0000000000000000000000000000000000000000000000000081525081526020016040518060400160405280600a81526020017f6368696d70616e7a65650000000000000000000000000000000000000000000081525081526020016040518060400160405280600381526020017f636f77000000000000000000000000000000000000000000000000000000000081525081526020016040518060400160405280600981526020017f63726f636f64696c65000000000000000000000000000000000000000000000081525081526020016040518060400160405280600481526020017f646565720000000000000000000000000000000000000000000000000000000081525081526020016040518060400160405280600381526020017f646f67000000000000000000000000000000000000000000000000000000000081525081526020016040518060400160405280600781526020017f646f6c7068696e0000000000000000000000000000000000000000000000000081525081526020016040518060400160405280600481526020017f6475636b0000000000000000000000000000000000000000000000000000000081525081526020016040518060400160405280600581526020017f6561676c6500000000000000000000000000000000000000000000000000000081525081526020016040518060400160405280600881526020017f656c657068616e7400000000000000000000000000000000000000000000000081525081526020016040518060400160405280600481526020017f666973680000000000000000000000000000000000000000000000000000000081525081526020016040518060400160405280600381526020017f666c79000000000000000000000000000000000000000000000000000000000081525081526020016040518060400160405280600381526020017f666f78000000000000000000000000000000000000000000000000000000000081525081526020016040518060400160405280600481526020017f66726f670000000000000000000000000000000000000000000000000000000081525081526020016040518060400160405280600781526020017f676972616666650000000000000000000000000000000000000000000000000081525081526020016040518060400160405280600781526020017f676f72696c6c610000000000000000000000000000000000000000000000000081525081526020016040518060400160405280600481526020017f676f61740000000000000000000000000000000000000000000000000000000081525081526020016040518060400160405280600881526020017f676f6c646669736800000000000000000000000000000000000000000000000081525081526020016040518060400160405280600681526020017f696775616e61000000000000000000000000000000000000000000000000000081525081526020016040518060400160405280600681526020017f6a6167756172000000000000000000000000000000000000000000000000000081525081526020016040518060400160405280600881526020017f6b616e6761726f6f00000000000000000000000000000000000000000000000081525081526020016040518060400160405280600681526020017f6b697474656e000000000000000000000000000000000000000000000000000081525081526020016040518060400160405280600481526020017f6c696f6e0000000000000000000000000000000000000000000000000000000081525081526020016040518060400160405280600781526020017f6c6f62737465720000000000000000000000000000000000000000000000000081525081526020016040518060400160405280600681526020017f6d6f6e6b6579000000000000000000000000000000000000000000000000000081525081526020016040518060400160405280600781526020017f6f63746f7075730000000000000000000000000000000000000000000000000081525081526020016040518060400160405280600381526020017f6f776c000000000000000000000000000000000000000000000000000000000081525081526020016040518060400160405280600581526020017f70616e646100000000000000000000000000000000000000000000000000000081525081526020016040518060400160405280600381526020017f706967000000000000000000000000000000000000000000000000000000000081525081526020016040518060400160405280600581526020017f707570707900000000000000000000000000000000000000000000000000000081525081526020016040518060400160405280600881526020017f70616e676f6c696e00000000000000000000000000000000000000000000000081525081526020016040518060400160405280600681526020017f726162626974000000000000000000000000000000000000000000000000000081525081526020016040518060400160405280600381526020017f726174000000000000000000000000000000000000000000000000000000000081525081526020016040518060400160405280600a81526020017f7268696e6f6365726f730000000000000000000000000000000000000000000081525081526020016040518060400160405280600881526020017f73636f7270696f6e00000000000000000000000000000000000000000000000081525081526020016040518060400160405280600481526020017f7365616c0000000000000000000000000000000000000000000000000000000081525081526020016040518060400160405280600581526020017f736861726b00000000000000000000000000000000000000000000000000000081525081526020016040518060400160405280600581526020017f736865657000000000000000000000000000000000000000000000000000000081525081526020016040518060400160405280600581526020017f736e61696c00000000000000000000000000000000000000000000000000000081525081526020016040518060400160405280600581526020017f736e616b6500000000000000000000000000000000000000000000000000000081525081526020016040518060400160405280600681526020017f737069646572000000000000000000000000000000000000000000000000000081525081526020016040518060400160405280600881526020017f737175697272656c00000000000000000000000000000000000000000000000081525081526020016040518060400160405280600581526020017f746967657200000000000000000000000000000000000000000000000000000081525081526020016040518060400160405280600681526020017f747572746c65000000000000000000000000000000000000000000000000000081525081526020016040518060400160405280600a81526020017f776f6f647065636b65720000000000000000000000000000000000000000000081525081526020016040518060400160405280600481526020017f776f6c660000000000000000000000000000000000000000000000000000000081525081526020016040518060400160405280600581526020017f7a6562726100000000000000000000000000000000000000000000000000000081525081526020016040518060400160405280600581526020017f736865657000000000000000000000000000000000000000000000000000000081525081526020016040518060400160405280600681526020017f616c70616361000000000000000000000000000000000000000000000000000081525081526020016040518060400160405280600581526020017f6c6c616d6100000000000000000000000000000000000000000000000000000081525081526020016040518060400160405280600581526020017f7768616c6500000000000000000000000000000000000000000000000000000081525081526020016040518060400160405280600981526020017f63686f636f6c617465000000000000000000000000000000000000000000000081525081526020016040518060400160405280600481526020017f6769726c0000000000000000000000000000000000000000000000000000000081525081526020016040518060400160405280600681526020017f68616d6d6572000000000000000000000000000000000000000000000000000081525081526020016040518060400160405280600481526020017f637562650000000000000000000000000000000000000000000000000000000081525081526020016040518060400160405280600381526020017f6e6574000000000000000000000000000000000000000000000000000000000081525081526020016040518060400160405280600781526020017f7370616e6e65720000000000000000000000000000000000000000000000000081525081526020016040518060400160405280600681526020017f626f74746c65000000000000000000000000000000000000000000000000000081525081526020016040518060400160405280600481526020017f626f776c0000000000000000000000000000000000000000000000000000000081525081526020016040518060400160405280600381526020017f626f78000000000000000000000000000000000000000000000000000000000081525081526020016040518060400160405280600381526020017f70656e000000000000000000000000000000000000000000000000000000000081525081526020016040518060400160405280600681526020017f70656e63696c000000000000000000000000000000000000000000000000000081525081526020016040518060400160405280600681526020017f746973737565000000000000000000000000000000000000000000000000000081525081526020016040518060400160405280600781526020017f626973637569740000000000000000000000000000000000000000000000000081525081526020016040518060400160405280600581526020017f686f75736500000000000000000000000000000000000000000000000000000081525081526020016040518060400160405280600681526020017f706562626c65000000000000000000000000000000000000000000000000000081525081526020016040518060400160405280600481526020017f6c6561660000000000000000000000000000000000000000000000000000000081525081526020016040518060400160405280600481526020017f726f636b0000000000000000000000000000000000000000000000000000000081525081526020016040518060400160405280600581526020017f73746f6e6500000000000000000000000000000000000000000000000000000081525081526020016040518060400160405280600681526020017f666c6f776572000000000000000000000000000000000000000000000000000081525081526020016040518060400160405280600581526020017f706574616c00000000000000000000000000000000000000000000000000000081525081526020016040518060400160405280600381526020017f636172000000000000000000000000000000000000000000000000000000000081525081526020016040518060400160405280600581526020017f6c6f72727900000000000000000000000000000000000000000000000000000081525081526020016040518060400160405280600b81526020017f73616e6420636173746c6500000000000000000000000000000000000000000081525081526020016040518060400160405280600681526020017f706572736f6e000000000000000000000000000000000000000000000000000081525081526020016040518060400160405280600481526020017f706f6e640000000000000000000000000000000000000000000000000000000081525081526020016040518060400160405280600681526020017f73706f757365000000000000000000000000000000000000000000000000000081525081526020016040518060400160405280600381526020017f706f74000000000000000000000000000000000000000000000000000000000081525081526020016040518060400160405280600681526020017f7a6f6d626965000000000000000000000000000000000000000000000000000081525081526020016040518060400160405280600581526020017f67686f737400000000000000000000000000000000000000000000000000000081525081526020016040518060400160405280600781526020017f76616d706972650000000000000000000000000000000000000000000000000081525081526020016040518060400160405280600681526020017f636865657365000000000000000000000000000000000000000000000000000081525081526020016040518060400160405280600581526020017f6368616c6b00000000000000000000000000000000000000000000000000000081525081526020016040518060400160405280600481526020017f73616c740000000000000000000000000000000000000000000000000000000081525081526020016040518060400160405280600681526020017f706570706572000000000000000000000000000000000000000000000000000081525081526020016040518060400160405280600981526020017f626f79667269656e64000000000000000000000000000000000000000000000081525081526020016040518060400160405280600a81526020017f6769726c667269656e640000000000000000000000000000000000000000000081525081526020016040518060400160405280600381526020017f6d616e000000000000000000000000000000000000000000000000000000000081525081526020016040518060400160405280600581526020017f776f6d616e00000000000000000000000000000000000000000000000000000081525081526020016040518060400160405280600681526020017f666174686572000000000000000000000000000000000000000000000000000081525081526020016040518060400160405280600b81526020017f6772616e6466617468657200000000000000000000000000000000000000000081525081526020016040518060400160405280600681526020017f6d6f74686572000000000000000000000000000000000000000000000000000081525081526020016040518060400160405280600b81526020017f6772616e646d6f7468657200000000000000000000000000000000000000000081525081526020016040518060400160405280600781526020017f68757362616e640000000000000000000000000000000000000000000000000081525081526020016040518060400160405280600481526020017f776966650000000000000000000000000000000000000000000000000000000081525081526020016040518060400160405280600481526020017f6c616b650000000000000000000000000000000000000000000000000000000081525081526020016040518060400160405280600481526020017f6b696e670000000000000000000000000000000000000000000000000000000081525081526020016040518060400160405280600581526020017f717565656e00000000000000000000000000000000000000000000000000000081525081526020016040518060400160405280600681526020017f667269656e64000000000000000000000000000000000000000000000000000081525081526020016040518060400160405280600b81526020017f6265737420667269656e6400000000000000000000000000000000000000000081525081526020016040518060400160405280600581526020017f647265616d00000000000000000000000000000000000000000000000000000081525081526020016040518060400160405280600781526020017f7061747465726e0000000000000000000000000000000000000000000000000081525081526020016040518060400160405280600581526020017f646576696c000000000000000000000000000000000000000000000000000000815250815250601090607562006b3c9291906200c881565b506040518061178001604052806040518060400160405280600481526020017f70696e6b0000000000000000000000000000000000000000000000000000000081525081526020016040518060400160405280600581526020017f7363616c7900000000000000000000000000000000000000000000000000000081525081526020016040518060400160405280600681526020017f637265657079000000000000000000000000000000000000000000000000000081525081526020016040518060400160405280600681526020017f666965726365000000000000000000000000000000000000000000000000000081525081526020016040518060400160405280600481526020017f627573790000000000000000000000000000000000000000000000000000000081525081526020016040518060400160405280600981526020017f666561746865726564000000000000000000000000000000000000000000000081525081526020016040518060400160405280600681526020017f68756d706564000000000000000000000000000000000000000000000000000081525081526020016040518060400160405280600581526020017f667572727900000000000000000000000000000000000000000000000000000081525081526020016040518060400160405280600481526020017f666173740000000000000000000000000000000000000000000000000000000081525081526020016040518060400160405280600881526020017f636c75636b696e6700000000000000000000000000000000000000000000000081525081526020016040518060400160405280600681526020017f6372617a6564000000000000000000000000000000000000000000000000000081525081526020016040518060400160405280600581526020017f686561767900000000000000000000000000000000000000000000000000000081525081526020016040518060400160405280600481526020017f6576696c0000000000000000000000000000000000000000000000000000000081525081526020016040518060400160405280600481526020017f63616c6d0000000000000000000000000000000000000000000000000000000081525081526020016040518060400160405280600981526020017f656e65726765746963000000000000000000000000000000000000000000000081525081526020016040518060400160405280600681526020017f736d6f6f7468000000000000000000000000000000000000000000000000000081525081526020016040518060400160405280600581526020017f736d616c6c00000000000000000000000000000000000000000000000000000081525081526020016040518060400160405280600881526020017f6d656e6163696e6700000000000000000000000000000000000000000000000081525081526020016040518060400160405280600581526020017f686561767900000000000000000000000000000000000000000000000000000081525081526020016040518060400160405280600a81526020017f73747265616d6c696e650000000000000000000000000000000000000000000081525081526020016040518060400160405280600781526020017f63756e6e696e670000000000000000000000000000000000000000000000000081525081526020016040518060400160405280600581526020017f677265656e00000000000000000000000000000000000000000000000000000081525081526020016040518060400160405280600681526020017f79656c6c6f77000000000000000000000000000000000000000000000000000081525081526020016040518060400160405280600481526020017f74616c6c0000000000000000000000000000000000000000000000000000000081525081526020016040518060400160405280600481526020017f676f6c640000000000000000000000000000000000000000000000000000000081525081526020016040518060400160405280600481526020017f677265790000000000000000000000000000000000000000000000000000000081525081526020016040518060400160405280600481526020017f70696e6b0000000000000000000000000000000000000000000000000000000081525081526020016040518060400160405280600581526020017f6772616e6400000000000000000000000000000000000000000000000000000081525081526020016040518060400160405280600781526020017f737072696e67790000000000000000000000000000000000000000000000000081525081526020016040518060400160405280600481526020017f637574650000000000000000000000000000000000000000000000000000000081525081526020016040518060400160405280600581526020017f736361727900000000000000000000000000000000000000000000000000000081525081526020016040518060400160405280600581526020017f736861727000000000000000000000000000000000000000000000000000000081525081526020016040518060400160405280600b81526020017f687970657261637469766500000000000000000000000000000000000000000081525081526020016040518060400160405280600b81526020017f696e74656c6c6967656e7400000000000000000000000000000000000000000081525081526020016040518060400160405280600981526020017f6e6f637475726e616c000000000000000000000000000000000000000000000081525081526020016040518060400160405280600581526020017f73696c6c7900000000000000000000000000000000000000000000000000000081525081526020016040518060400160405280600881526020017f726f6d616e74696300000000000000000000000000000000000000000000000081525081526020016040518060400160405280600981526020017f696d70617469656e74000000000000000000000000000000000000000000000081525081526020016040518060400160405280600381526020017f626967000000000000000000000000000000000000000000000000000000000081525081526020016040518060400160405280600581526020017f66756e6e7900000000000000000000000000000000000000000000000000000081525081526020016040518060400160405280600481526020017f74696e790000000000000000000000000000000000000000000000000000000081525081526020016040518060400160405280600781526020017f616d617a696e670000000000000000000000000000000000000000000000000081525081526020016040518060400160405280600481526020017f736c696d0000000000000000000000000000000000000000000000000000000081525081526020016040518060400160405280600481526020017f6b696e640000000000000000000000000000000000000000000000000000000081525081526020016040518060400160405280600881526020017f67656e65726f757300000000000000000000000000000000000000000000000081525081526020016040518060400160405280600581526020017f686170707900000000000000000000000000000000000000000000000000000081525081526020016040518060400160405280600581526020017f6a6f6c6c7900000000000000000000000000000000000000000000000000000081525081526020016040518060400160405280600581526020017f6d6572727900000000000000000000000000000000000000000000000000000081525081526020016040518060400160405280600681526020017f6772756d7079000000000000000000000000000000000000000000000000000081525081526020016040518060400160405280600781526020017f7370656369616c0000000000000000000000000000000000000000000000000081525081526020016040518060400160405280600881526020017f706f77657266756c00000000000000000000000000000000000000000000000081525081526020016040518060400160405280600481526020017f7765616b0000000000000000000000000000000000000000000000000000000081525081526020016040518060400160405280600681526020017f6d6967687479000000000000000000000000000000000000000000000000000081525081526020016040518060400160405280600381526020017f66756e000000000000000000000000000000000000000000000000000000000081525081526020016040518060400160405280600881526020017f61646f7261626c6500000000000000000000000000000000000000000000000081525081526020016040518060400160405280600781526020017f6461726c696e670000000000000000000000000000000000000000000000000081525081526020016040518060400160405280600681526020017f636172696e67000000000000000000000000000000000000000000000000000081525081526020016040518060400160405280600581526020017f66756e6e7900000000000000000000000000000000000000000000000000000081525081526020016040518060400160405280600581526020017f706c756d7000000000000000000000000000000000000000000000000000000081525081526020016040518060400160405280600981526020017f656d6f74696f6e616c000000000000000000000000000000000000000000000081525081526020016040518060400160405280600581526020017f73696c6c7900000000000000000000000000000000000000000000000000000081525081526020016040518060400160405280600981526020017f68696c6172696f7573000000000000000000000000000000000000000000000081525081526020016040518060400160405280600981526020017f6c6f617468736f6d65000000000000000000000000000000000000000000000081525081526020016040518060400160405280600581526020017f6769616e7400000000000000000000000000000000000000000000000000000081525081526020016040518060400160405280600881526020017f7468756e6465727900000000000000000000000000000000000000000000000081525081526020016040518060400160405280600581526020017f676f6f667900000000000000000000000000000000000000000000000000000081525081526020016040518060400160405280600481526020017f637574650000000000000000000000000000000000000000000000000000000081525081526020016040518060400160405280600781526020017f657863697465640000000000000000000000000000000000000000000000000081525081526020016040518060400160405280600581526020017f686170707900000000000000000000000000000000000000000000000000000081525081526020016040518060400160405280600981526020017f736172636173746963000000000000000000000000000000000000000000000081525081526020016040518060400160405280600581526020017f726967687400000000000000000000000000000000000000000000000000000081525081526020016040518060400160405280600781526020017f6465616470616e0000000000000000000000000000000000000000000000000081525081526020016040518060400160405280600481526020017f66696e650000000000000000000000000000000000000000000000000000000081525081526020016040518060400160405280600381526020017f6d6164000000000000000000000000000000000000000000000000000000000081525081526020016040518060400160405280600481526020017f77696c640000000000000000000000000000000000000000000000000000000081525081526020016040518060400160405280600381526020017f686f74000000000000000000000000000000000000000000000000000000000081525081526020016040518060400160405280600781526020017f616d617a696e670000000000000000000000000000000000000000000000000081525081526020016040518060400160405280600781526020017f617765736f6d650000000000000000000000000000000000000000000000000081525081526020016040518060400160405280600481526020017f6c6976650000000000000000000000000000000000000000000000000000000081525081526020016040518060400160405280600881526020017f6578636974696e6700000000000000000000000000000000000000000000000081525081526020016040518060400160405280600681526020017f627269676874000000000000000000000000000000000000000000000000000081525081526020016040518060400160405280600481526020017f6b696e640000000000000000000000000000000000000000000000000000000081525081526020016040518060400160405280600681526020017f68756e677279000000000000000000000000000000000000000000000000000081525081526020016040518060400160405280600481526020017f6e6561740000000000000000000000000000000000000000000000000000000081525081526020016040518060400160405280600481526020017f6461726b0000000000000000000000000000000000000000000000000000000081525081526020016040518060400160405280600481526020017f636f6c640000000000000000000000000000000000000000000000000000000081525081526020016040518060400160405280600881526020017f667269656e646c7900000000000000000000000000000000000000000000000081525081526020016040518060400160405280600881526020017f706c656173616e7400000000000000000000000000000000000000000000000081525081526020016040518060400160405280600381526020017f736164000000000000000000000000000000000000000000000000000000000081525081526020016040518060400160405280600a81526020017f6f726e616d656e74616c0000000000000000000000000000000000000000000081525081526020016040518060400160405280600a81526020017f64656c6967687466756c0000000000000000000000000000000000000000000081525081526020016040518060400160405280600881526020017f746572726966696300000000000000000000000000000000000000000000000081525081526020016040518060400160405280600881526020017f676f7267656f757300000000000000000000000000000000000000000000000081525081526020016040518060400160405280600881526020017f636865657266756c00000000000000000000000000000000000000000000000081525081526020016040518060400160405280600681526020017f707265747479000000000000000000000000000000000000000000000000000081525081526020016040518060400160405280600581526020017f776569726400000000000000000000000000000000000000000000000000000081525081526020016040518060400160405280600381526020017f626967000000000000000000000000000000000000000000000000000000000081525081526020016040518060400160405280600581526020017f736d61727400000000000000000000000000000000000000000000000000000081525081526020016040518060400160405280600981526020017f656e6a6f7961626c65000000000000000000000000000000000000000000000081525081526020016040518060400160405280600681526020017f737072756365000000000000000000000000000000000000000000000000000081525081526020016040518060400160405280600581526020017f66616e637900000000000000000000000000000000000000000000000000000081525081526020016040518060400160405280600881526020017f61636164656d696300000000000000000000000000000000000000000000000081525081526020016040518060400160405280600881526020017f68616e64736f6d6500000000000000000000000000000000000000000000000081525081526020016040518060400160405280600881526020017f7465727269626c6500000000000000000000000000000000000000000000000081525081526020016040518060400160405280600781526020017f706f7461626c650000000000000000000000000000000000000000000000000081525081526020016040518060400160405280600581526020017f617766756c00000000000000000000000000000000000000000000000000000081525081526020016040518060400160405280600781526020017f706572666563740000000000000000000000000000000000000000000000000081525081526020016040518060400160405280600581526020017f6c6967687400000000000000000000000000000000000000000000000000000081525081526020016040518060400160405280600881526020017f67726163696f757300000000000000000000000000000000000000000000000081525081526020016040518060400160405280600681526020017f6c6976696e67000000000000000000000000000000000000000000000000000081525081526020016040518060400160405280600581526020017f6a6f6c6c7900000000000000000000000000000000000000000000000000000081525081526020016040518060400160405280600481526020017f6576696c0000000000000000000000000000000000000000000000000000000081525081526020016040518060400160405280600a81526020017f667265736877617465720000000000000000000000000000000000000000000081525081526020016040518060400160405280600381526020017f6f6c64000000000000000000000000000000000000000000000000000000000081525081526020016040518060400160405280600681526020017f67656e746c65000000000000000000000000000000000000000000000000000081525081526020016040518060400160405280600681526020017f6c6974746c65000000000000000000000000000000000000000000000000000081525081526020016040518060400160405280600681526020017f7374726f6e67000000000000000000000000000000000000000000000000000081525081526020016040518060400160405280600481526020017f666173740000000000000000000000000000000000000000000000000000000081525081526020016040518060400160405280600781526020017f737472616e67650000000000000000000000000000000000000000000000000081525081526020016040518060400160405280600481526020017f626c75650000000000000000000000000000000000000000000000000000000081525081526020016040518060400160405280600981526020017f657863656c6c656e74000000000000000000000000000000000000000000000081525081526020016040518060400160405280600881526020017f706c656173696e6700000000000000000000000000000000000000000000000081525081526020016040518060400160405280600481526020017f7761726d0000000000000000000000000000000000000000000000000000000081525081526020016040518060400160405280600b81526020017f656475636174696f6e616c00000000000000000000000000000000000000000081525081526020016040518060400160405280600481526020017f70616c650000000000000000000000000000000000000000000000000000000081525081526020016040518060400160405280600681526020017f646561646c79000000000000000000000000000000000000000000000000000081525081526020016040518060400160405280600981526020017f66616e746173746963000000000000000000000000000000000000000000000081525081526020016040518060400160405280600881526020017f636861726d696e6700000000000000000000000000000000000000000000000081525081526020016040518060400160405280600681526020017f6a6f7966756c000000000000000000000000000000000000000000000000000081525081526020016040518060400160405280600481526020017f6d61696e0000000000000000000000000000000000000000000000000000000081525081526020016040518060400160405280600981526020017f616772656561626c65000000000000000000000000000000000000000000000081525081526020016040518060400160405280600681526020017f6d6f7274616c000000000000000000000000000000000000000000000000000081525081526020016040518060400160405280600581526020017f686561767900000000000000000000000000000000000000000000000000000081525081526020016040518060400160405280600781526020017f636f6e74656e740000000000000000000000000000000000000000000000000081525081526020016040518060400160405280600681526020017f637265657079000000000000000000000000000000000000000000000000000081525081526020016040518060400160405280600581526020017f736861727000000000000000000000000000000000000000000000000000000081525081526020016040518060400160405280600d81526020017f696e737472756374696f6e616c0000000000000000000000000000000000000081525081526020016040518060400160405280600581526020017f717569657400000000000000000000000000000000000000000000000000000081525081526020016040518060400160405280600481526020017f61626c650000000000000000000000000000000000000000000000000000000081525081526020016040518060400160405280600481526020017f736f66740000000000000000000000000000000000000000000000000000000081525081526020016040518060400160405280600581526020017f636c65617200000000000000000000000000000000000000000000000000000081525081526020016040518060400160405280600581526020017f656d70747900000000000000000000000000000000000000000000000000000081525081526020016040518060400160405280600881526020017f74657874626f6f6b00000000000000000000000000000000000000000000000081525081526020016040518060400160405280600481526020017f646565700000000000000000000000000000000000000000000000000000000081525081526020016040518060400160405280600581526020017f646972747900000000000000000000000000000000000000000000000000000081525081526020016040518060400160405280600581526020017f696465616c00000000000000000000000000000000000000000000000000000081525081526020016040518060400160405280600a81526020017f617474726163746976650000000000000000000000000000000000000000000081525081526020016040518060400160405280600681526020017f616672616964000000000000000000000000000000000000000000000000000081525081526020016040518060400160405280600681526020017f636c65766572000000000000000000000000000000000000000000000000000081525081526020016040518060400160405280600681526020017f616374697665000000000000000000000000000000000000000000000000000081525081526020016040518060400160405280600381526020017f6f6464000000000000000000000000000000000000000000000000000000000081525081526020016040518060400160405280600a81526020017f64656d6f6372617469630000000000000000000000000000000000000000000081525081526020016040518060400160405280600681526020017f72616e646f6d000000000000000000000000000000000000000000000000000081525081526020016040518060400160405280600381526020017f686970000000000000000000000000000000000000000000000000000000000081525081526020016040518060400160405280600781526020017f616d7573696e670000000000000000000000000000000000000000000000000081525081526020016040518060400160405280600b81526020017f696e746572657374696e6700000000000000000000000000000000000000000081525081526020016040518060400160405280600781526020017f696e74656e73650000000000000000000000000000000000000000000000000081525081526020016040518060400160405280600681526020017f737570657262000000000000000000000000000000000000000000000000000081525081526020016040518060400160405280600681526020017f736563726574000000000000000000000000000000000000000000000000000081525081526020016040518060400160405280600481526020017f6b65656e0000000000000000000000000000000000000000000000000000000081525081526020016040518060400160405280600581526020017f77726f6e6700000000000000000000000000000000000000000000000000000081525081526020016040518060400160405280600581526020017f726561647900000000000000000000000000000000000000000000000000000081525081526020016040518060400160405280600581526020017f7368696e7900000000000000000000000000000000000000000000000000000081525081526020016040518060400160405280600781526020017f706c617966756c0000000000000000000000000000000000000000000000000081525081526020016040518060400160405280600581526020017f6d616a6f7200000000000000000000000000000000000000000000000000000081525081526020016040518060400160405280600481526020017f666169720000000000000000000000000000000000000000000000000000000081525081526020016040518060400160405280600781526020017f6c69626572616c0000000000000000000000000000000000000000000000000081525081526020016040518060400160405280600881526020017f676c6f72696f757300000000000000000000000000000000000000000000000081525081526020016040518060400160405280600481526020017f6c6f6e670000000000000000000000000000000000000000000000000000000081525081526020016040518060400160405280600981526020017f6e6f637475726e616c000000000000000000000000000000000000000000000081525081526020016040518060400160405280600d81526020017f636f6d70617373696f6e6174650000000000000000000000000000000000000081525081526020016040518060400160405280600581526020017f726f756e6400000000000000000000000000000000000000000000000000000081525081526020016040518060400160405280600481526020017f616369640000000000000000000000000000000000000000000000000000000081525081526020016040518060400160405280600581526020017f746561727900000000000000000000000000000000000000000000000000000081525081526020016040518060400160405280600581526020017f73756e6e7900000000000000000000000000000000000000000000000000000081525081526020016040518060400160405280600b81526020017f706c656173757261626c6500000000000000000000000000000000000000000081525081526020016040518060400160405280600781526020017f636f6d6963616c0000000000000000000000000000000000000000000000000081525081526020016040518060400160405280600681526020017f756e7265616c000000000000000000000000000000000000000000000000000081525081526020016040518060400160405280600381526020017f647279000000000000000000000000000000000000000000000000000000000081525081526020016040518060400160405280600681526020017f647265616d79000000000000000000000000000000000000000000000000000081525081526020016040518060400160405280600581526020017f736f6c696400000000000000000000000000000000000000000000000000000081525081526020016040518060400160405280600581526020017f6c79696e6700000000000000000000000000000000000000000000000000000081525081526020016040518060400160405280600481526020017f687567650000000000000000000000000000000000000000000000000000000081525081526020016040518060400160405280600a81526020017f70617373696f6e6174650000000000000000000000000000000000000000000081525081526020016040518060400160405280600581526020017f736361727900000000000000000000000000000000000000000000000000000081525081526020016040518060400160405280600481526020017f626f6c640000000000000000000000000000000000000000000000000000000081525081526020016040518060400160405280600681526020017f626f756e6379000000000000000000000000000000000000000000000000000081525081526020016040518060400160405280600681526020017f627261696e79000000000000000000000000000000000000000000000000000081525081525060119060bc620096ad9291906200c8e8565b506040518061070001604052806040518060400160405280600581526020017f736e61707300000000000000000000000000000000000000000000000000000081525081526020016040518060400160405280600681526020017f637261776c73000000000000000000000000000000000000000000000000000081525081526020016040518060400160405280600581526020017f726f61727300000000000000000000000000000000000000000000000000000081525081526020016040518060400160405280600681526020017f627265616b73000000000000000000000000000000000000000000000000000081525081526020016040518060400160405280600781526020017f72656c617865730000000000000000000000000000000000000000000000000081525081526020016040518060400160405280600781526020017f726573697374730000000000000000000000000000000000000000000000000081525081526020016040518060400160405280600481526020017f736974730000000000000000000000000000000000000000000000000000000081525081526020016040518060400160405280600981526020017f737472657463686573000000000000000000000000000000000000000000000081525081526020016040518060400160405280600781526020017f746970746f65730000000000000000000000000000000000000000000000000081525081526020016040518060400160405280600581526020017f776176657300000000000000000000000000000000000000000000000000000081525081526020016040518060400160405280600581526020017f776169747300000000000000000000000000000000000000000000000000000081525081526020016040518060400160405280600681526020017f7374696e6773000000000000000000000000000000000000000000000000000081525081526020016040518060400160405280600581526020017f637269657300000000000000000000000000000000000000000000000000000081525081526020016040518060400160405280600881526020017f686573697461746500000000000000000000000000000000000000000000000081525081526020016040518060400160405280600481526020017f6a6f67730000000000000000000000000000000000000000000000000000000081525081526020016040518060400160405280600581526020017f6d656c747300000000000000000000000000000000000000000000000000000081525081526020016040518060400160405280600681526020017f6f6363757273000000000000000000000000000000000000000000000000000081525081526020016040518060400160405280600581526020017f706c61797300000000000000000000000000000000000000000000000000000081525081526020016040518060400160405280600681526020017f636f756e7473000000000000000000000000000000000000000000000000000081525081526020016040518060400160405280600681526020017f636869727073000000000000000000000000000000000000000000000000000081525081526020016040518060400160405280600581526020017f77616c6b7300000000000000000000000000000000000000000000000000000081525081526020016040518060400160405280600581526020017f63616c6c7300000000000000000000000000000000000000000000000000000081525081526020016040518060400160405280600481526020017f72756e730000000000000000000000000000000000000000000000000000000081525081526020016040518060400160405280600481526020017f6c6965730000000000000000000000000000000000000000000000000000000081525081526020016040518060400160405280600581526020017f6c6f6f6b7300000000000000000000000000000000000000000000000000000081525081526020016040518060400160405280600481526020017f6d6f6f730000000000000000000000000000000000000000000000000000000081525081526020016040518060400160405280600681526020017f736e65657273000000000000000000000000000000000000000000000000000081525081526020016040518060400160405280600581526020017f686964657300000000000000000000000000000000000000000000000000000081525081526020016040518060400160405280600581526020017f6261726b7300000000000000000000000000000000000000000000000000000081525081526020016040518060400160405280600581526020017f7377696d7300000000000000000000000000000000000000000000000000000081525081526020016040518060400160405280600781526020017f776164646c65730000000000000000000000000000000000000000000000000081525081526020016040518060400160405280600581526020017f736f61727300000000000000000000000000000000000000000000000000000081525081526020016040518060400160405280600781526020017f706164646c65730000000000000000000000000000000000000000000000000081525081526020016040518060400160405280600581526020017f6275726e7300000000000000000000000000000000000000000000000000000081525081526020016040518060400160405280600581526020017f68756e747300000000000000000000000000000000000000000000000000000081525081526020016040518060400160405280600581526020017f666c69657300000000000000000000000000000000000000000000000000000081525081526020016040518060400160405280600681526020017f7374616c6b73000000000000000000000000000000000000000000000000000081525081526020016040518060400160405280600481526020017f686f70730000000000000000000000000000000000000000000000000000000081525081526020016040518060400160405280600581526020017f736b69707300000000000000000000000000000000000000000000000000000081525081526020016040518060400160405280600681526020017f7374616e6473000000000000000000000000000000000000000000000000000081525081526020016040518060400160405280600781526020017f73717565616c730000000000000000000000000000000000000000000000000081525081526020016040518060400160405280600781526020017f73717565616b730000000000000000000000000000000000000000000000000081525081526020016040518060400160405280600781526020017f77616c6c6f77730000000000000000000000000000000000000000000000000081525081526020016040518060400160405280600581526020017f74726f747300000000000000000000000000000000000000000000000000000081525081526020016040518060400160405280600781526020017f626f756e6365730000000000000000000000000000000000000000000000000081525081526020016040518060400160405280600581526020017f666565647300000000000000000000000000000000000000000000000000000081525081526020016040518060400160405280600981526020017f667269676874656e73000000000000000000000000000000000000000000000081525081526020016040518060400160405280600581526020017f686f6f747300000000000000000000000000000000000000000000000000000081525081526020016040518060400160405280600781526020017f637564646c65730000000000000000000000000000000000000000000000000081525081526020016040518060400160405280600681526020017f736e6f727473000000000000000000000000000000000000000000000000000081525081526020016040518060400160405280600681526020017f64726f6f6c73000000000000000000000000000000000000000000000000000081525081526020016040518060400160405280600681526020017f70726f776c73000000000000000000000000000000000000000000000000000081525081526020016040518060400160405280600581526020017f666c61707300000000000000000000000000000000000000000000000000000081525081526020016040518060400160405280600481526020017f656174730000000000000000000000000000000000000000000000000000000081525081526020016040518060400160405280600881526020017f736c69746865727300000000000000000000000000000000000000000000000081525081526020016040518060400160405280600681526020017f736c65657073000000000000000000000000000000000000000000000000000081525081525060129060386200a3b29291906200c94f565b50604051806102e001604052806040518060400160405280600581526020017f616674657200000000000000000000000000000000000000000000000000000081525081526020016040518060400160405280600781526020017f646573706974650000000000000000000000000000000000000000000000000081525081526020016040518060400160405280600481526020017f696e746f0000000000000000000000000000000000000000000000000000000081525081526020016040518060400160405280600881526020017f7761746368696e6700000000000000000000000000000000000000000000000081525081526020016040518060400160405280600581526020017f61626f766500000000000000000000000000000000000000000000000000000081525081526020016040518060400160405280600681526020017f6265666f7265000000000000000000000000000000000000000000000000000081525081526020016040518060400160405280600a81526020017f756e6465726e656174680000000000000000000000000000000000000000000081525081526020016040518060400160405280600781526020017f776974686f75740000000000000000000000000000000000000000000000000081525081526020016040518060400160405280600481526020017f75706f6e0000000000000000000000000000000000000000000000000000000081525081526020016040518060400160405280600781526020017f626573696465730000000000000000000000000000000000000000000000000081525081526020016040518060400160405280600581526020017f756e64657200000000000000000000000000000000000000000000000000000081525081526020016040518060400160405280600281526020017f6f6e00000000000000000000000000000000000000000000000000000000000081525081526020016040518060400160405280600681526020017f626568696e64000000000000000000000000000000000000000000000000000081525081526020016040518060400160405280600881526020017f636c6f736520746f00000000000000000000000000000000000000000000000081525081526020016040518060400160405280600481526020017f6e6561720000000000000000000000000000000000000000000000000000000081525081526020016040518060400160405280600481526020017f776974680000000000000000000000000000000000000000000000000000000081525081526020016040518060400160405280600681526020017f6265796f6e64000000000000000000000000000000000000000000000000000081525081526020016040518060400160405280600581526020017f616c6f6e6700000000000000000000000000000000000000000000000000000081525081526020016040518060400160405280600281526020017f627900000000000000000000000000000000000000000000000000000000000081525081526020016040518060400160405280600481526020017f706173740000000000000000000000000000000000000000000000000000000081525081526020016040518060400160405280600681526020017f61726f756e64000000000000000000000000000000000000000000000000000081525081526020016040518060400160405280600781526020017f746f77617264730000000000000000000000000000000000000000000000000081525081526020016040518060400160405280600281526020017f6f6e00000000000000000000000000000000000000000000000000000000000081525081525060139060176200a91c9291906200c9b6565b5060405180610e6001604052806040518060400160405280600781526020017f234535333933350000000000000000000000000000000000000000000000000081525081526020016040518060400160405280600781526020017f234438314236300000000000000000000000000000000000000000000000000081525081526020016040518060400160405280600781526020017f233845323441410000000000000000000000000000000000000000000000000081525081526020016040518060400160405280600781526020017f233545333542310000000000000000000000000000000000000000000000000081525081526020016040518060400160405280600781526020017f233339343941420000000000000000000000000000000000000000000000000081525081526020016040518060400160405280600781526020017f233145383845350000000000000000000000000000000000000000000000000081525081526020016040518060400160405280600781526020017f233033394245350000000000000000000000000000000000000000000000000081525081526020016040518060400160405280600781526020017f233030414343310000000000000000000000000000000000000000000000000081525081526020016040518060400160405280600781526020017f233030383937420000000000000000000000000000000000000000000000000081525081526020016040518060400160405280600781526020017f233433413034370000000000000000000000000000000000000000000000000081525081526020016040518060400160405280600781526020017f233743423334320000000000000000000000000000000000000000000000000081525081526020016040518060400160405280600781526020017f234330434133330000000000000000000000000000000000000000000000000081525081526020016040518060400160405280600781526020017f234644443833350000000000000000000000000000000000000000000000000081525081526020016040518060400160405280600781526020017f234646423330300000000000000000000000000000000000000000000000000081525081526020016040518060400160405280600781526020017f234642384330300000000000000000000000000000000000000000000000000081525081526020016040518060400160405280600781526020017f234634353131450000000000000000000000000000000000000000000000000081525081526020016040518060400160405280600781526020017f233644344334310000000000000000000000000000000000000000000000000081525081526020016040518060400160405280600781526020017f233735373537350000000000000000000000000000000000000000000000000081525081526020016040518060400160405280600781526020017f233534364537410000000000000000000000000000000000000000000000000081525081526020016040518060400160405280600781526020017f234646434444320000000000000000000000000000000000000000000000000081525081526020016040518060400160405280600781526020017f234638424244300000000000000000000000000000000000000000000000000081525081526020016040518060400160405280600781526020017f234531424545370000000000000000000000000000000000000000000000000081525081526020016040518060400160405280600781526020017f234431433445390000000000000000000000000000000000000000000000000081525081526020016040518060400160405280600781526020017f234335434145390000000000000000000000000000000000000000000000000081525081526020016040518060400160405280600781526020017f234242444546420000000000000000000000000000000000000000000000000081525081526020016040518060400160405280600781526020017f234233453546430000000000000000000000000000000000000000000000000081525081526020016040518060400160405280600781526020017f234232454246320000000000000000000000000000000000000000000000000081525081526020016040518060400160405280600781526020017f234232444644420000000000000000000000000000000000000000000000000081525081526020016040518060400160405280600781526020017f234338453643390000000000000000000000000000000000000000000000000081525081526020016040518060400160405280600781526020017f234443454443380000000000000000000000000000000000000000000000000081525081526020016040518060400160405280600781526020017f234630463443330000000000000000000000000000000000000000000000000081525081526020016040518060400160405280600781526020017f234646463943340000000000000000000000000000000000000000000000000081525081526020016040518060400160405280600781526020017f234646454342330000000000000000000000000000000000000000000000000081525081526020016040518060400160405280600781526020017f234646453042320000000000000000000000000000000000000000000000000081525081526020016040518060400160405280600781526020017f234646434342430000000000000000000000000000000000000000000000000081525081526020016040518060400160405280600781526020017f234437434343380000000000000000000000000000000000000000000000000081525081526020016040518060400160405280600781526020017f234635463546350000000000000000000000000000000000000000000000000081525081526020016040518060400160405280600781526020017f234346443844430000000000000000000000000000000000000000000000000081525081526020016040518060400160405280600781526020017f234546394139410000000000000000000000000000000000000000000000000081525081526020016040518060400160405280600781526020017f234634384642310000000000000000000000000000000000000000000000000081525081526020016040518060400160405280600781526020017f234345393344380000000000000000000000000000000000000000000000000081525081526020016040518060400160405280600781526020017f234233394444420000000000000000000000000000000000000000000000000081525081526020016040518060400160405280600781526020017f233946413844410000000000000000000000000000000000000000000000000081525081526020016040518060400160405280600781526020017f233930434146390000000000000000000000000000000000000000000000000081525081526020016040518060400160405280600781526020017f233831443446410000000000000000000000000000000000000000000000000081525081526020016040518060400160405280600781526020017f233830444545410000000000000000000000000000000000000000000000000081525081526020016040518060400160405280600781526020017f233830434243340000000000000000000000000000000000000000000000000081525081526020016040518060400160405280600781526020017f234135443641370000000000000000000000000000000000000000000000000081525081526020016040518060400160405280600781526020017f233863643739300000000000000000000000000000000000000000000000000081525081526020016040518060400160405280600781526020017f234335453141350000000000000000000000000000000000000000000000000081525081526020016040518060400160405280600781526020017f234536454539430000000000000000000000000000000000000000000000000081525081526020016040518060400160405280600781526020017f234646463539440000000000000000000000000000000000000000000000000081525081526020016040518060400160405280600781526020017f234646453038320000000000000000000000000000000000000000000000000081525081526020016040518060400160405280600781526020017f234646434338300000000000000000000000000000000000000000000000000081525081526020016040518060400160405280600781526020017f234646414239310000000000000000000000000000000000000000000000000081525081526020016040518060400160405280600781526020017f234243414141340000000000000000000000000000000000000000000000000081525081526020016040518060400160405280600781526020017f234545454545450000000000000000000000000000000000000000000000000081525081526020016040518060400160405280600781526020017f234230424543350000000000000000000000000000000000000000000000000081525081526020016040518060400160405280600781526020017f234535373337330000000000000000000000000000000000000000000000000081525081526020016040518060400160405280600781526020017f234630363239320000000000000000000000000000000000000000000000000081525081526020016040518060400160405280600781526020017f234241363843380000000000000000000000000000000000000000000000000081525081526020016040518060400160405280600781526020017f233935373543440000000000000000000000000000000000000000000000000081525081526020016040518060400160405280600781526020017f233739383643420000000000000000000000000000000000000000000000000081525081526020016040518060400160405280600781526020017f233634423546360000000000000000000000000000000000000000000000000081525081526020016040518060400160405280600781526020017f233446433346370000000000000000000000000000000000000000000000000081525081526020016040518060400160405280600781526020017f233444443045310000000000000000000000000000000000000000000000000081525081526020016040518060400160405280600781526020017f233444423641430000000000000000000000000000000000000000000000000081525081526020016040518060400160405280600781526020017f233831433738340000000000000000000000000000000000000000000000000081525081526020016040518060400160405280600781526020017f234145443538310000000000000000000000000000000000000000000000000081525081526020016040518060400160405280600781526020017f234443453737350000000000000000000000000000000000000000000000000081525081526020016040518060400160405280600781526020017f234646463137360000000000000000000000000000000000000000000000000081525081526020016040518060400160405280600781526020017f234646443534460000000000000000000000000000000000000000000000000081525081526020016040518060400160405280600781526020017f234646423734440000000000000000000000000000000000000000000000000081525081526020016040518060400160405280600781526020017f234646384136350000000000000000000000000000000000000000000000000081525081526020016040518060400160405280600781526020017f234131383837460000000000000000000000000000000000000000000000000081525081526020016040518060400160405280600781526020017f234530453045300000000000000000000000000000000000000000000000000081525081526020016040518060400160405280600781526020017f233930413441450000000000000000000000000000000000000000000000000081525081526020016040518060400160405280600781526020017f234546353335300000000000000000000000000000000000000000000000000081525081526020016040518060400160405280600781526020017f234543343037410000000000000000000000000000000000000000000000000081525081526020016040518060400160405280600781526020017f234142343742430000000000000000000000000000000000000000000000000081525081526020016040518060400160405280600781526020017f233745353743320000000000000000000000000000000000000000000000000081525081526020016040518060400160405280600781526020017f233543364243300000000000000000000000000000000000000000000000000081525081526020016040518060400160405280600781526020017f233432413546350000000000000000000000000000000000000000000000000081525081526020016040518060400160405280600781526020017f233239423646360000000000000000000000000000000000000000000000000081525081526020016040518060400160405280600781526020017f233236433644410000000000000000000000000000000000000000000000000081525081526020016040518060400160405280600781526020017f233236413639410000000000000000000000000000000000000000000000000081525081526020016040518060400160405280600781526020017f233636424236410000000000000000000000000000000000000000000000000081525081526020016040518060400160405280600781526020017f233943434336350000000000000000000000000000000000000000000000000081525081526020016040518060400160405280600781526020017f234434453135370000000000000000000000000000000000000000000000000081525081526020016040518060400160405280600781526020017f234646454535380000000000000000000000000000000000000000000000000081525081526020016040518060400160405280600781526020017f234646434132380000000000000000000000000000000000000000000000000081525081526020016040518060400160405280600781526020017f234646413732360000000000000000000000000000000000000000000000000081525081526020016040518060400160405280600781526020017f234646373034330000000000000000000000000000000000000000000000000081525081526020016040518060400160405280600781526020017f233844364536330000000000000000000000000000000000000000000000000081525081526020016040518060400160405280600781526020017f234244424442440000000000000000000000000000000000000000000000000081525081526020016040518060400160405280600781526020017f233738393039430000000000000000000000000000000000000000000000000081525081526020016040518060400160405280600781526020017f234634343333360000000000000000000000000000000000000000000000000081525081526020016040518060400160405280600781526020017f234539314536330000000000000000000000000000000000000000000000000081525081526020016040518060400160405280600781526020017f233943323742300000000000000000000000000000000000000000000000000081525081526020016040518060400160405280600781526020017f233637334142370000000000000000000000000000000000000000000000000081525081526020016040518060400160405280600781526020017f233346353142350000000000000000000000000000000000000000000000000081525081526020016040518060400160405280600781526020017f233231393646330000000000000000000000000000000000000000000000000081525081526020016040518060400160405280600781526020017f233033413946340000000000000000000000000000000000000000000000000081525081526020016040518060400160405280600781526020017f233030424344340000000000000000000000000000000000000000000000000081525081526020016040518060400160405280600781526020017f233030393638380000000000000000000000000000000000000000000000000081525081526020016040518060400160405280600781526020017f233443414635300000000000000000000000000000000000000000000000000081525081526020016040518060400160405280600781526020017f233842433334410000000000000000000000000000000000000000000000000081525081526020016040518060400160405280600781526020017f234344444333390000000000000000000000000000000000000000000000000081525081526020016040518060400160405280600781526020017f234646454233420000000000000000000000000000000000000000000000000081525081526020016040518060400160405280600781526020017f234646433130370000000000000000000000000000000000000000000000000081525081526020016040518060400160405280600781526020017f234646393830300000000000000000000000000000000000000000000000000081525081526020016040518060400160405280600781526020017f234646353732320000000000000000000000000000000000000000000000000081525081526020016040518060400160405280600781526020017f233739353534380000000000000000000000000000000000000000000000000081525081526020016040518060400160405280600781526020017f233945394539450000000000000000000000000000000000000000000000000081525081526020016040518060400160405280600781526020017f233630374438420000000000000000000000000000000000000000000000000081525081525060149060736200c3ba9291906200ca1d565b503480156200c3c857600080fd5b506040518060400160405280600881526020017f73757368694e46540000000000000000000000000000000000000000000000008152506040518060400160405280600581526020017f535553484900000000000000000000000000000000000000000000000000000081525081600090805190602001906200c44d9291906200c586565b5080600190805190602001906200c4669291906200c586565b5050506200c4b46040518060400160405280601d81526020017f73757368694e465420636f6e747261637420696e697469616c697a65640000008152506200c4ba60201b62000f501760201c565b6200cc3e565b6200c55a816040516024016200c4d191906200cb52565b6040516020818303038152906040527f41304fac000000000000000000000000000000000000000000000000000000007bffffffffffffffffffffffffffffffffffffffffffffffffffffffff19166020820180517bffffffffffffffffffffffffffffffffffffffffffffffffffffffff83818316178352505050506200c55d60201b60201c565b50565b60008151905060006a636f6e736f6c652e6c6f679050602083016000808483855afa5050505050565b8280546200c594906200cbc8565b90600052602060002090601f0160209004810192826200c5b857600085556200c604565b82601f106200c5d357805160ff19168380011785556200c604565b828001600101855582156200c604579182015b828111156200c6035782518255916020019190600101906200c5e6565b5b5090506200c61391906200ca84565b5090565b8280548282559060005260206000209081019282156200c66b579160200282015b828111156200c66a5782518290805190602001906200c6599291906200c586565b50916020019190600101906200c638565b5b5090506200c67a91906200caa3565b5090565b8280548282559060005260206000209081019282156200c6d2579160200282015b828111156200c6d15782518290805190602001906200c6c09291906200c586565b50916020019190600101906200c69f565b5b5090506200c6e191906200caa3565b5090565b8280548282559060005260206000209081019282156200c739579160200282015b828111156200c7385782518290805190602001906200c7279291906200c586565b50916020019190600101906200c706565b5b5090506200c74891906200caa3565b5090565b8280548282559060005260206000209081019282156200c7a0579160200282015b828111156200c79f5782518290805190602001906200c78e9291906200c586565b50916020019190600101906200c76d565b5b5090506200c7af91906200caa3565b5090565b8280548282559060005260206000209081019282156200c807579160200282015b828111156200c8065782518290805190602001906200c7f59291906200c586565b50916020019190600101906200c7d4565b5b5090506200c81691906200caa3565b5090565b8280548282559060005260206000209081019282156200c86e579160200282015b828111156200c86d5782518290805190602001906200c85c9291906200c586565b50916020019190600101906200c83b565b5b5090506200c87d91906200caa3565b5090565b8280548282559060005260206000209081019282156200c8d5579160200282015b828111156200c8d45782518290805190602001906200c8c39291906200c586565b50916020019190600101906200c8a2565b5b5090506200c8e491906200caa3565b5090565b8280548282559060005260206000209081019282156200c93c579160200282015b828111156200c93b5782518290805190602001906200c92a9291906200c586565b50916020019190600101906200c909565b5b5090506200c94b91906200caa3565b5090565b8280548282559060005260206000209081019282156200c9a3579160200282015b828111156200c9a25782518290805190602001906200c9919291906200c586565b50916020019190600101906200c970565b5b5090506200c9b291906200caa3565b5090565b8280548282559060005260206000209081019282156200ca0a579160200282015b828111156200ca095782518290805190602001906200c9f89291906200c586565b50916020019190600101906200c9d7565b5b5090506200ca1991906200caa3565b5090565b8280548282559060005260206000209081019282156200ca71579160200282015b828111156200ca705782518290805190602001906200ca5f9291906200c586565b50916020019190600101906200ca3e565b5b5090506200ca8091906200caa3565b5090565b5b808211156200ca9f5760008160009055506001016200ca85565b5090565b5b808211156200cac757600081816200cabd91906200cacb565b506001016200caa4565b5090565b5080546200cad9906200cbc8565b6000825580601f106200caed57506200cb0e565b601f0160209004906000526020600020908101906200cb0d91906200ca84565b5b50565b60006200cb1e826200cb76565b6200cb2a81856200cb81565b93506200cb3c8185602086016200cb92565b6200cb47816200cc2d565b840191505092915050565b600060208201905081810360008301526200cb6e81846200cb11565b905092915050565b600081519050919050565b600082825260208201905092915050565b60005b838110156200cbb25780820151818401526020810190506200cb95565b838111156200cbc2576000848401525b50505050565b600060028204905060018216806200cbe157607f821691505b602082108114156200cbf8576200cbf76200cbfe565b5b50919050565b7f4e487b7100000000000000000000000000000000000000000000000000000000600052602260045260246000fd5b6000601f19601f8301169050919050565b614ec0806200cc4e6000396000f3fe608060405234801561001057600080fd5b50600436106100f55760003560e01c806370a0823111610097578063b88d4fde11610066578063b88d4fde14610284578063c87b56dd146102a0578063de9d132f146102d0578063e985e9c5146102da576100f5565b806370a08231146101fc57806377ec4ac01461022c57806395d89b411461024a578063a22cb46514610268576100f5565b8063095ea7b3116100d3578063095ea7b31461017857806323b872dd1461019457806342842e0e146101b05780636352211e146101cc576100f5565b806301ffc9a7146100fa57806306fdde031461012a578063081812fc14610148575b600080fd5b610114600480360381019061010f9190613478565b61030a565b6040516101219190613e08565b60405180910390f35b6101326103ec565b60405161013f9190613e23565b60405180910390f35b610162600480360381019061015d91906134ca565b61047e565b60405161016f9190613d6a565b60405180910390f35b610192600480360381019061018d919061343c565b610503565b005b6101ae60048036038101906101a99190613336565b61061b565b005b6101ca60048036038101906101c59190613336565b61067b565b005b6101e660048036038101906101e191906134ca565b61069b565b6040516101f39190613d6a565b60405180910390f35b610216600480360381019061021191906132d1565b61074d565b60405161022391906140c3565b60405180910390f35b610234610805565b60405161024191906140c3565b60405180910390f35b610252610816565b60405161025f9190613e23565b60405180910390f35b610282600480360381019061027d9190613400565b6108a8565b005b61029e60048036038101906102999190613385565b6108be565b005b6102ba60048036038101906102b591906134ca565b610920565b6040516102c79190613e23565b60405180910390f35b6102d8610a72565b005b6102f460048036038101906102ef91906132fa565b610ebc565b6040516103019190613e08565b60405180910390f35b60007f80ac58cd000000000000000000000000000000000000000000000000000000007bffffffffffffffffffffffffffffffffffffffffffffffffffffffff1916827bffffffffffffffffffffffffffffffffffffffffffffffffffffffff191614806103d557507f5b5e139f000000000000000000000000000000000000000000000000000000007bffffffffffffffffffffffffffffffffffffffffffffffffffffffff1916827bffffffffffffffffffffffffffffffffffffffffffffffffffffffff1916145b806103e557506103e482610fe9565b5b9050919050565b6060600080546103fb90614398565b80601f016020809104026020016040519081016040528092919081815260200182805461042790614398565b80156104745780601f1061044957610100808354040283529160200191610474565b820191906000526020600020905b81548152906001019060200180831161045757829003601f168201915b5050505050905090565b600061048982611053565b6104c8576040517f08c379a00000000000000000000000000000000000000000000000000000000081526004016104bf90614003565b60405180910390fd5b6004600083815260200190815260200160002060009054906101000a900473ffffffffffffffffffffffffffffffffffffffff169050919050565b600061050e8261069b565b90508073ffffffffffffffffffffffffffffffffffffffff168373ffffffffffffffffffffffffffffffffffffffff16141561057f576040517f08c379a000000000000000000000000000000000000000000000000000000000815260040161057690614063565b60405180910390fd5b8073ffffffffffffffffffffffffffffffffffffffff1661059e6110bf565b73ffffffffffffffffffffffffffffffffffffffff1614806105cd57506105cc816105c76110bf565b610ebc565b5b61060c576040517f08c379a000000000000000000000000000000000000000000000000000000000815260040161060390613f43565b60405180910390fd5b61061683836110c7565b505050565b61062c6106266110bf565b82611180565b61066b576040517f08c379a000000000000000000000000000000000000000000000000000000000815260040161066290614083565b60405180910390fd5b61067683838361125e565b505050565b610696838383604051806020016040528060008152506108be565b505050565b6000806002600084815260200190815260200160002060009054906101000a900473ffffffffffffffffffffffffffffffffffffffff169050600073ffffffffffffffffffffffffffffffffffffffff168173ffffffffffffffffffffffffffffffffffffffff161415610744576040517f08c379a000000000000000000000000000000000000000000000000000000000815260040161073b90613f83565b60405180910390fd5b80915050919050565b60008073ffffffffffffffffffffffffffffffffffffffff168273ffffffffffffffffffffffffffffffffffffffff1614156107be576040517f08c379a00000000000000000000000000000000000000000000000000000000081526004016107b590613f63565b60405180910390fd5b600360008373ffffffffffffffffffffffffffffffffffffffff1673ffffffffffffffffffffffffffffffffffffffff168152602001908152602001600020549050919050565b600061081160076114c5565b905090565b60606001805461082590614398565b80601f016020809104026020016040519081016040528092919081815260200182805461085190614398565b801561089e5780601f106108735761010080835404028352916020019161089e565b820191906000526020600020905b81548152906001019060200180831161088157829003601f168201915b5050505050905090565b6108ba6108b36110bf565b83836114d3565b5050565b6108cf6108c96110bf565b83611180565b61090e576040517f08c379a000000000000000000000000000000000000000000000000000000000815260040161090590614083565b60405180910390fd5b61091a84848484611640565b50505050565b606061092b82611053565b61096a576040517f08c379a000000000000000000000000000000000000000000000000000000000815260040161096190613fe3565b60405180910390fd5b600060066000848152602001908152602001600020805461098a90614398565b80601f01602080910402602001604051908101604052809291908181526020018280546109b690614398565b8015610a035780601f106109d857610100808354040283529160200191610a03565b820191906000526020600020905b8154815290600101906020018083116109e657829003601f168201915b505050505090506000610a1461169c565b9050600081511415610a2a578192505050610a6d565b600082511115610a5f578082604051602001610a47929190613a96565b60405160208183030381529060405292505050610a6d565b610a68846116b3565b925050505b919050565b6000610a7d3361074d565b14610abd576040517f08c379a0000000000000000000000000000000000000000000000000000000008152600401610ab490614023565b60405180910390fd5b61016d610aca60076114c5565b1115610b0b576040517f08c379a0000000000000000000000000000000000000000000000000000000008152600401610b02906140a3565b60405180910390fd5b6000610b1760076114c5565b90506000610b248261175a565b90506000610b3183611acf565b90506000610b3e84611d37565b90506000610b4b856121d4565b9050610b5683610f50565b610b5f82610f50565b610b6881610f50565b6000610c7b866040518060400160405280600b81526020017f72616e646f6d436f6c6f720000000000000000000000000000000000000000008152506014805480602002602001604051908101604052809291908181526020016000905b82821015610c72578382906000526020600020018054610be590614398565b80601f0160208091040260200160405190810160405280929190818152602001828054610c1190614398565b8015610c5e5780601f10610c3357610100808354040283529160200191610c5e565b820191906000526020600020905b815481529060010190602001808311610c4157829003601f168201915b505050505081526020019060010190610bc6565b5050505061243c565b9050610c8681610f50565b600084604051602001610c999190613c7c565b6040516020818303038152906040529050600084604051602001610cbd9190613d3d565b6040516020818303038152906040529050600084604051602001610ce19190613ca9565b604051602081830303815290604052905060006008856009868686604051602001610d1196959493929190613bf7565b6040516020818303038152906040529050610d2b81610f50565b6000610d5f8a610d3a846124ce565b604051602001610d4b929190613cd6565b6040516020818303038152906040526124ce565b9050600081604051602001610d749190613d1b565b6040516020818303038152906040529050610dc36040518060400160405280601581526020017f0a2d2d2d2d2d2d2d2d2d2d2d2d2d2d2d2d2d2d2d2d0000000000000000000000815250610f50565b610deb81604051602001610dd79190613c5a565b604051602081830303815290604052610f50565b610e296040518060400160405280601581526020017f2d2d2d2d2d2d2d2d2d2d2d2d2d2d2d2d2d2d2d2d0a0000000000000000000000815250610f50565b610e33338d61266d565b610e3d8c8261268b565b610e4760076126ff565b610e6a604051806060016040528060258152602001614e26602591398d33612715565b7fdb6d517c6e9dac9c7b9fdc40e31bde24b3b1b16329a7d3881d5453ae8ea3c592338d610e9760076114c5565b604051610ea693929190613dd1565b60405180910390a1505050505050505050505050565b6000600560008473ffffffffffffffffffffffffffffffffffffffff1673ffffffffffffffffffffffffffffffffffffffff16815260200190815260200160002060008373ffffffffffffffffffffffffffffffffffffffff1673ffffffffffffffffffffffffffffffffffffffff16815260200190815260200160002060009054906101000a900460ff16905092915050565b610fe681604051602401610f649190613e23565b6040516020818303038152906040527f41304fac000000000000000000000000000000000000000000000000000000007bffffffffffffffffffffffffffffffffffffffffffffffffffffffff19166020820180517bffffffffffffffffffffffffffffffffffffffffffffffffffffffff83818316178352505050506127b4565b50565b60007f01ffc9a7000000000000000000000000000000000000000000000000000000007bffffffffffffffffffffffffffffffffffffffffffffffffffffffff1916827bffffffffffffffffffffffffffffffffffffffffffffffffffffffff1916149050919050565b60008073ffffffffffffffffffffffffffffffffffffffff166002600084815260200190815260200160002060009054906101000a900473ffffffffffffffffffffffffffffffffffffffff1673ffffffffffffffffffffffffffffffffffffffff1614159050919050565b600033905090565b816004600083815260200190815260200160002060006101000a81548173ffffffffffffffffffffffffffffffffffffffff021916908373ffffffffffffffffffffffffffffffffffffffff160217905550808273ffffffffffffffffffffffffffffffffffffffff1661113a8361069b565b73ffffffffffffffffffffffffffffffffffffffff167f8c5be1e5ebec7d5bd14f71427d1e84f3dd0314c0f7b2291e5b200ac8c7c3b92560405160405180910390a45050565b600061118b82611053565b6111ca576040517f08c379a00000000000000000000000000000000000000000000000000000000081526004016111c190613f23565b60405180910390fd5b60006111d58361069b565b90508073ffffffffffffffffffffffffffffffffffffffff168473ffffffffffffffffffffffffffffffffffffffff16148061124457508373ffffffffffffffffffffffffffffffffffffffff1661122c8461047e565b73ffffffffffffffffffffffffffffffffffffffff16145b8061125557506112548185610ebc565b5b91505092915050565b8273ffffffffffffffffffffffffffffffffffffffff1661127e8261069b565b73ffffffffffffffffffffffffffffffffffffffff16146112d4576040517f08c379a00000000000000000000000000000000000000000000000000000000081526004016112cb90613ea3565b60405180910390fd5b600073ffffffffffffffffffffffffffffffffffffffff168273ffffffffffffffffffffffffffffffffffffffff161415611344576040517f08c379a000000000000000000000000000000000000000000000000000000000815260040161133b90613ee3565b60405180910390fd5b61134f8383836127dd565b61135a6000826110c7565b6001600360008573ffffffffffffffffffffffffffffffffffffffff1673ffffffffffffffffffffffffffffffffffffffff16815260200190815260200160002060008282546113aa919061426d565b925050819055506001600360008473ffffffffffffffffffffffffffffffffffffffff1673ffffffffffffffffffffffffffffffffffffffff1681526020019081526020016000206000828254611401919061418c565b92505081905550816002600083815260200190815260200160002060006101000a81548173ffffffffffffffffffffffffffffffffffffffff021916908373ffffffffffffffffffffffffffffffffffffffff160217905550808273ffffffffffffffffffffffffffffffffffffffff168473ffffffffffffffffffffffffffffffffffffffff167fddf252ad1be2c89b69c2b068fc378daa952ba7f163c4a11628f55a4df523b3ef60405160405180910390a46114c08383836127e2565b505050565b600081600001549050919050565b8173ffffffffffffffffffffffffffffffffffffffff168373ffffffffffffffffffffffffffffffffffffffff161415611542576040517f08c379a000000000000000000000000000000000000000000000000000000000815260040161153990613f03565b60405180910390fd5b80600560008573ffffffffffffffffffffffffffffffffffffffff1673ffffffffffffffffffffffffffffffffffffffff16815260200190815260200160002060008473ffffffffffffffffffffffffffffffffffffffff1673ffffffffffffffffffffffffffffffffffffffff16815260200190815260200160002060006101000a81548160ff0219169083151502179055508173ffffffffffffffffffffffffffffffffffffffff168373ffffffffffffffffffffffffffffffffffffffff167f17307eab39ab6107e8899845ad3d59bd9653f200f220920489ca2b5937696c31836040516116339190613e08565b60405180910390a3505050565b61164b84848461125e565b611657848484846127e7565b611696576040517f08c379a000000000000000000000000000000000000000000000000000000000815260040161168d90613e83565b60405180910390fd5b50505050565b606060405180602001604052806000815250905090565b60606116be82611053565b6116fd576040517f08c379a00000000000000000000000000000000000000000000000000000000081526004016116f490614043565b60405180910390fd5b600061170761169c565b905060008151116117275760405180602001604052806000815250611752565b806117318461297e565b604051602001611742929190613a96565b6040516020818303038152906040525b915050919050565b6060600061186f836040518060400160405280600581526020017f6669727374000000000000000000000000000000000000000000000000000000815250600a805480602002602001604051908101604052809291908181526020016000905b828210156118665783829060005260206000200180546117d990614398565b80601f016020809104026020016040519081016040528092919081815260200182805461180590614398565b80156118525780601f1061182757610100808354040283529160200191611852565b820191906000526020600020905b81548152906001019060200180831161183557829003601f168201915b5050505050815260200190600101906117ba565b5050505061243c565b90506000611984846040518060400160405280600681526020017f7365636f6e640000000000000000000000000000000000000000000000000000815250600b805480602002602001604051908101604052809291908181526020016000905b8282101561197b5783829060005260206000200180546118ee90614398565b80601f016020809104026020016040519081016040528092919081815260200182805461191a90614398565b80156119675780601f1061193c57610100808354040283529160200191611967565b820191906000526020600020905b81548152906001019060200180831161194a57829003601f168201915b5050505050815260200190600101906118cf565b5050505061243c565b90506000611a99856040518060400160405280600581526020017f7468697264000000000000000000000000000000000000000000000000000000815250600c805480602002602001604051908101604052809291908181526020016000905b82821015611a90578382906000526020600020018054611a0390614398565b80601f0160208091040260200160405190810160405280929190818152602001828054611a2f90614398565b8015611a7c5780601f10611a5157610100808354040283529160200191611a7c565b820191906000526020600020905b815481529060010190602001808311611a5f57829003601f168201915b5050505050815260200190600101906119e4565b5050505061243c565b90506000838383604051602001611ab293929190613ae9565b604051602081830303815290604052905080945050505050919050565b60606000611be4836040518060400160405280600f81526020017f74696d654f6641646a6563746976650000000000000000000000000000000000815250600f805480602002602001604051908101604052809291908181526020016000905b82821015611bdb578382906000526020600020018054611b4e90614398565b80601f0160208091040260200160405190810160405280929190818152602001828054611b7a90614398565b8015611bc75780601f10611b9c57610100808354040283529160200191611bc7565b820191906000526020600020905b815481529060010190602001808311611baa57829003601f168201915b505050505081526020019060010190611b2f565b5050505061243c565b9050611bef81612b2b565b90506000611d04846040518060400160405280600481526020017f74696d6500000000000000000000000000000000000000000000000000000000815250600d805480602002602001604051908101604052809291908181526020016000905b82821015611cfb578382906000526020600020018054611c6e90614398565b80601f0160208091040260200160405190810160405280929190818152602001828054611c9a90614398565b8015611ce75780601f10611cbc57610100808354040283529160200191611ce7565b820191906000526020600020905b815481529060010190602001808311611cca57829003601f168201915b505050505081526020019060010190611c4f565b5050505061243c565b905060008282604051602001611d1b929190613aba565b6040516020818303038152906040529050809350505050919050565b60606000611e4c836040518060400160405280600981526020017f61646a6563746976650000000000000000000000000000000000000000000000815250600e805480602002602001604051908101604052809291908181526020016000905b82821015611e43578382906000526020600020018054611db690614398565b80601f0160208091040260200160405190810160405280929190818152602001828054611de290614398565b8015611e2f5780601f10611e0457610100808354040283529160200191611e2f565b820191906000526020600020905b815481529060010190602001808311611e1257829003601f168201915b505050505081526020019060010190611d97565b5050505061243c565b90506000611f61846040518060400160405280600e81526020017f6f7468657241646a6563746976650000000000000000000000000000000000008152506011805480602002602001604051908101604052809291908181526020016000905b82821015611f58578382906000526020600020018054611ecb90614398565b80601f0160208091040260200160405190810160405280929190818152602001828054611ef790614398565b8015611f445780601f10611f1957610100808354040283529160200191611f44565b820191906000526020600020905b815481529060010190602001808311611f2757829003601f168201915b505050505081526020019060010190611eac565b5050505061243c565b90506000612076856040518060400160405280600c81526020017f73696e67756c61724e6f756e00000000000000000000000000000000000000008152506010805480602002602001604051908101604052809291908181526020016000905b8282101561206d578382906000526020600020018054611fe090614398565b80601f016020809104026020016040519081016040528092919081815260200182805461200c90614398565b80156120595780601f1061202e57610100808354040283529160200191612059565b820191906000526020600020905b81548152906001019060200180831161203c57829003601f168201915b505050505081526020019060010190611fc1565b5050505061243c565b9050600061218b866040518060400160405280600481526020017f76657262000000000000000000000000000000000000000000000000000000008152506012805480602002602001604051908101604052809291908181526020016000905b828210156121825783829060005260206000200180546120f590614398565b80601f016020809104026020016040519081016040528092919081815260200182805461212190614398565b801561216e5780601f106121435761010080835404028352916020019161216e565b820191906000526020600020905b81548152906001019060200180831161215157829003601f168201915b5050505050815260200190600101906120d6565b5050505061243c565b9050600061219885612ca7565b9050600081868686866040516020016121b5959493929190613b30565b6040516020818303038152906040529050809650505050505050919050565b606060006122e9836040518060400160405280600b81526020017f707265706f736974696f6e0000000000000000000000000000000000000000008152506013805480602002602001604051908101604052809291908181526020016000905b828210156122e057838290600052602060002001805461225390614398565b80601f016020809104026020016040519081016040528092919081815260200182805461227f90614398565b80156122cc5780601f106122a1576101008083540402835291602001916122cc565b820191906000526020600020905b8154815290600101906020018083116122af57829003601f168201915b505050505081526020019060010190612234565b5050505061243c565b90506122f481612b2b565b90506000612409846040518060400160405280601181526020017f6f7468657253696e67756c61724e6f756e0000000000000000000000000000008152506010805480602002602001604051908101604052809291908181526020016000905b8282101561240057838290600052602060002001805461237390614398565b80601f016020809104026020016040519081016040528092919081815260200182805461239f90614398565b80156123ec5780601f106123c1576101008083540402835291602001916123ec565b820191906000526020600020905b8154815290600101906020018083116123cf57829003601f168201915b505050505081526020019060010190612354565b5050505061243c565b905060008282604051602001612420929190613ba7565b6040516020818303038152906040529050809350505050919050565b606060006124728461244d8761297e565b60405160200161245e929190613a96565b604051602081830303815290604052612ed2565b90508251816124819190614444565b90508281815181106124bc577f4e487b7100000000000000000000000000000000000000000000000000000000600052603260045260246000fd5b60200260200101519150509392505050565b60606000825114156124f157604051806020016040528060008152509050612668565b6000604051806060016040528060408152602001614e4b6040913990506000600360028551612520919061418c565b61252a91906141e2565b60046125369190614213565b90506000602082612547919061418c565b67ffffffffffffffff811115612586577f4e487b7100000000000000000000000000000000000000000000000000000000600052604160045260246000fd5b6040519080825280601f01601f1916602001820160405280156125b85781602001600182028036833780820191505090505b509050818152600183018586518101602084015b81831015612627576003830192508251603f8160121c168501518253600182019150603f81600c1c168501518253600182019150603f8160061c168501518253600182019150603f81168501518253600182019150506125cc565b60038951066001811461264157600281146126515761265c565b613d3d60f01b600283035261265c565b603d60f81b60018303525b50505050508093505050505b919050565b612687828260405180602001604052806000815250612f05565b5050565b61269482611053565b6126d3576040517f08c379a00000000000000000000000000000000000000000000000000000000081526004016126ca90613fa3565b60405180910390fd5b806006600084815260200190815260200160002090805190602001906126fa92919061315d565b505050565b6001816000016000828254019250508190555050565b6127af83838360405160240161272d93929190613e45565b6040516020818303038152906040527fe3849f79000000000000000000000000000000000000000000000000000000007bffffffffffffffffffffffffffffffffffffffffffffffffffffffff19166020820180517bffffffffffffffffffffffffffffffffffffffffffffffffffffffff83818316178352505050506127b4565b505050565b60008151905060006a636f6e736f6c652e6c6f679050602083016000808483855afa5050505050565b505050565b505050565b60006128088473ffffffffffffffffffffffffffffffffffffffff16612f60565b15612971578373ffffffffffffffffffffffffffffffffffffffff1663150b7a026128316110bf565b8786866040518563ffffffff1660e01b81526004016128539493929190613d85565b602060405180830381600087803b15801561286d57600080fd5b505af192505050801561289e57506040513d601f19601f8201168201806040525081019061289b91906134a1565b60015b612921573d80600081146128ce576040519150601f19603f3d011682016040523d82523d6000602084013e6128d3565b606091505b50600081511415612919576040517f08c379a000000000000000000000000000000000000000000000000000000000815260040161291090613e83565b60405180910390fd5b805181602001fd5b63150b7a0260e01b7bffffffffffffffffffffffffffffffffffffffffffffffffffffffff1916817bffffffffffffffffffffffffffffffffffffffffffffffffffffffff191614915050612976565b600190505b949350505050565b606060008214156129c6576040518060400160405280600181526020017f30000000000000000000000000000000000000000000000000000000000000008152509050612b26565b600082905060005b600082146129f85780806129e1906143fb565b915050600a826129f191906141e2565b91506129ce565b60008167ffffffffffffffff811115612a3a577f4e487b7100000000000000000000000000000000000000000000000000000000600052604160045260246000fd5b6040519080825280601f01601f191660200182016040528015612a6c5781602001600182028036833780820191505090505b5090505b60008514612b1f57600182612a85919061426d565b9150600a85612a949190614444565b6030612aa0919061418c565b60f81b818381518110612adc577f4e487b7100000000000000000000000000000000000000000000000000000000600052603260045260246000fd5b60200101907effffffffffffffffffffffffffffffffffffffffffffffffffffffffffffff1916908160001a905350600a85612b1891906141e2565b9450612a70565b8093505050505b919050565b60606000829050606181600081518110612b6e577f4e487b7100000000000000000000000000000000000000000000000000000000600052603260045260246000fd5b602001015160f81c60f81b60f81c60ff1610158015612bd85750607a81600081518110612bc4577f4e487b7100000000000000000000000000000000000000000000000000000000600052603260045260246000fd5b602001015160f81c60f81b60f81c60ff1611155b15612c9e57602081600081518110612c19577f4e487b7100000000000000000000000000000000000000000000000000000000600052603260045260246000fd5b602001015160f81c60f81b60f81c612c3191906142a1565b60f81b81600081518110612c6e577f4e487b7100000000000000000000000000000000000000000000000000000000600052603260045260246000fd5b60200101907effffffffffffffffffffffffffffffffffffffffffffffffffffffffffffff1916908160001a9053505b80915050919050565b60606000829050606181600081518110612cea577f4e487b7100000000000000000000000000000000000000000000000000000000600052603260045260246000fd5b602001015160f81c60f81b60f81c60ff161480612d515750606581600081518110612d3e577f4e487b7100000000000000000000000000000000000000000000000000000000600052603260045260246000fd5b602001015160f81c60f81b60f81c60ff16145b80612da65750606881600081518110612d93577f4e487b7100000000000000000000000000000000000000000000000000000000600052603260045260246000fd5b602001015160f81c60f81b60f81c60ff16145b80612dfb5750606981600081518110612de8577f4e487b7100000000000000000000000000000000000000000000000000000000600052603260045260246000fd5b602001015160f81c60f81b60f81c60ff16145b80612e505750606f81600081518110612e3d577f4e487b7100000000000000000000000000000000000000000000000000000000600052603260045260246000fd5b602001015160f81c60f81b60f81c60ff16145b15612e93576040518060400160405280600281526020017f416e000000000000000000000000000000000000000000000000000000000000815250915050612ecd565b6040518060400160405280600181526020017f41000000000000000000000000000000000000000000000000000000000000008152509150505b919050565b600081604051602001612ee59190613a7f565b6040516020818303038152906040528051906020012060001c9050919050565b612f0f8383612f83565b612f1c60008484846127e7565b612f5b576040517f08c379a0000000000000000000000000000000000000000000000000000000008152600401612f5290613e83565b60405180910390fd5b505050565b6000808273ffffffffffffffffffffffffffffffffffffffff163b119050919050565b600073ffffffffffffffffffffffffffffffffffffffff168273ffffffffffffffffffffffffffffffffffffffff161415612ff3576040517f08c379a0000000000000000000000000000000000000000000000000000000008152600401612fea90613fc3565b60405180910390fd5b612ffc81611053565b1561303c576040517f08c379a000000000000000000000000000000000000000000000000000000000815260040161303390613ec3565b60405180910390fd5b613048600083836127dd565b6001600360008473ffffffffffffffffffffffffffffffffffffffff1673ffffffffffffffffffffffffffffffffffffffff1681526020019081526020016000206000828254613098919061418c565b92505081905550816002600083815260200190815260200160002060006101000a81548173ffffffffffffffffffffffffffffffffffffffff021916908373ffffffffffffffffffffffffffffffffffffffff160217905550808273ffffffffffffffffffffffffffffffffffffffff16600073ffffffffffffffffffffffffffffffffffffffff167fddf252ad1be2c89b69c2b068fc378daa952ba7f163c4a11628f55a4df523b3ef60405160405180910390a4613159600083836127e2565b5050565b82805461316990614398565b90600052602060002090601f01602090048101928261318b57600085556131d2565b82601f106131a457805160ff19168380011785556131d2565b828001600101855582156131d2579182015b828111156131d15782518255916020019190600101906131b6565b5b5090506131df91906131e3565b5090565b5b808211156131fc5760008160009055506001016131e4565b5090565b600061321361320e84614103565b6140de565b90508281526020810184848401111561322b57600080fd5b613236848285614356565b509392505050565b60008135905061324d81614dc9565b92915050565b60008135905061326281614de0565b92915050565b60008135905061327781614df7565b92915050565b60008151905061328c81614df7565b92915050565b600082601f8301126132a357600080fd5b81356132b3848260208601613200565b91505092915050565b6000813590506132cb81614e0e565b92915050565b6000602082840312156132e357600080fd5b60006132f18482850161323e565b91505092915050565b6000806040838503121561330d57600080fd5b600061331b8582860161323e565b925050602061332c8582860161323e565b9150509250929050565b60008060006060848603121561334b57600080fd5b60006133598682870161323e565b935050602061336a8682870161323e565b925050604061337b868287016132bc565b9150509250925092565b6000806000806080858703121561339b57600080fd5b60006133a98782880161323e565b94505060206133ba8782880161323e565b93505060406133cb878288016132bc565b925050606085013567ffffffffffffffff8111156133e857600080fd5b6133f487828801613292565b91505092959194509250565b6000806040838503121561341357600080fd5b60006134218582860161323e565b925050602061343285828601613253565b9150509250929050565b6000806040838503121561344f57600080fd5b600061345d8582860161323e565b925050602061346e858286016132bc565b9150509250929050565b60006020828403121561348a57600080fd5b600061349884828501613268565b91505092915050565b6000602082840312156134b357600080fd5b60006134c18482850161327d565b91505092915050565b6000602082840312156134dc57600080fd5b60006134ea848285016132bc565b91505092915050565b6134fc816142d5565b82525050565b61350b816142e7565b82525050565b600061351c82614149565b613526818561415f565b9350613536818560208601614365565b61353f81614531565b840191505092915050565b600061355582614154565b61355f8185614170565b935061356f818560208601614365565b61357881614531565b840191505092915050565b600061358e82614154565b6135988185614181565b93506135a8818560208601614365565b80840191505092915050565b600081546135c181614398565b6135cb8186614181565b945060018216600081146135e657600181146135f75761362a565b60ff1983168652818601935061362a565b61360085614134565b60005b8381101561362257815481890152600182019150602081019050613603565b838801955050505b50505092915050565b6000613640602583614181565b915061364b82614542565b602582019050919050565b6000613663603283614170565b915061366e82614591565b604082019050919050565b6000613686602583614170565b9150613691826145e0565b604082019050919050565b60006136a9601c83614170565b91506136b48261462f565b602082019050919050565b60006136cc600383614181565b91506136d782614658565b600382019050919050565b60006136ef602483614170565b91506136fa82614681565b604082019050919050565b6000613712601983614170565b915061371d826146d0565b602082019050919050565b6000613735602c83614170565b9150613740826146f9565b604082019050919050565b6000613758600383614181565b915061376382614748565b600382019050919050565b600061377b600183614181565b915061378682614771565b600182019050919050565b600061379e603883614170565b91506137a98261479a565b604082019050919050565b60006137c1602a83614170565b91506137cc826147e9565b604082019050919050565b60006137e4602983614170565b91506137ef82614838565b604082019050919050565b6000613807602e83614170565b915061381282614887565b604082019050919050565b600061382a607083614181565b9150613835826148d6565b607082019050919050565b600061384d605383614181565b915061385882614971565b605382019050919050565b6000613870605383614181565b915061387b826149e6565b605382019050919050565b6000613893600283614181565b915061389e82614a5b565b600282019050919050565b60006138b6600783614181565b91506138c182614a84565b600782019050919050565b60006138d9602083614170565b91506138e482614aad565b602082019050919050565b60006138fc603183614170565b915061390782614ad6565b604082019050919050565b600061391f602c83614170565b915061392a82614b25565b604082019050919050565b6000613942602683614170565b915061394d82614b74565b604082019050919050565b6000613965602f83614170565b915061397082614bc3565b604082019050919050565b6000613988600a83614181565b915061399382614c12565b600a82019050919050565b60006139ab602183614170565b91506139b682614c3b565b604082019050919050565b60006139ce601d83614181565b91506139d982614c8a565b601d82019050919050565b60006139f1603183614170565b91506139fc82614cb3565b604082019050919050565b6000613a14602083614170565b9150613a1f82614d02565b602082019050919050565b6000613a37600683614181565b9150613a4282614d2b565b600682019050919050565b6000613a5a605383614181565b9150613a6582614d54565b605382019050919050565b613a798161433f565b82525050565b6000613a8b8284613583565b915081905092915050565b6000613aa28285613583565b9150613aae8284613583565b91508190509392505050565b6000613ac68285613583565b9150613ad18261376e565b9150613add8284613583565b91508190509392505050565b6000613af58286613583565b9150613b008261376e565b9150613b0c8285613583565b9150613b178261376e565b9150613b238284613583565b9150819050949350505050565b6000613b3c8288613583565b9150613b478261376e565b9150613b538287613583565b9150613b5e8261376e565b9150613b6a8286613583565b9150613b758261376e565b9150613b818285613583565b9150613b8c8261376e565b9150613b988284613583565b91508190509695505050505050565b6000613bb38285613583565b9150613bbe8261376e565b9150613bc98261374b565b9150613bd48261376e565b9150613be08284613583565b9150613beb826136bf565b91508190509392505050565b6000613c0382896135b4565b9150613c0f8288613583565b9150613c1b82876135b4565b9150613c278286613583565b9150613c338285613583565b9150613c3f8284613583565b9150613c4a82613a2a565b9150819050979650505050505050565b6000613c6582613633565b9150613c718284613583565b915081905092915050565b6000613c8782613840565b9150613c938284613583565b9150613c9e826138a9565b915081905092915050565b6000613cb482613863565b9150613cc08284613583565b9150613ccb826138a9565b915081905092915050565b6000613ce18261397b565b9150613ced8285613583565b9150613cf88261381d565b9150613d048284613583565b9150613d0f82613886565b91508190509392505050565b6000613d26826139c1565b9150613d328284613583565b915081905092915050565b6000613d4882613a4d565b9150613d548284613583565b9150613d5f826138a9565b915081905092915050565b6000602082019050613d7f60008301846134f3565b92915050565b6000608082019050613d9a60008301876134f3565b613da760208301866134f3565b613db46040830185613a70565b8181036060830152613dc68184613511565b905095945050505050565b6000606082019050613de660008301866134f3565b613df36020830185613a70565b613e006040830184613a70565b949350505050565b6000602082019050613e1d6000830184613502565b92915050565b60006020820190508181036000830152613e3d818461354a565b905092915050565b60006060820190508181036000830152613e5f818661354a565b9050613e6e6020830185613a70565b613e7b60408301846134f3565b949350505050565b60006020820190508181036000830152613e9c81613656565b9050919050565b60006020820190508181036000830152613ebc81613679565b9050919050565b60006020820190508181036000830152613edc8161369c565b9050919050565b60006020820190508181036000830152613efc816136e2565b9050919050565b60006020820190508181036000830152613f1c81613705565b9050919050565b60006020820190508181036000830152613f3c81613728565b9050919050565b60006020820190508181036000830152613f5c81613791565b9050919050565b60006020820190508181036000830152613f7c816137b4565b9050919050565b60006020820190508181036000830152613f9c816137d7565b9050919050565b60006020820190508181036000830152613fbc816137fa565b9050919050565b60006020820190508181036000830152613fdc816138cc565b9050919050565b60006020820190508181036000830152613ffc816138ef565b9050919050565b6000602082019050818103600083015261401c81613912565b9050919050565b6000602082019050818103600083015261403c81613935565b9050919050565b6000602082019050818103600083015261405c81613958565b9050919050565b6000602082019050818103600083015261407c8161399e565b9050919050565b6000602082019050818103600083015261409c816139e4565b9050919050565b600060208201905081810360008301526140bc81613a07565b9050919050565b60006020820190506140d86000830184613a70565b92915050565b60006140e86140f9565b90506140f482826143ca565b919050565b6000604051905090565b600067ffffffffffffffff82111561411e5761411d614502565b5b61412782614531565b9050602081019050919050565b60008190508160005260206000209050919050565b600081519050919050565b600081519050919050565b600082825260208201905092915050565b600082825260208201905092915050565b600081905092915050565b60006141978261433f565b91506141a28361433f565b9250827fffffffffffffffffffffffffffffffffffffffffffffffffffffffffffffffff038211156141d7576141d6614475565b5b828201905092915050565b60006141ed8261433f565b91506141f88361433f565b925082614208576142076144a4565b5b828204905092915050565b600061421e8261433f565b91506142298361433f565b9250817fffffffffffffffffffffffffffffffffffffffffffffffffffffffffffffffff048311821515161561426257614261614475565b5b828202905092915050565b60006142788261433f565b91506142838361433f565b92508282101561429657614295614475565b5b828203905092915050565b60006142ac82614349565b91506142b783614349565b9250828210156142ca576142c9614475565b5b828203905092915050565b60006142e08261431f565b9050919050565b60008115159050919050565b60007fffffffff0000000000000000000000000000000000000000000000000000000082169050919050565b600073ffffffffffffffffffffffffffffffffffffffff82169050919050565b6000819050919050565b600060ff82169050919050565b82818337600083830152505050565b60005b83811015614383578082015181840152602081019050614368565b83811115614392576000848401525b50505050565b600060028204905060018216806143b057607f821691505b602082108114156143c4576143c36144d3565b5b50919050565b6143d382614531565b810181811067ffffffffffffffff821117156143f2576143f1614502565b5b80604052505050565b60006144068261433f565b91507fffffffffffffffffffffffffffffffffffffffffffffffffffffffffffffffff82141561443957614438614475565b5b600182019050919050565b600061444f8261433f565b915061445a8361433f565b92508261446a576144696144a4565b5b828206905092915050565b7f4e487b7100000000000000000000000000000000000000000000000000000000600052601160045260246000fd5b7f4e487b7100000000000000000000000000000000000000000000000000000000600052601260045260246000fd5b7f4e487b7100000000000000000000000000000000000000000000000000000000600052602260045260246000fd5b7f4e487b7100000000000000000000000000000000000000000000000000000000600052604160045260246000fd5b6000601f19601f8301169050919050565b7f68747470733a2f2f6e6674707265766965772e30786465762e636f6465732f3f60008201527f636f64653d000000000000000000000000000000000000000000000000000000602082015250565b7f4552433732313a207472616e7366657220746f206e6f6e20455243373231526560008201527f63656976657220696d706c656d656e7465720000000000000000000000000000602082015250565b7f4552433732313a207472616e736665722066726f6d20696e636f72726563742060008201527f6f776e6572000000000000000000000000000000000000000000000000000000602082015250565b7f4552433732313a20746f6b656e20616c7265616479206d696e74656400000000600082015250565b7fe380820000000000000000000000000000000000000000000000000000000000600082015250565b7f4552433732313a207472616e7366657220746f20746865207a65726f2061646460008201527f7265737300000000000000000000000000000000000000000000000000000000602082015250565b7f4552433732313a20617070726f766520746f2063616c6c657200000000000000600082015250565b7f4552433732313a206f70657261746f7220717565727920666f72206e6f6e657860008201527f697374656e7420746f6b656e0000000000000000000000000000000000000000602082015250565b7f7468650000000000000000000000000000000000000000000000000000000000600082015250565b7f2000000000000000000000000000000000000000000000000000000000000000600082015250565b7f4552433732313a20617070726f76652063616c6c6572206973206e6f74206f7760008201527f6e6572206e6f7220617070726f76656420666f7220616c6c0000000000000000602082015250565b7f4552433732313a2062616c616e636520717565727920666f7220746865207a6560008201527f726f206164647265737300000000000000000000000000000000000000000000602082015250565b7f4552433732313a206f776e657220717565727920666f72206e6f6e657869737460008201527f656e7420746f6b656e0000000000000000000000000000000000000000000000602082015250565b7f45524337323155524953746f726167653a2055524920736574206f66206e6f6e60008201527f6578697374656e7420746f6b656e000000000000000000000000000000000000602082015250565b7f222c20226465736372697074696f6e223a20224120686967686c79206163636c60008201527f61696d6564204e465420636f6c6c656374696f6e2066726f6d20456c6563747260208201527f69632053686565702e222c2022696d616765223a2022646174613a696d61676560408201527f2f7376672b786d6c3b6261736536342c00000000000000000000000000000000606082015250565b7f3c7465787420783d273530252720793d273430252720636c6173733d2762617360008201527f652720646f6d696e616e742d626173656c696e653d276d6964646c652720746560208201527f78742d616e63686f723d276d6964646c65273e00000000000000000000000000604082015250565b7f3c7465787420783d273530252720793d273630252720636c6173733d2762617360008201527f652720646f6d696e616e742d626173656c696e653d276d6964646c652720746560208201527f78742d616e63686f723d276d6964646c65273e00000000000000000000000000604082015250565b7f227d000000000000000000000000000000000000000000000000000000000000600082015250565b7f3c2f746578743e00000000000000000000000000000000000000000000000000600082015250565b7f4552433732313a206d696e7420746f20746865207a65726f2061646472657373600082015250565b7f45524337323155524953746f726167653a2055524920717565727920666f722060008201527f6e6f6e6578697374656e7420746f6b656e000000000000000000000000000000602082015250565b7f4552433732313a20617070726f76656420717565727920666f72206e6f6e657860008201527f697374656e7420746f6b656e0000000000000000000000000000000000000000602082015250565b7f456163682061646472657373206d6179206f6e6c79206f776e206f6e6520737560008201527f7368694e46540000000000000000000000000000000000000000000000000000602082015250565b7f4552433732314d657461646174613a2055524920717565727920666f72206e6f60008201527f6e6578697374656e7420746f6b656e0000000000000000000000000000000000602082015250565b7f7b226e616d65223a202200000000000000000000000000000000000000000000600082015250565b7f4552433732313a20617070726f76616c20746f2063757272656e74206f776e6560008201527f7200000000000000000000000000000000000000000000000000000000000000602082015250565b7f646174613a6170706c69636174696f6e2f6a736f6e3b6261736536342c000000600082015250565b7f4552433732313a207472616e736665722063616c6c6572206973206e6f74206f60008201527f776e6572206e6f7220617070726f766564000000000000000000000000000000602082015250565b7f4f6e6c79203336352073757368694e46542063616e206265206d696e74656421600082015250565b7f3c2f7376673e0000000000000000000000000000000000000000000000000000600082015250565b7f3c7465787420783d273530252720793d273530252720636c6173733d2762617360008201527f652720646f6d696e616e742d626173656c696e653d276d6964646c652720746560208201527f78742d616e63686f723d276d6964646c65273e00000000000000000000000000604082015250565b614dd2816142d5565b8114614ddd57600080fd5b50565b614de9816142e7565b8114614df457600080fd5b50565b614e00816142f3565b8114614e0b57600080fd5b50565b614e178161433f565b8114614e2257600080fd5b5056fe416e204e465420772f20494420257320686173206265656e206d696e74656420746f2025734142434445464748494a4b4c4d4e4f505152535455565758595a6162636465666768696a6b6c6d6e6f707172737475767778797a303132333435363738392b2fa26469706673582212204a68dc9324dd79b30e278907d4a271b032a51d697218cdb72ef18595668f50d264736f6c634300080400333c73766720786d6c6e733d27687474703a2f2f7777772e77332e6f72672f323030302f73766727207072657365727665417370656374526174696f3d27784d696e594d696e206d656574272076696577426f783d273020302036343020343830273e3c7374796c653e2e62617365207b2066696c6c3a20626c61636b3b20666f6e742d66616d696c793a2073657269663b20666f6e742d73697a653a20323870783b207d3c2f7374796c653e3c726563742077696474683d273130302527206865696768743d2731303025272066696c6c3d2775726c28237761766529272066696c6c2d6f7061636974793d27302e36272f3e3c646566733e3c7061747465726e2069643d27776176652720783d27302720793d2730272077696474683d27353627206865696768743d27323827207061747465726e556e6974733d277573657253706163654f6e557365273e3c706174682066696c6c3d272720643d274d35362032367632682d372e373563322e332d312e323720342e39342d3220372e37352d327a6d2d32362032613220322030203120302d342030682d342e30394132352e39382032352e39382030203020302030203136762d32632e3637203020312e33342e30322032202e3037563134613220322030203020302d322d32762d326134203420302030203120332e393820332e362032382e30392032382e303920302030203120322e382d332e38364138203820302030203020302036563461392e393920392e393920302030203120382e313720342e3233632e39342d2e393520312e39362d312e383320332e30332d322e36334131332e39382031332e39382030203020302030203068372e3735633220312e3120332e373320322e363320352e3120342e343520312e31322d2e373220322e332d312e333720332e35332d312e39334132302e312032302e312030203020302031342e3238203068322e37632e34352e35362e383820312e313420312e323920312e373420312e332d2e343820322e36332d2e383720342d312e31352d2e31312d2e322d2e32332d2e342d2e33362d2e3539483236762e30376132382e342032382e3420302030203120342030563068342e30396c2d2e33372e353963312e33382e323820322e37322e363720342e303120312e31352e342d2e362e38342d312e313820312e332d312e373468322e36396132302e312032302e312030203020302d322e3120322e353263312e32332e353620322e343120312e3220332e353420312e39334131362e30382031362e30382030203020312034382e32352030483536632d342e353820302d382e363520322e322d31312e3220352e3620312e30372e3820322e303920312e363820332e303320322e363341392e393920392e393920302030203120353620347632613820382030203020302d362e373720332e373463312e303320312e3220312e393720322e3520322e373920332e3836413420342030203020312035362031307632613220322030203020302d3220322e30372032382e342032382e3420302030203120322d2e30377632632d392e3220302d31372e3320342e37382d32312e39312031324833307a4d372e37352032384830762d3263322e3831203020352e34362e373320372e373520327a4d35362032307632632d352e3620302d31302e363520322e332d31342e32382036682d322e3763342e30342d342e38392031302e31352d382031362e39382d387a6d2d33392e30332038682d322e36394331302e36352032342e3320352e362032322030203232762d3263362e383320302031322e393420332e31312031362e393720387a6d31352e30312d2e346132382e30392032382e303920302030203120322e382d332e3836203820382030203020302d31332e3535203063312e303320312e3220312e393720322e3520322e373920332e38366134203420302030203120372e393620307a6d31342e32392d31312e383663312e332d2e343820322e36332d2e383720342d312e31356132352e39392032352e39392030203020302d34342e3535203063312e33382e323820322e37322e363720342e303120312e31356132312e39382032312e39382030203020312033362e353420307a6d2d352e343320322e373163312e31332d2e373220322e332d312e333720332e35342d312e39336131392e39382031392e39382030203020302d33322e3736203063312e32332e353620322e343120312e3220332e353420312e39336131352e39382031352e39382030203020312032352e363820307a6d2d342e363720332e3738632e39342d2e393520312e39362d312e383320332e30332d322e36336131332e39382031332e39382030203020302d32322e34203063312e30372e3820322e303920312e363820332e303320322e363361392e393920392e39392030203020312031362e333420307a272f3e3c2f7061747465726e3e3c2f646566733e3c67207374726f6b652d77696474683d2733273e3c6c696e65207374726f6b653d2723303030272079323d273332332e3737373238272078323d273536322e3237343633272079313d273331312e3439393939272078313d273536322e3237343633272066696c6c3d276e6f6e65272f3e3c6c696e65207472616e73666f726d3d27726f74617465282d3930203535372e363339203332322e3433392927207374726f6b653d2723303030272079323d273332382e3537373731272078323d273535372e36333935272079313d273331362e3330303431272078313d273535372e36333935272066696c6c3d276e6f6e65272f3e3c2f673e3c67207472616e73666f726d3d27726f74617465282d3138302039322e363339203136322e3633392927207374726f6b652d77696474683d2733273e3c6c696e65207374726f6b653d2723303030272079323d273136382e37373733272078323d2739372e3237343138272079313d273135362e3530303031272078313d2739372e3237343138272066696c6c3d276e6f6e65272f3e3c6c696e65207472616e73666f726d3d27726f74617465282d39302039322e363339203136372e3433392927207374726f6b653d2723303030272079323d273137332e3537373732272078323d2739322e3633393036272079313d273136312e3330303432272078313d2739322e3633393036272066696c6c3d276e6f6e65272f3e3c2f673e",
  "linkReferences": {},
  "deployedLinkReferences": {}
}