{
  "_format": "hh-sol-artifact-1",
  "contractName": "sushiNFT",
  "sourceName": "contracts/sushiNFT.sol",
  "abi": [
    {
      "inputs": [],
      "stateMutability": "nonpayable",
      "type": "constructor"
    },
    {
      "anonymous": false,
      "inputs": [
        {
          "indexed": true,
          "internalType": "address",
          "name": "owner",
          "type": "address"
        },
        {
          "indexed": true,
          "internalType": "address",
          "name": "approved",
          "type": "address"
        },
        {
          "indexed": true,
          "internalType": "uint256",
          "name": "tokenId",
          "type": "uint256"
        }
      ],
      "name": "Approval",
      "type": "event"
    },
    {
      "anonymous": false,
      "inputs": [
        {
          "indexed": true,
          "internalType": "address",
          "name": "owner",
          "type": "address"
        },
        {
          "indexed": true,
          "internalType": "address",
          "name": "operator",
          "type": "address"
        },
        {
          "indexed": false,
          "internalType": "bool",
          "name": "approved",
          "type": "bool"
        }
      ],
      "name": "ApprovalForAll",
      "type": "event"
    },
    {
      "anonymous": false,
      "inputs": [
        {
          "indexed": false,
          "internalType": "address",
          "name": "sender",
          "type": "address"
        },
        {
          "indexed": false,
          "internalType": "uint256",
          "name": "tokenId",
          "type": "uint256"
        },
        {
          "indexed": false,
          "internalType": "uint256",
          "name": "numberOfNFTs",
          "type": "uint256"
        }
      ],
      "name": "NewSushiNFTMinted",
      "type": "event"
    },
    {
      "anonymous": false,
      "inputs": [
        {
          "indexed": true,
          "internalType": "address",
          "name": "from",
          "type": "address"
        },
        {
          "indexed": true,
          "internalType": "address",
          "name": "to",
          "type": "address"
        },
        {
          "indexed": true,
          "internalType": "uint256",
          "name": "tokenId",
          "type": "uint256"
        }
      ],
      "name": "Transfer",
      "type": "event"
    },
    {
      "inputs": [
        {
          "internalType": "address",
          "name": "to",
          "type": "address"
        },
        {
          "internalType": "uint256",
          "name": "tokenId",
          "type": "uint256"
        }
      ],
      "name": "approve",
      "outputs": [],
      "stateMutability": "nonpayable",
      "type": "function"
    },
    {
      "inputs": [
        {
          "internalType": "address",
          "name": "owner",
          "type": "address"
        }
      ],
      "name": "balanceOf",
      "outputs": [
        {
          "internalType": "uint256",
          "name": "",
          "type": "uint256"
        }
      ],
      "stateMutability": "view",
      "type": "function"
    },
    {
      "inputs": [
        {
          "internalType": "uint256",
          "name": "tokenId",
          "type": "uint256"
        }
      ],
      "name": "getApproved",
      "outputs": [
        {
          "internalType": "address",
          "name": "",
          "type": "address"
        }
      ],
      "stateMutability": "view",
      "type": "function"
    },
    {
      "inputs": [],
      "name": "howManyNFTs",
      "outputs": [
        {
          "internalType": "uint256",
          "name": "",
          "type": "uint256"
        }
      ],
      "stateMutability": "view",
      "type": "function"
    },
    {
      "inputs": [
        {
          "internalType": "address",
          "name": "owner",
          "type": "address"
        },
        {
          "internalType": "address",
          "name": "operator",
          "type": "address"
        }
      ],
      "name": "isApprovedForAll",
      "outputs": [
        {
          "internalType": "bool",
          "name": "",
          "type": "bool"
        }
      ],
      "stateMutability": "view",
      "type": "function"
    },
    {
      "inputs": [],
      "name": "makeAnEpicNFT",
      "outputs": [],
      "stateMutability": "nonpayable",
      "type": "function"
    },
    {
      "inputs": [],
      "name": "name",
      "outputs": [
        {
          "internalType": "string",
          "name": "",
          "type": "string"
        }
      ],
      "stateMutability": "view",
      "type": "function"
    },
    {
      "inputs": [
        {
          "internalType": "uint256",
          "name": "tokenId",
          "type": "uint256"
        }
      ],
      "name": "ownerOf",
      "outputs": [
        {
          "internalType": "address",
          "name": "",
          "type": "address"
        }
      ],
      "stateMutability": "view",
      "type": "function"
    },
    {
      "inputs": [
        {
          "internalType": "uint256",
          "name": "tokenId",
          "type": "uint256"
        }
      ],
      "name": "pickRandomFirstWord",
      "outputs": [
        {
          "internalType": "string",
          "name": "",
          "type": "string"
        }
      ],
      "stateMutability": "view",
      "type": "function"
    },
    {
      "inputs": [
        {
          "internalType": "uint256",
          "name": "tokenId",
          "type": "uint256"
        }
      ],
      "name": "pickRandomSecondWord",
      "outputs": [
        {
          "internalType": "string",
          "name": "",
          "type": "string"
        }
      ],
      "stateMutability": "view",
      "type": "function"
    },
    {
      "inputs": [
        {
          "internalType": "uint256",
          "name": "tokenId",
          "type": "uint256"
        }
      ],
      "name": "pickRandomThirdWord",
      "outputs": [
        {
          "internalType": "string",
          "name": "",
          "type": "string"
        }
      ],
      "stateMutability": "view",
      "type": "function"
    },
    {
      "inputs": [
        {
          "internalType": "address",
          "name": "from",
          "type": "address"
        },
        {
          "internalType": "address",
          "name": "to",
          "type": "address"
        },
        {
          "internalType": "uint256",
          "name": "tokenId",
          "type": "uint256"
        }
      ],
      "name": "safeTransferFrom",
      "outputs": [],
      "stateMutability": "nonpayable",
      "type": "function"
    },
    {
      "inputs": [
        {
          "internalType": "address",
          "name": "from",
          "type": "address"
        },
        {
          "internalType": "address",
          "name": "to",
          "type": "address"
        },
        {
          "internalType": "uint256",
          "name": "tokenId",
          "type": "uint256"
        },
        {
          "internalType": "bytes",
          "name": "_data",
          "type": "bytes"
        }
      ],
      "name": "safeTransferFrom",
      "outputs": [],
      "stateMutability": "nonpayable",
      "type": "function"
    },
    {
      "inputs": [
        {
          "internalType": "address",
          "name": "operator",
          "type": "address"
        },
        {
          "internalType": "bool",
          "name": "approved",
          "type": "bool"
        }
      ],
      "name": "setApprovalForAll",
      "outputs": [],
      "stateMutability": "nonpayable",
      "type": "function"
    },
    {
      "inputs": [
        {
          "internalType": "bytes4",
          "name": "interfaceId",
          "type": "bytes4"
        }
      ],
      "name": "supportsInterface",
      "outputs": [
        {
          "internalType": "bool",
          "name": "",
          "type": "bool"
        }
      ],
      "stateMutability": "view",
      "type": "function"
    },
    {
      "inputs": [],
      "name": "symbol",
      "outputs": [
        {
          "internalType": "string",
          "name": "",
          "type": "string"
        }
      ],
      "stateMutability": "view",
      "type": "function"
    },
    {
      "inputs": [
        {
          "internalType": "uint256",
          "name": "tokenId",
          "type": "uint256"
        }
      ],
      "name": "tokenURI",
      "outputs": [
        {
          "internalType": "string",
          "name": "",
          "type": "string"
        }
      ],
      "stateMutability": "view",
      "type": "function"
    },
    {
      "inputs": [
        {
          "internalType": "address",
          "name": "from",
          "type": "address"
        },
        {
          "internalType": "address",
          "name": "to",
          "type": "address"
        },
        {
          "internalType": "uint256",
          "name": "tokenId",
          "type": "uint256"
        }
      ],
      "name": "transferFrom",
      "outputs": [],
      "stateMutability": "nonpayable",
      "type": "function"
    }
  ],
  "bytecode": "0x608060405260405180610960016040528061092681526020016200539f6109269139600890805190602001906200003892919062000f7e565b506040518061020001604052806040518060400160405280600981526020017f44656c6963696f7573000000000000000000000000000000000000000000000081525081526020016040518060400160405280600a81526020017f4170706574697a696e670000000000000000000000000000000000000000000081525081526020016040518060400160405280600a81526020017f44656c65637461626c650000000000000000000000000000000000000000000081525081526020016040518060400160405280600a81526020017f44656c6967687466756c0000000000000000000000000000000000000000000081525081526020016040518060400160405280600881526020017f456e746963696e6700000000000000000000000000000000000000000000000081525081526020016040518060400160405280600981526020017f457871756973697465000000000000000000000000000000000000000000000081525081526020016040518060400160405280600881526020017f48656176656e6c7900000000000000000000000000000000000000000000000081525081526020016040518060400160405280600881526020017f4c757363696f757300000000000000000000000000000000000000000000000081525081526020016040518060400160405280600881526020017f506c656173616e7400000000000000000000000000000000000000000000000081525081526020016040518060400160405280600481526020017f526963680000000000000000000000000000000000000000000000000000000081525081526020016040518060400160405280600681526020017f5361766f7279000000000000000000000000000000000000000000000000000081525081526020016040518060400160405280600581526020017f537069637900000000000000000000000000000000000000000000000000000081525081526020016040518060400160405280600581526020017f537765657400000000000000000000000000000000000000000000000000000081525081526020016040518060400160405280600581526020017f546173747900000000000000000000000000000000000000000000000000000081525081526020016040518060400160405280600881526020017f54656d7074696e6700000000000000000000000000000000000000000000000081525081526020016040518060400160405280600581526020017f59756d6d790000000000000000000000000000000000000000000000000000008152508152506009906010620004059291906200100f565b50604051806103c001604052806040518060400160405280600381526020017f416869000000000000000000000000000000000000000000000000000000000081525081526020016040518060400160405280600381526020017f416a69000000000000000000000000000000000000000000000000000000000081525081526020016040518060400160405280600681526020017f416d61656269000000000000000000000000000000000000000000000000000081525081526020016040518060400160405280600581526020017f416e61676f00000000000000000000000000000000000000000000000000000081525081526020016040518060400160405280600681526020017f416f79616769000000000000000000000000000000000000000000000000000081525081526020016040518060400160405280600681526020017f42696e63686f000000000000000000000000000000000000000000000000000081525081526020016040518060400160405280600681526020017f4b617473756f000000000000000000000000000000000000000000000000000081525081526020016040518060400160405280600381526020017f456269000000000000000000000000000000000000000000000000000000000081525081526020016040518060400160405280600781526020017f48616d616368690000000000000000000000000000000000000000000000000081525081526020016040518060400160405280600b81526020017f48616d61636869546f726f00000000000000000000000000000000000000000081525081526020016040518060400160405280600681526020017f486972616d65000000000000000000000000000000000000000000000000000081525081526020016040518060400160405280600781526020017f486f6b696761690000000000000000000000000000000000000000000000000081525081526020016040518060400160405280600681526020017f486f74617465000000000000000000000000000000000000000000000000000081525081526020016040518060400160405280600381526020017f496b61000000000000000000000000000000000000000000000000000000000081525081526020016040518060400160405280600581526020017f496b75726100000000000000000000000000000000000000000000000000000081525081526020016040518060400160405280600681526020017f497761736869000000000000000000000000000000000000000000000000000081525081526020016040518060400160405280600481526020017f4b616e690000000000000000000000000000000000000000000000000000000081525081526020016040518060400160405280600881526020017f4b616e706163686900000000000000000000000000000000000000000000000081525081526020016040518060400160405280600681526020017f4d616775726f000000000000000000000000000000000000000000000000000081525081526020016040518060400160405280600481526020017f536162610000000000000000000000000000000000000000000000000000000081525081526020016040518060400160405280600481526020017f53616b650000000000000000000000000000000000000000000000000000000081525081526020016040518060400160405280600881526020017f53616b65546f726f00000000000000000000000000000000000000000000000081525081526020016040518060400160405280600381526020017f546169000000000000000000000000000000000000000000000000000000000081525081526020016040518060400160405280600481526020017f54616b6f0000000000000000000000000000000000000000000000000000000081525081526020016040518060400160405280600681526020017f54616d61676f000000000000000000000000000000000000000000000000000081525081526020016040518060400160405280600481526020017f546f726f0000000000000000000000000000000000000000000000000000000081525081526020016040518060400160405280600881526020017f547375627567616900000000000000000000000000000000000000000000000081525081526020016040518060400160405280600781526020017f556d694d6173750000000000000000000000000000000000000000000000000081525081526020016040518060400160405280600581526020017f556e61676900000000000000000000000000000000000000000000000000000081525081526020016040518060400160405280600381526020017f556e690000000000000000000000000000000000000000000000000000000000815250815250600a90601e62000b0c92919062001076565b506040518061016001604052806040518060400160405280600a81526020017f4d616b695f53757368690000000000000000000000000000000000000000000081525081526020016040518060400160405280600b81526020017f47756e6b616e5f4d616b6900000000000000000000000000000000000000000081525081526020016040518060400160405280600681526020017f54656d616b69000000000000000000000000000000000000000000000000000081525081526020016040518060400160405280600a81526020017f4e6172655f53757368690000000000000000000000000000000000000000000081525081526020016040518060400160405280600681526020017f4e6967697269000000000000000000000000000000000000000000000000000081525081526020016040518060400160405280600a81526020017f4f7368695f53757368690000000000000000000000000000000000000000000081525081526020016040518060400160405280600a81526020017f536173615f53757368690000000000000000000000000000000000000000000081525081526020016040518060400160405280600e81526020017f4b616b696e6f68615f537573686900000000000000000000000000000000000081525081526020016040518060400160405280600681526020017f54656d617269000000000000000000000000000000000000000000000000000081525081526020016040518060400160405280600e81526020017f43686972617368695f537573686900000000000000000000000000000000000081525081526020016040518060400160405280600b81526020017f496e6172695f5375736869000000000000000000000000000000000000000000815250815250600b90600b62000db2929190620010dd565b5034801562000dc057600080fd5b506040518060400160405280600881526020017f73757368694e46540000000000000000000000000000000000000000000000008152506040518060400160405280600581526020017f5355534849000000000000000000000000000000000000000000000000000000815250816000908051906020019062000e4592919062000f7e565b50806001908051906020019062000e5e92919062000f7e565b50505062000eac6040518060400160405280601d81526020017f73757368694e465420636f6e747261637420696e697469616c697a656400000081525062000eb260201b6200122d1760201c565b620012fe565b62000f528160405160240162000ec9919062001212565b6040516020818303038152906040527f41304fac000000000000000000000000000000000000000000000000000000007bffffffffffffffffffffffffffffffffffffffffffffffffffffffff19166020820180517bffffffffffffffffffffffffffffffffffffffffffffffffffffffff838183161783525050505062000f5560201b60201c565b50565b60008151905060006a636f6e736f6c652e6c6f679050602083016000808483855afa5050505050565b82805462000f8c9062001288565b90600052602060002090601f01602090048101928262000fb0576000855562000ffc565b82601f1062000fcb57805160ff191683800117855562000ffc565b8280016001018555821562000ffc579182015b8281111562000ffb57825182559160200191906001019062000fde565b5b5090506200100b919062001144565b5090565b82805482825590600052602060002090810192821562001063579160200282015b82811115620010625782518290805190602001906200105192919062000f7e565b509160200191906001019062001030565b5b50905062001072919062001163565b5090565b828054828255906000526020600020908101928215620010ca579160200282015b82811115620010c9578251829080519060200190620010b892919062000f7e565b509160200191906001019062001097565b5b509050620010d9919062001163565b5090565b82805482825590600052602060002090810192821562001131579160200282015b82811115620011305782518290805190602001906200111f92919062000f7e565b5091602001919060010190620010fe565b5b50905062001140919062001163565b5090565b5b808211156200115f57600081600090555060010162001145565b5090565b5b808211156200118757600081816200117d91906200118b565b5060010162001164565b5090565b508054620011999062001288565b6000825580601f10620011ad5750620011ce565b601f016020900490600052602060002090810190620011cd919062001144565b5b50565b6000620011de8262001236565b620011ea818562001241565b9350620011fc81856020860162001252565b6200120781620012ed565b840191505092915050565b600060208201905081810360008301526200122e8184620011d1565b905092915050565b600081519050919050565b600082825260208201905092915050565b60005b838110156200127257808201518184015260208101905062001255565b8381111562001282576000848401525b50505050565b60006002820490506001821680620012a157607f821691505b60208210811415620012b857620012b7620012be565b5b50919050565b7f4e487b7100000000000000000000000000000000000000000000000000000000600052602260045260246000fd5b6000601f19601f8301169050919050565b614091806200130e6000396000f3fe608060405234801561001057600080fd5b50600436106101165760003560e01c806377ec4ac0116100a2578063b88d4fde11610071578063b88d4fde14610305578063c575757a14610321578063c87b56dd14610351578063de9d132f14610381578063e985e9c51461038b57610116565b806377ec4ac01461027d57806395d89b411461029b578063a22cb465146102b9578063b187301f146102d557610116565b806323b872dd116100e957806323b872dd146101b55780632de38d68146101d157806342842e0e146102015780636352211e1461021d57806370a082311461024d57610116565b806301ffc9a71461011b57806306fdde031461014b578063081812fc14610169578063095ea7b314610199575b600080fd5b6101356004803603810190610130919061263a565b6103bb565b6040516101429190612f9f565b60405180910390f35b61015361049d565b6040516101609190612fba565b60405180910390f35b610183600480360381019061017e919061268c565b61052f565b6040516101909190612f01565b60405180910390f35b6101b360048036038101906101ae91906125fe565b6105b4565b005b6101cf60048036038101906101ca91906124f8565b6106cc565b005b6101eb60048036038101906101e6919061268c565b61072c565b6040516101f89190612fba565b60405180910390f35b61021b600480360381019061021691906124f8565b61084a565b005b6102376004803603810190610232919061268c565b61086a565b6040516102449190612f01565b60405180910390f35b61026760048036038101906102629190612493565b61091c565b604051610274919061325a565b60405180910390f35b6102856109d4565b604051610292919061325a565b60405180910390f35b6102a36109e5565b6040516102b09190612fba565b60405180910390f35b6102d360048036038101906102ce91906125c2565b610a77565b005b6102ef60048036038101906102ea919061268c565b610a8d565b6040516102fc9190612fba565b60405180910390f35b61031f600480360381019061031a9190612547565b610bab565b005b61033b6004803603810190610336919061268c565b610c0d565b6040516103489190612fba565b60405180910390f35b61036b6004803603810190610366919061268c565b610d2b565b6040516103789190612fba565b60405180910390f35b610389610e7d565b005b6103a560048036038101906103a091906124bc565b611199565b6040516103b29190612f9f565b60405180910390f35b60007f80ac58cd000000000000000000000000000000000000000000000000000000007bffffffffffffffffffffffffffffffffffffffffffffffffffffffff1916827bffffffffffffffffffffffffffffffffffffffffffffffffffffffff1916148061048657507f5b5e139f000000000000000000000000000000000000000000000000000000007bffffffffffffffffffffffffffffffffffffffffffffffffffffffff1916827bffffffffffffffffffffffffffffffffffffffffffffffffffffffff1916145b806104965750610495826112c6565b5b9050919050565b6060600080546104ac906134ee565b80601f01602080910402602001604051908101604052809291908181526020018280546104d8906134ee565b80156105255780601f106104fa57610100808354040283529160200191610525565b820191906000526020600020905b81548152906001019060200180831161050857829003601f168201915b5050505050905090565b600061053a82611330565b610579576040517f08c379a00000000000000000000000000000000000000000000000000000000081526004016105709061319a565b60405180910390fd5b6004600083815260200190815260200160002060009054906101000a900473ffffffffffffffffffffffffffffffffffffffff169050919050565b60006105bf8261086a565b90508073ffffffffffffffffffffffffffffffffffffffff168373ffffffffffffffffffffffffffffffffffffffff161415610630576040517f08c379a0000000000000000000000000000000000000000000000000000000008152600401610627906131fa565b60405180910390fd5b8073ffffffffffffffffffffffffffffffffffffffff1661064f61139c565b73ffffffffffffffffffffffffffffffffffffffff16148061067e575061067d8161067861139c565b611199565b5b6106bd576040517f08c379a00000000000000000000000000000000000000000000000000000000081526004016106b4906130da565b60405180910390fd5b6106c783836113a4565b505050565b6106dd6106d761139c565b8261145d565b61071c576040517f08c379a00000000000000000000000000000000000000000000000000000000081526004016107139061321a565b60405180910390fd5b61072783838361153b565b505050565b6060600061076061073c846117a2565b60405160200161074c9190612e33565b60405160208183030381529060405261194f565b905060098054905081610773919061359a565b9050600981815481106107af577f4e487b7100000000000000000000000000000000000000000000000000000000600052603260045260246000fd5b9060005260206000200180546107c4906134ee565b80601f01602080910402602001604051908101604052809291908181526020018280546107f0906134ee565b801561083d5780601f106108125761010080835404028352916020019161083d565b820191906000526020600020905b81548152906001019060200180831161082057829003601f168201915b5050505050915050919050565b61086583838360405180602001604052806000815250610bab565b505050565b6000806002600084815260200190815260200160002060009054906101000a900473ffffffffffffffffffffffffffffffffffffffff169050600073ffffffffffffffffffffffffffffffffffffffff168173ffffffffffffffffffffffffffffffffffffffff161415610913576040517f08c379a000000000000000000000000000000000000000000000000000000000815260040161090a9061311a565b60405180910390fd5b80915050919050565b60008073ffffffffffffffffffffffffffffffffffffffff168273ffffffffffffffffffffffffffffffffffffffff16141561098d576040517f08c379a0000000000000000000000000000000000000000000000000000000008152600401610984906130fa565b60405180910390fd5b600360008373ffffffffffffffffffffffffffffffffffffffff1673ffffffffffffffffffffffffffffffffffffffff168152602001908152602001600020549050919050565b60006109e06007611982565b905090565b6060600180546109f4906134ee565b80601f0160208091040260200160405190810160405280929190818152602001828054610a20906134ee565b8015610a6d5780601f10610a4257610100808354040283529160200191610a6d565b820191906000526020600020905b815481529060010190602001808311610a5057829003601f168201915b5050505050905090565b610a89610a8261139c565b8383611990565b5050565b60606000610ac1610a9d846117a2565b604051602001610aad9190612d72565b60405160208183030381529060405261194f565b9050600a8054905081610ad4919061359a565b9050600a8181548110610b10577f4e487b7100000000000000000000000000000000000000000000000000000000600052603260045260246000fd5b906000526020600020018054610b25906134ee565b80601f0160208091040260200160405190810160405280929190818152602001828054610b51906134ee565b8015610b9e5780601f10610b7357610100808354040283529160200191610b9e565b820191906000526020600020905b815481529060010190602001808311610b8157829003601f168201915b5050505050915050919050565b610bbc610bb661139c565b8361145d565b610bfb576040517f08c379a0000000000000000000000000000000000000000000000000000000008152600401610bf29061321a565b60405180910390fd5b610c0784848484611afd565b50505050565b60606000610c41610c1d846117a2565b604051602001610c2d9190612d50565b60405160208183030381529060405261194f565b9050600b8054905081610c54919061359a565b9050600b8181548110610c90577f4e487b7100000000000000000000000000000000000000000000000000000000600052603260045260246000fd5b906000526020600020018054610ca5906134ee565b80601f0160208091040260200160405190810160405280929190818152602001828054610cd1906134ee565b8015610d1e5780601f10610cf357610100808354040283529160200191610d1e565b820191906000526020600020905b815481529060010190602001808311610d0157829003601f168201915b5050505050915050919050565b6060610d3682611330565b610d75576040517f08c379a0000000000000000000000000000000000000000000000000000000008152600401610d6c9061317a565b60405180910390fd5b6000600660008481526020019081526020016000208054610d95906134ee565b80601f0160208091040260200160405190810160405280929190818152602001828054610dc1906134ee565b8015610e0e5780601f10610de357610100808354040283529160200191610e0e565b820191906000526020600020905b815481529060010190602001808311610df157829003601f168201915b505050505090506000610e1f611b59565b9050600081511415610e35578192505050610e78565b600082511115610e6a578082604051602001610e52929190612cc1565b60405160208183030381529060405292505050610e78565b610e7384611b70565b925050505b919050565b6002610e883361091c565b10610ec8576040517f08c379a0000000000000000000000000000000000000000000000000000000008152600401610ebf906131ba565b60405180910390fd5b61016e610ed56007611982565b10610f15576040517f08c379a0000000000000000000000000000000000000000000000000000000008152600401610f0c9061323a565b60405180910390fd5b6000610f216007611982565b90506000610f2e8261072c565b90506000610f3b83610a8d565b90506000610f4884610c0d565b90506000838383604051602001610f6193929190612e77565b6040516020818303038152906040529050600084604051602001610f859190612d94565b6040516020818303038152906040529050600084604051602001610fa99190612ed4565b6040516020818303038152906040529050600084604051602001610fcd9190612dc1565b604051602081830303815290604052905060006008848484604051602001610ff89493929190612ce5565b6040516020818303038152906040529050600061103d8661101884611c17565b604051602001611029929190612dee565b604051602081830303815290604052611c17565b90506000816040516020016110529190612e55565b60405160208183030381529060405290506110a16040518060400160405280601581526020017f0a2d2d2d2d2d2d2d2d2d2d2d2d2d2d2d2d2d2d2d2d000000000000000000000081525061122d565b6110c9816040516020016110b59190612d2e565b60405160208183030381529060405261122d565b6111076040518060400160405280601581526020017f2d2d2d2d2d2d2d2d2d2d2d2d2d2d2d2d2d2d2d2d0a000000000000000000000081525061122d565b611111338c611db6565b61111b8b82611dd4565b6111256007611e48565b611148604051806060016040528060258152602001613ff7602591398c33611e5e565b7fdb6d517c6e9dac9c7b9fdc40e31bde24b3b1b16329a7d3881d5453ae8ea3c592338c6111756007611982565b60405161118493929190612f68565b60405180910390a15050505050505050505050565b6000600560008473ffffffffffffffffffffffffffffffffffffffff1673ffffffffffffffffffffffffffffffffffffffff16815260200190815260200160002060008373ffffffffffffffffffffffffffffffffffffffff1673ffffffffffffffffffffffffffffffffffffffff16815260200190815260200160002060009054906101000a900460ff16905092915050565b6112c3816040516024016112419190612fba565b6040516020818303038152906040527f41304fac000000000000000000000000000000000000000000000000000000007bffffffffffffffffffffffffffffffffffffffffffffffffffffffff19166020820180517bffffffffffffffffffffffffffffffffffffffffffffffffffffffff8381831617835250505050611efd565b50565b60007f01ffc9a7000000000000000000000000000000000000000000000000000000007bffffffffffffffffffffffffffffffffffffffffffffffffffffffff1916827bffffffffffffffffffffffffffffffffffffffffffffffffffffffff1916149050919050565b60008073ffffffffffffffffffffffffffffffffffffffff166002600084815260200190815260200160002060009054906101000a900473ffffffffffffffffffffffffffffffffffffffff1673ffffffffffffffffffffffffffffffffffffffff1614159050919050565b600033905090565b816004600083815260200190815260200160002060006101000a81548173ffffffffffffffffffffffffffffffffffffffff021916908373ffffffffffffffffffffffffffffffffffffffff160217905550808273ffffffffffffffffffffffffffffffffffffffff166114178361086a565b73ffffffffffffffffffffffffffffffffffffffff167f8c5be1e5ebec7d5bd14f71427d1e84f3dd0314c0f7b2291e5b200ac8c7c3b92560405160405180910390a45050565b600061146882611330565b6114a7576040517f08c379a000000000000000000000000000000000000000000000000000000000815260040161149e906130ba565b60405180910390fd5b60006114b28361086a565b90508073ffffffffffffffffffffffffffffffffffffffff168473ffffffffffffffffffffffffffffffffffffffff16148061152157508373ffffffffffffffffffffffffffffffffffffffff166115098461052f565b73ffffffffffffffffffffffffffffffffffffffff16145b8061153257506115318185611199565b5b91505092915050565b8273ffffffffffffffffffffffffffffffffffffffff1661155b8261086a565b73ffffffffffffffffffffffffffffffffffffffff16146115b1576040517f08c379a00000000000000000000000000000000000000000000000000000000081526004016115a89061303a565b60405180910390fd5b600073ffffffffffffffffffffffffffffffffffffffff168273ffffffffffffffffffffffffffffffffffffffff161415611621576040517f08c379a00000000000000000000000000000000000000000000000000000000081526004016116189061307a565b60405180910390fd5b61162c838383611f26565b6116376000826113a4565b6001600360008573ffffffffffffffffffffffffffffffffffffffff1673ffffffffffffffffffffffffffffffffffffffff16815260200190815260200160002060008282546116879190613404565b925050819055506001600360008473ffffffffffffffffffffffffffffffffffffffff1673ffffffffffffffffffffffffffffffffffffffff16815260200190815260200160002060008282546116de9190613323565b92505081905550816002600083815260200190815260200160002060006101000a81548173ffffffffffffffffffffffffffffffffffffffff021916908373ffffffffffffffffffffffffffffffffffffffff160217905550808273ffffffffffffffffffffffffffffffffffffffff168473ffffffffffffffffffffffffffffffffffffffff167fddf252ad1be2c89b69c2b068fc378daa952ba7f163c4a11628f55a4df523b3ef60405160405180910390a461179d838383611f2b565b505050565b606060008214156117ea576040518060400160405280600181526020017f3000000000000000000000000000000000000000000000000000000000000000815250905061194a565b600082905060005b6000821461181c57808061180590613551565b915050600a826118159190613379565b91506117f2565b60008167ffffffffffffffff81111561185e577f4e487b7100000000000000000000000000000000000000000000000000000000600052604160045260246000fd5b6040519080825280601f01601f1916602001820160405280156118905781602001600182028036833780820191505090505b5090505b60008514611943576001826118a99190613404565b9150600a856118b8919061359a565b60306118c49190613323565b60f81b818381518110611900577f4e487b7100000000000000000000000000000000000000000000000000000000600052603260045260246000fd5b60200101907effffffffffffffffffffffffffffffffffffffffffffffffffffffffffffff1916908160001a905350600a8561193c9190613379565b9450611894565b8093505050505b919050565b6000816040516020016119629190612caa565b6040516020818303038152906040528051906020012060001c9050919050565b600081600001549050919050565b8173ffffffffffffffffffffffffffffffffffffffff168373ffffffffffffffffffffffffffffffffffffffff1614156119ff576040517f08c379a00000000000000000000000000000000000000000000000000000000081526004016119f69061309a565b60405180910390fd5b80600560008573ffffffffffffffffffffffffffffffffffffffff1673ffffffffffffffffffffffffffffffffffffffff16815260200190815260200160002060008473ffffffffffffffffffffffffffffffffffffffff1673ffffffffffffffffffffffffffffffffffffffff16815260200190815260200160002060006101000a81548160ff0219169083151502179055508173ffffffffffffffffffffffffffffffffffffffff168373ffffffffffffffffffffffffffffffffffffffff167f17307eab39ab6107e8899845ad3d59bd9653f200f220920489ca2b5937696c3183604051611af09190612f9f565b60405180910390a3505050565b611b0884848461153b565b611b1484848484611f30565b611b53576040517f08c379a0000000000000000000000000000000000000000000000000000000008152600401611b4a9061301a565b60405180910390fd5b50505050565b606060405180602001604052806000815250905090565b6060611b7b82611330565b611bba576040517f08c379a0000000000000000000000000000000000000000000000000000000008152600401611bb1906131da565b60405180910390fd5b6000611bc4611b59565b90506000815111611be45760405180602001604052806000815250611c0f565b80611bee846117a2565b604051602001611bff929190612cc1565b6040516020818303038152906040525b915050919050565b6060600082511415611c3a57604051806020016040528060008152509050611db1565b600060405180606001604052806040815260200161401c6040913990506000600360028551611c699190613323565b611c739190613379565b6004611c7f91906133aa565b90506000602082611c909190613323565b67ffffffffffffffff811115611ccf577f4e487b7100000000000000000000000000000000000000000000000000000000600052604160045260246000fd5b6040519080825280601f01601f191660200182016040528015611d015781602001600182028036833780820191505090505b509050818152600183018586518101602084015b81831015611d70576003830192508251603f8160121c168501518253600182019150603f81600c1c168501518253600182019150603f8160061c168501518253600182019150603f8116850151825360018201915050611d15565b600389510660018114611d8a5760028114611d9a57611da5565b613d3d60f01b6002830352611da5565b603d60f81b60018303525b50505050508093505050505b919050565b611dd08282604051806020016040528060008152506120c7565b5050565b611ddd82611330565b611e1c576040517f08c379a0000000000000000000000000000000000000000000000000000000008152600401611e139061313a565b60405180910390fd5b80600660008481526020019081526020016000209080519060200190611e4392919061231f565b505050565b6001816000016000828254019250508190555050565b611ef8838383604051602401611e7693929190612fdc565b6040516020818303038152906040527fe3849f79000000000000000000000000000000000000000000000000000000007bffffffffffffffffffffffffffffffffffffffffffffffffffffffff19166020820180517bffffffffffffffffffffffffffffffffffffffffffffffffffffffff8381831617835250505050611efd565b505050565b60008151905060006a636f6e736f6c652e6c6f679050602083016000808483855afa5050505050565b505050565b505050565b6000611f518473ffffffffffffffffffffffffffffffffffffffff16612122565b156120ba578373ffffffffffffffffffffffffffffffffffffffff1663150b7a02611f7a61139c565b8786866040518563ffffffff1660e01b8152600401611f9c9493929190612f1c565b602060405180830381600087803b158015611fb657600080fd5b505af1925050508015611fe757506040513d601f19601f82011682018060405250810190611fe49190612663565b60015b61206a573d8060008114612017576040519150601f19603f3d011682016040523d82523d6000602084013e61201c565b606091505b50600081511415612062576040517f08c379a00000000000000000000000000000000000000000000000000000000081526004016120599061301a565b60405180910390fd5b805181602001fd5b63150b7a0260e01b7bffffffffffffffffffffffffffffffffffffffffffffffffffffffff1916817bffffffffffffffffffffffffffffffffffffffffffffffffffffffff1916149150506120bf565b600190505b949350505050565b6120d18383612145565b6120de6000848484611f30565b61211d576040517f08c379a00000000000000000000000000000000000000000000000000000000081526004016121149061301a565b60405180910390fd5b505050565b6000808273ffffffffffffffffffffffffffffffffffffffff163b119050919050565b600073ffffffffffffffffffffffffffffffffffffffff168273ffffffffffffffffffffffffffffffffffffffff1614156121b5576040517f08c379a00000000000000000000000000000000000000000000000000000000081526004016121ac9061315a565b60405180910390fd5b6121be81611330565b156121fe576040517f08c379a00000000000000000000000000000000000000000000000000000000081526004016121f59061305a565b60405180910390fd5b61220a60008383611f26565b6001600360008473ffffffffffffffffffffffffffffffffffffffff1673ffffffffffffffffffffffffffffffffffffffff168152602001908152602001600020600082825461225a9190613323565b92505081905550816002600083815260200190815260200160002060006101000a81548173ffffffffffffffffffffffffffffffffffffffff021916908373ffffffffffffffffffffffffffffffffffffffff160217905550808273ffffffffffffffffffffffffffffffffffffffff16600073ffffffffffffffffffffffffffffffffffffffff167fddf252ad1be2c89b69c2b068fc378daa952ba7f163c4a11628f55a4df523b3ef60405160405180910390a461231b60008383611f2b565b5050565b82805461232b906134ee565b90600052602060002090601f01602090048101928261234d5760008555612394565b82601f1061236657805160ff1916838001178555612394565b82800160010185558215612394579182015b82811115612393578251825591602001919060010190612378565b5b5090506123a191906123a5565b5090565b5b808211156123be5760008160009055506001016123a6565b5090565b60006123d56123d08461329a565b613275565b9050828152602081018484840111156123ed57600080fd5b6123f88482856134ac565b509392505050565b60008135905061240f81613f9a565b92915050565b60008135905061242481613fb1565b92915050565b60008135905061243981613fc8565b92915050565b60008151905061244e81613fc8565b92915050565b600082601f83011261246557600080fd5b81356124758482602086016123c2565b91505092915050565b60008135905061248d81613fdf565b92915050565b6000602082840312156124a557600080fd5b60006124b384828501612400565b91505092915050565b600080604083850312156124cf57600080fd5b60006124dd85828601612400565b92505060206124ee85828601612400565b9150509250929050565b60008060006060848603121561250d57600080fd5b600061251b86828701612400565b935050602061252c86828701612400565b925050604061253d8682870161247e565b9150509250925092565b6000806000806080858703121561255d57600080fd5b600061256b87828801612400565b945050602061257c87828801612400565b935050604061258d8782880161247e565b925050606085013567ffffffffffffffff8111156125aa57600080fd5b6125b687828801612454565b91505092959194509250565b600080604083850312156125d557600080fd5b60006125e385828601612400565b92505060206125f485828601612415565b9150509250929050565b6000806040838503121561261157600080fd5b600061261f85828601612400565b92505060206126308582860161247e565b9150509250929050565b60006020828403121561264c57600080fd5b600061265a8482850161242a565b91505092915050565b60006020828403121561267557600080fd5b60006126838482850161243f565b91505092915050565b60006020828403121561269e57600080fd5b60006126ac8482850161247e565b91505092915050565b6126be81613438565b82525050565b6126cd8161344a565b82525050565b60006126de826132e0565b6126e881856132f6565b93506126f88185602086016134bb565b61270181613687565b840191505092915050565b6000612717826132eb565b6127218185613307565b93506127318185602086016134bb565b61273a81613687565b840191505092915050565b6000612750826132eb565b61275a8185613318565b935061276a8185602086016134bb565b80840191505092915050565b60008154612783816134ee565b61278d8186613318565b945060018216600081146127a857600181146127b9576127ec565b60ff198316865281860193506127ec565b6127c2856132cb565b60005b838110156127e4578154818901526001820191506020810190506127c5565b838801955050505b50505092915050565b6000612802602583613318565b915061280d82613698565b602582019050919050565b6000612825603283613307565b9150612830826136e7565b604082019050919050565b6000612848600483613318565b915061285382613736565b600482019050919050565b600061286b602583613307565b91506128768261375f565b604082019050919050565b600061288e601c83613307565b9150612899826137ae565b602082019050919050565b60006128b1600a83613318565b91506128bc826137d7565b600a82019050919050565b60006128d4602483613307565b91506128df82613800565b604082019050919050565b60006128f7601983613307565b91506129028261384f565b602082019050919050565b600061291a600b83613318565b915061292582613878565b600b82019050919050565b600061293d602c83613307565b9150612948826138a1565b604082019050919050565b6000612960603883613307565b915061296b826138f0565b604082019050919050565b6000612983602a83613307565b915061298e8261393f565b604082019050919050565b60006129a6602983613307565b91506129b18261398e565b604082019050919050565b60006129c9602e83613307565b91506129d4826139dd565b604082019050919050565b60006129ec607083613318565b91506129f782613a2c565b607082019050919050565b6000612a0f605383613318565b9150612a1a82613ac7565b605382019050919050565b6000612a32605383613318565b9150612a3d82613b3c565b605382019050919050565b6000612a55600283613318565b9150612a6082613bb1565b600282019050919050565b6000612a78600783613318565b9150612a8382613bda565b600782019050919050565b6000612a9b602083613307565b9150612aa682613c03565b602082019050919050565b6000612abe603183613307565b9150612ac982613c2c565b604082019050919050565b6000612ae1602c83613307565b9150612aec82613c7b565b604082019050919050565b6000612b04602683613307565b9150612b0f82613cca565b604082019050919050565b6000612b27602f83613307565b9150612b3282613d19565b604082019050919050565b6000612b4a600a83613318565b9150612b5582613d68565b600a82019050919050565b6000612b6d602183613307565b9150612b7882613d91565b604082019050919050565b6000612b90600a83613318565b9150612b9b82613de0565b600a82019050919050565b6000612bb3601d83613318565b9150612bbe82613e09565b601d82019050919050565b6000612bd6603183613307565b9150612be182613e32565b604082019050919050565b6000612bf9600183613318565b9150612c0482613e81565b600182019050919050565b6000612c1c602083613307565b9150612c2782613eaa565b602082019050919050565b6000612c3f600683613318565b9150612c4a82613ed3565b600682019050919050565b6000612c62600483613318565b9150612c6d82613efc565b600482019050919050565b6000612c85605383613318565b9150612c9082613f25565b605382019050919050565b612ca4816134a2565b82525050565b6000612cb68284612745565b915081905092915050565b6000612ccd8285612745565b9150612cd98284612745565b91508190509392505050565b6000612cf18287612776565b9150612cfd8286612745565b9150612d098285612745565b9150612d158284612745565b9150612d2082612c32565b915081905095945050505050565b6000612d39826127f5565b9150612d458284612745565b915081905092915050565b6000612d5b826128a4565b9150612d678284612745565b915081905092915050565b6000612d7d8261290d565b9150612d898284612745565b915081905092915050565b6000612d9f82612a02565b9150612dab8284612745565b9150612db682612a6b565b915081905092915050565b6000612dcc82612a25565b9150612dd88284612745565b9150612de382612a6b565b915081905092915050565b6000612df982612b3d565b9150612e058285612745565b9150612e10826129df565b9150612e1c8284612745565b9150612e2782612a48565b91508190509392505050565b6000612e3e82612b83565b9150612e4a8284612745565b915081905092915050565b6000612e6082612ba6565b9150612e6c8284612745565b915081905092915050565b6000612e8282612c55565b9150612e8e8286612745565b9150612e9982612bec565b9150612ea58285612745565b9150612eb082612bec565b9150612ebc8284612745565b9150612ec78261283b565b9150819050949350505050565b6000612edf82612c78565b9150612eeb8284612745565b9150612ef682612a6b565b915081905092915050565b6000602082019050612f1660008301846126b5565b92915050565b6000608082019050612f3160008301876126b5565b612f3e60208301866126b5565b612f4b6040830185612c9b565b8181036060830152612f5d81846126d3565b905095945050505050565b6000606082019050612f7d60008301866126b5565b612f8a6020830185612c9b565b612f976040830184612c9b565b949350505050565b6000602082019050612fb460008301846126c4565b92915050565b60006020820190508181036000830152612fd4818461270c565b905092915050565b60006060820190508181036000830152612ff6818661270c565b90506130056020830185612c9b565b61301260408301846126b5565b949350505050565b6000602082019050818103600083015261303381612818565b9050919050565b600060208201905081810360008301526130538161285e565b9050919050565b6000602082019050818103600083015261307381612881565b9050919050565b60006020820190508181036000830152613093816128c7565b9050919050565b600060208201905081810360008301526130b3816128ea565b9050919050565b600060208201905081810360008301526130d381612930565b9050919050565b600060208201905081810360008301526130f381612953565b9050919050565b6000602082019050818103600083015261311381612976565b9050919050565b6000602082019050818103600083015261313381612999565b9050919050565b60006020820190508181036000830152613153816129bc565b9050919050565b6000602082019050818103600083015261317381612a8e565b9050919050565b6000602082019050818103600083015261319381612ab1565b9050919050565b600060208201905081810360008301526131b381612ad4565b9050919050565b600060208201905081810360008301526131d381612af7565b9050919050565b600060208201905081810360008301526131f381612b1a565b9050919050565b6000602082019050818103600083015261321381612b60565b9050919050565b6000602082019050818103600083015261323381612bc9565b9050919050565b6000602082019050818103600083015261325381612c0f565b9050919050565b600060208201905061326f6000830184612c9b565b92915050565b600061327f613290565b905061328b8282613520565b919050565b6000604051905090565b600067ffffffffffffffff8211156132b5576132b4613658565b5b6132be82613687565b9050602081019050919050565b60008190508160005260206000209050919050565b600081519050919050565b600081519050919050565b600082825260208201905092915050565b600082825260208201905092915050565b600081905092915050565b600061332e826134a2565b9150613339836134a2565b9250827fffffffffffffffffffffffffffffffffffffffffffffffffffffffffffffffff0382111561336e5761336d6135cb565b5b828201905092915050565b6000613384826134a2565b915061338f836134a2565b92508261339f5761339e6135fa565b5b828204905092915050565b60006133b5826134a2565b91506133c0836134a2565b9250817fffffffffffffffffffffffffffffffffffffffffffffffffffffffffffffffff04831182151516156133f9576133f86135cb565b5b828202905092915050565b600061340f826134a2565b915061341a836134a2565b92508282101561342d5761342c6135cb565b5b828203905092915050565b600061344382613482565b9050919050565b60008115159050919050565b60007fffffffff0000000000000000000000000000000000000000000000000000000082169050919050565b600073ffffffffffffffffffffffffffffffffffffffff82169050919050565b6000819050919050565b82818337600083830152505050565b60005b838110156134d95780820151818401526020810190506134be565b838111156134e8576000848401525b50505050565b6000600282049050600182168061350657607f821691505b6020821081141561351a57613519613629565b5b50919050565b61352982613687565b810181811067ffffffffffffffff8211171561354857613547613658565b5b80604052505050565b600061355c826134a2565b91507fffffffffffffffffffffffffffffffffffffffffffffffffffffffffffffffff82141561358f5761358e6135cb565b5b600182019050919050565b60006135a5826134a2565b91506135b0836134a2565b9250826135c0576135bf6135fa565b5b828206905092915050565b7f4e487b7100000000000000000000000000000000000000000000000000000000600052601160045260246000fd5b7f4e487b7100000000000000000000000000000000000000000000000000000000600052601260045260246000fd5b7f4e487b7100000000000000000000000000000000000000000000000000000000600052602260045260246000fd5b7f4e487b7100000000000000000000000000000000000000000000000000000000600052604160045260246000fd5b6000601f19601f8301169050919050565b7f68747470733a2f2f6e6674707265766965772e30786465762e636f6465732f3f60008201527f636f64653d000000000000000000000000000000000000000000000000000000602082015250565b7f4552433732313a207472616e7366657220746f206e6f6e20455243373231526560008201527f63656976657220696d706c656d656e7465720000000000000000000000000000602082015250565b7ff09f8da300000000000000000000000000000000000000000000000000000000600082015250565b7f4552433732313a207472616e736665722066726f6d20696e636f72726563742060008201527f6f776e6572000000000000000000000000000000000000000000000000000000602082015250565b7f4552433732313a20746f6b656e20616c7265616479206d696e74656400000000600082015250565b7f54484952445f574f524400000000000000000000000000000000000000000000600082015250565b7f4552433732313a207472616e7366657220746f20746865207a65726f2061646460008201527f7265737300000000000000000000000000000000000000000000000000000000602082015250565b7f4552433732313a20617070726f766520746f2063616c6c657200000000000000600082015250565b7f5345434f4e445f574f5244000000000000000000000000000000000000000000600082015250565b7f4552433732313a206f70657261746f7220717565727920666f72206e6f6e657860008201527f697374656e7420746f6b656e0000000000000000000000000000000000000000602082015250565b7f4552433732313a20617070726f76652063616c6c6572206973206e6f74206f7760008201527f6e6572206e6f7220617070726f76656420666f7220616c6c0000000000000000602082015250565b7f4552433732313a2062616c616e636520717565727920666f7220746865207a6560008201527f726f206164647265737300000000000000000000000000000000000000000000602082015250565b7f4552433732313a206f776e657220717565727920666f72206e6f6e657869737460008201527f656e7420746f6b656e0000000000000000000000000000000000000000000000602082015250565b7f45524337323155524953746f726167653a2055524920736574206f66206e6f6e60008201527f6578697374656e7420746f6b656e000000000000000000000000000000000000602082015250565b7f222c20226465736372697074696f6e223a20224120686967686c79206163636c60008201527f61696d6564204e465420636f6c6c656374696f6e2066726f6d20456c6563747260208201527f69632053686565702e222c2022696d616765223a2022646174613a696d61676560408201527f2f7376672b786d6c3b6261736536342c00000000000000000000000000000000606082015250565b7f3c7465787420783d273530252720793d273430252720636c6173733d2762617360008201527f652720646f6d696e616e742d626173656c696e653d276d6964646c652720746560208201527f78742d616e63686f723d276d6964646c65273e00000000000000000000000000604082015250565b7f3c7465787420783d273530252720793d273630252720636c6173733d2762617360008201527f652720646f6d696e616e742d626173656c696e653d276d6964646c652720746560208201527f78742d616e63686f723d276d6964646c65273e00000000000000000000000000604082015250565b7f227d000000000000000000000000000000000000000000000000000000000000600082015250565b7f3c2f746578743e00000000000000000000000000000000000000000000000000600082015250565b7f4552433732313a206d696e7420746f20746865207a65726f2061646472657373600082015250565b7f45524337323155524953746f726167653a2055524920717565727920666f722060008201527f6e6f6e6578697374656e7420746f6b656e000000000000000000000000000000602082015250565b7f4552433732313a20617070726f76656420717565727920666f72206e6f6e657860008201527f697374656e7420746f6b656e0000000000000000000000000000000000000000602082015250565b7f456163682061646472657373206d6179206f6e6c79206f776e206f6e6520737560008201527f7368694e46540000000000000000000000000000000000000000000000000000602082015250565b7f4552433732314d657461646174613a2055524920717565727920666f72206e6f60008201527f6e6578697374656e7420746f6b656e0000000000000000000000000000000000602082015250565b7f7b226e616d65223a202200000000000000000000000000000000000000000000600082015250565b7f4552433732313a20617070726f76616c20746f2063757272656e74206f776e6560008201527f7200000000000000000000000000000000000000000000000000000000000000602082015250565b7f46495253545f574f524400000000000000000000000000000000000000000000600082015250565b7f646174613a6170706c69636174696f6e2f6a736f6e3b6261736536342c000000600082015250565b7f4552433732313a207472616e736665722063616c6c6572206973206e6f74206f60008201527f776e6572206e6f7220617070726f766564000000000000000000000000000000602082015250565b7f5f00000000000000000000000000000000000000000000000000000000000000600082015250565b7f4f6e6c79203336352073757368694e46542063616e206265206d696e74656421600082015250565b7f3c2f7376673e0000000000000000000000000000000000000000000000000000600082015250565b7ff09f8c9f00000000000000000000000000000000000000000000000000000000600082015250565b7f3c7465787420783d273530252720793d273530252720636c6173733d2762617360008201527f652720646f6d696e616e742d626173656c696e653d276d6964646c652720746560208201527f78742d616e63686f723d276d6964646c65273e00000000000000000000000000604082015250565b613fa381613438565b8114613fae57600080fd5b50565b613fba8161344a565b8114613fc557600080fd5b50565b613fd181613456565b8114613fdc57600080fd5b50565b613fe8816134a2565b8114613ff357600080fd5b5056fe416e204e465420772f20494420257320686173206265656e206d696e74656420746f2025734142434445464748494a4b4c4d4e4f505152535455565758595a6162636465666768696a6b6c6d6e6f707172737475767778797a303132333435363738392b2fa2646970667358221220d7e067a5ce26589b99948aa994b6d272a283028f695c1b9d97fabced4f303d5064736f6c634300080400333c73766720786d6c6e733d27687474703a2f2f7777772e77332e6f72672f323030302f73766727207072657365727665417370656374526174696f3d27784d696e594d696e206d656574272076696577426f783d273020302036343020343830273e3c7374796c653e2e62617365207b2066696c6c3a20626c61636b3b20666f6e742d66616d696c793a2073657269663b20666f6e742d73697a653a20323870783b207d3c2f7374796c653e3c726563742077696474683d273130302527206865696768743d2731303025272066696c6c3d2775726c28237761766529272066696c6c2d6f7061636974793d27302e36272f3e3c646566733e3c7061747465726e2069643d27776176652720783d27302720793d2730272077696474683d27353627206865696768743d27323827207061747465726e556e6974733d277573657253706163654f6e557365273e3c706174682066696c6c3d27233863643739302720643d274d35362032367632682d372e373563322e332d312e323720342e39342d3220372e37352d327a6d2d32362032613220322030203120302d342030682d342e30394132352e39382032352e39382030203020302030203136762d32632e3637203020312e33342e30322032202e3037563134613220322030203020302d322d32762d326134203420302030203120332e393820332e362032382e30392032382e303920302030203120322e382d332e38364138203820302030203020302036563461392e393920392e393920302030203120382e313720342e3233632e39342d2e393520312e39362d312e383320332e30332d322e36334131332e39382031332e39382030203020302030203068372e3735633220312e3120332e373320322e363320352e3120342e343520312e31322d2e373220322e332d312e333720332e35332d312e39334132302e312032302e312030203020302031342e3238203068322e37632e34352e35362e383820312e313420312e323920312e373420312e332d2e343820322e36332d2e383720342d312e31352d2e31312d2e322d2e32332d2e342d2e33362d2e3539483236762e30376132382e342032382e3420302030203120342030563068342e30396c2d2e33372e353963312e33382e323820322e37322e363720342e303120312e31352e342d2e362e38342d312e313820312e332d312e373468322e36396132302e312032302e312030203020302d322e3120322e353263312e32332e353620322e343120312e3220332e353420312e39334131362e30382031362e30382030203020312034382e32352030483536632d342e353820302d382e363520322e322d31312e3220352e3620312e30372e3820322e303920312e363820332e303320322e363341392e393920392e393920302030203120353620347632613820382030203020302d362e373720332e373463312e303320312e3220312e393720322e3520322e373920332e3836413420342030203020312035362031307632613220322030203020302d3220322e30372032382e342032382e3420302030203120322d2e30377632632d392e3220302d31372e3320342e37382d32312e39312031324833307a4d372e37352032384830762d3263322e3831203020352e34362e373320372e373520327a4d35362032307632632d352e3620302d31302e363520322e332d31342e32382036682d322e3763342e30342d342e38392031302e31352d382031362e39382d387a6d2d33392e30332038682d322e36394331302e36352032342e3320352e362032322030203232762d3263362e383320302031322e393420332e31312031362e393720387a6d31352e30312d2e346132382e30392032382e303920302030203120322e382d332e3836203820382030203020302d31332e3535203063312e303320312e3220312e393720322e3520322e373920332e38366134203420302030203120372e393620307a6d31342e32392d31312e383663312e332d2e343820322e36332d2e383720342d312e31356132352e39392032352e39392030203020302d34342e3535203063312e33382e323820322e37322e363720342e303120312e31356132312e39382032312e39382030203020312033362e353420307a6d2d352e343320322e373163312e31332d2e373220322e332d312e333720332e35342d312e39336131392e39382031392e39382030203020302d33322e3736203063312e32332e353620322e343120312e3220332e353420312e39336131352e39382031352e39382030203020312032352e363820307a6d2d342e363720332e3738632e39342d2e393520312e39362d312e383320332e30332d322e36336131332e39382031332e39382030203020302d32322e34203063312e30372e3820322e303920312e363820332e303320322e363361392e393920392e39392030203020312031362e333420307a272f3e3c2f7061747465726e3e3c2f646566733e3c67207374726f6b652d77696474683d2733273e3c6c696e65207374726f6b653d2723303030272079323d273332332e3737373238272078323d273536322e3237343633272079313d273331312e3439393939272078313d273536322e3237343633272066696c6c3d276e6f6e65272f3e3c6c696e65207472616e73666f726d3d27726f74617465282d3930203535372e363339203332322e3433392927207374726f6b653d2723303030272079323d273332382e3537373731272078323d273535372e36333935272079313d273331362e3330303431272078313d273535372e36333935272066696c6c3d276e6f6e65272f3e3c2f673e3c67207472616e73666f726d3d27726f74617465282d3138302039322e363339203136322e3633392927207374726f6b652d77696474683d2733273e3c6c696e65207374726f6b653d2723303030272079323d273136382e37373733272078323d2739372e3237343138272079313d273135362e3530303031272078313d2739372e3237343138272066696c6c3d276e6f6e65272f3e3c6c696e65207472616e73666f726d3d27726f74617465282d39302039322e363339203136372e3433392927207374726f6b653d2723303030272079323d273137332e3537373732272078323d2739322e3633393036272079313d273136312e3330303432272078313d2739322e3633393036272066696c6c3d276e6f6e65272f3e3c2f673e",
  "linkReferences": {},
  "deployedLinkReferences": {}
}